:100000000C9478030C94A0030C94A0030C94A0030C
:100010000C94A0030C94A0030C94A0030C94A003D4
:100020000C94A0030C94A0030C9408120C94771267
:100030000C94A0030C94A0030C94A0030C94A003B4
:100040000C94A0030C94F3140C94A0030C94A00340
:100050000C94A0030C94A0030C94A0030C94A9147A
:100060000C94A0030C94A0030C94A0030C94A00384
:100070000C94A0030C94A0030C94A0030C94A00374
:100080000C9442150C94A0030C94A0030C94A003B0
:100090000C94A0030C94A0030C94A0030C94A00354
:1000A0000C94A0030C94A0030C94A00305A84CCDC1
:1000B000B2D44EB93836A9020C50B9918688083CA2
:1000C000A6AAAA2ABE000000803F903E00858000BC
:1000D0008590450086800190904A0085800085903B
:1000E00041008680029A90480086800085903E00FC
:1000F00085800086903E0085800190903E0085803E
:100100000086903C008580029B9040008580E090B6
:10011000470010800011904A002180F090430010A9
:100120009046001190440011903A0010901900116F
:1001300090510011906200109059001190480011E8
:10014000905100109047001190430011904600100C
:10015000903A001180F0904F00219050008580F07F
:10016000904800429037001190390011903C0010E7
:10017000903F0011904200119045001090480011EE
:10018000904B0011904E00109051001190540011AE
:1001900090570010905A0011905C001180F090462A
:1001A00000109047001190450011904700109046B4
:1001B000001190450011904100109044001180F012
:1001C000904B001090480011904500119042001093
:1001D000904200119045001190490010904C001180
:1001E000905000119053001090570011905A001138
:1001F000905600109055001190540011905300102B
:10020000904C0011904F0011905300109057001126
:10021000905B0011905F00109063001190670011D7
:1002200080F09059001090470011905200119045B5
:100230000010904F0011904E001190450010903D1D
:10024000001190340011902B001090510011904C2F
:100250000011902E0010904B001190380011903634
:1002600000109029001190460011902D001090363A
:100270000011903C0011902A001090380011903726
:1002800000119026001090240011902B0011903046
:10029000001080F0905F0010905C001190540011ED
:1002A00090520010904A00119045001190410010AA
:1002B000903E00119039001180F090460064905EED
:1002C00000B780F047414D45204F5645520006018A
:1002D0001501260137014A015D01720188019F0164
:1002E000B801D201EE010B022A024B026E02930208
:1002F000BA02E40210033F037003A403DC031704F3
:1003000055049704DD0427057505C80520067D06FC
:10031000E0064907B8072D08A9082D09B9094D0AB3
:10032000EA0A900B400CFA0CC00D910E6F0F5A1098
:1003300053115B1272139A14D41520178018F519F3
:10034000801B231DDE1EB420A622B524E4263429FA
:10035000A72B402E0031EA330037453ABC3D6841B7
:100360004C456B49C84D68524F57805C0062101174
:100370001213151617181A1C1D1F21232527292CA7
:100380002E3134373A3E4145494E52575C62686ED1
:10039000757B838B939CA5AFB9C4D0DCE9F7BA0217
:1003A00094022202C0019E01600156011C010F014E
:1003B000CA005B486F6C645D205374726574636837
:1003C000000050494E20434C494D4200D5F08D1459
:1003D000A1C881CFD9F1AF2000903C008580008575
:1003E000903E00868000859040008580019090417D
:1003F000008680008590400085800085903E0086C4
:1004000080019090390085800085903B00868000B7
:1004100085903C0085800190903E0086800085900C
:100420003C0085800085903B0086800190E09048EC
:100430000010904B0011904E00119051001080F070
:10044000353509320438080B0002020200000904A5
:100450000000010202000005240010010524010132
:10046000010424020605240600010705810310008B
:100470004009040100020A000000070502024000D2
:100480000007058302400000040309041201000272
:10049000EF02014041233680000101020301417255
:1004A0006475696E6F204C4C430041726475626FD5
:1004B000790000000001010102020000002E00008E
:1004C00000000600060000143E143E1400042A3EFC
:1004D0002A1000261008043200142A2C10280000CC
:1004E0000006000000001C2200000000221C00008A
:1004F0000014083E08140008083E080800002010F8
:100500000000000808080808000000200000002083
:1005100010080402001C322A261C0024223E20203F
:100520000024322A2A240014222A2A140018141221
:100530003E10002E2A2A2A12001C2A2A2A100006FF
:1005400022120A0600142A2A2A1400042A2A2A1C23
:100550000000001400000000201400000008141423
:10056000222200141414141400222214140800046B
:10057000022A0A04001C222A2A0C003C0A0A0A3C0D
:10058000003E2A2A2A14001C22222214003E222283
:10059000221C003E2A2A2A22003E0A0A0A02001CC5
:1005A00022222A18003E0808083E0022223E22226B
:1005B000001020221E02003E08081422003E2020C7
:1005C0002020003E0408043E003E0408103E001CAB
:1005D0002222221C003E0A0A0A04001C2222323C6B
:1005E000003E0A0A0A3400242A2A2A120002023E85
:1005F0000202001E2020201E000E1020100E001EE1
:10060000201C201E002214081422000204380402B8
:100610000022322A26220000003E220000020408A6
:100620001020000000223E00000004020400002010
:1006300020202020000000040800001824243C0092
:10064000003E282810000018242424000010282828
:100650003E000018342C08000000083C0A0000048A
:100660002A2A1C0000003E08300000000034000070
:100670000000201A000000003E1028000000223E6A
:100680002000003C041C0438003C0404380000181E
:1006900024241800003C14140800000814143C0022
:1006A000003C0804040000282C3414000000081C3E
:1006B0002800001C20203C00000C30300C00001CE6
:1006C0002018201C002418182400002418080400F6
:1006D0000024342C24000000083622000000003ED4
:1006E00000000000223608000008040810089215D7
:1006F00011241FBECFEFDAE0DEBFCDBF11E0A0E0D6
:10070000B1E0E0E9F5E402C005900D92AE32B10728
:10071000D9F729E0AEE2B1E001C01D92A13BB207DA
:10072000E1F713E0C8E7D3E004C02197FE010E947F
:10073000E81FC737D107C9F70E94A7150C94C62236
:100740000C940000AF92BF92CF92DF92EF92FF9293
:100750000F931F93CF93DF936C01FC013596E5381F
:10076000F10508F041C0FB013596E534F105E0F5EF
:10077000DB0177FF04C0AA27BB27A61BB70BA77016
:10078000BB27EB0177FD2796E3E0D595C795EA9562
:10079000E1F777FF07C0219768E070E0FB01EA1BF3
:1007A000FB0BDF01BE017695762F6627779567955F
:1007B0005B01A80EB91E60587F4F860F971F70E02F
:1007C00060E0E8E0F0E07F01EA1AFB0AF0E8CF160B
:1007D000D10451F0D7FE13C06F5F7F4F3FEFC31AB4
:1007E000D30A6630710591F7DF91CF911F910F9178
:1007F000FF90EF90DF90CF90BF90AF900895CF3FE4
:10080000DC07D1F4109709F036C0E6CFE491F0E0B0
:100810000E2C02C0F595E7950A94E2F7E095F09565
:100820003E2341C0E491F0E00E2C02C0F595E7951F
:100830000A94E2F73E2B37C08501060F171F0F54AD
:100840001A4FF8013081FA01E60FF71F213009F441
:1008500039C0222359F1E4910A2E01C0EE0F0A9407
:10086000EAF73E27F8013083109709F4B5CFC73077
:10087000D10509F4B1CF8B01080F191F0F541A4F7E
:10088000F8013081FA01E60FF71F213059F22223D7
:1008900009F4BCCFE491F0E00E2C02C0F595E79589
:1008A0000A94E2F73E27F801308396CFE491F0E016
:1008B0000A2E02C0EE0FFF1F0A94E2F7E095F095B2
:1008C0003E23D0CFE4910A2E01C0EE0F0A94EAF73E
:1008D0003E2BC8CF2F923F924F925F926F927F92A2
:1008E0008F929F92AF92BF92CF92DF92EF92FF9240
:1008F0000F931F93CF93DF93CDB7DEB766970FB6F5
:10090000F894DEBF0FBECDBF2B013C012D833E838B
:100910004F835887E982FA820B831C83A986BA86A3
:10092000CB86DC869E868D8620E030E040E05FE36B
:10093000C801B7010E94D11E9B01AC01C301B201E5
:100940000E94D21B4B015C0120E030E040E05FE3FD
:1009500069857A858B859C850E94D11E9B01AC019F
:100960006D817E818F8198850E94D21B6B017C01F5
:100970008091AD05882309F482C020E030E040E892
:1009800052ECC501B4010E94CC1E87FD1EC020E0C0
:1009900030E040E453E4C501B4010E94561C87FFD7
:1009A00014C020E030E040E852ECC701B6010E94DC
:1009B000CC1E87FD0AC011E020E030E040E053E4A7
:1009C000C701B6010E94561C87FF10E010FF57C0F8
:1009D0006090B005C501B4010E94D21C162FC7015A
:1009E000B6010E94D21C062F69817A818B819C817D
:1009F0000E94D91C762E69857A858B859C850E94FC
:100A0000D91C362F409153034D83A4E5B3E020E079
:100A1000612F012E000C770B788B6F87872D90E06C
:100A2000EE27FF27E81BF90BFA8BE98B402F002EEE
:100A3000000C550B5C8B4B8B832F90E06627772740
:100A4000681B790B7E8B6D8B212C312C210123941B
:100A50005D812513C9C067FC12C08091AC05883741
:100A600070F465E0869FF0011124EC5AFC4F60821F
:100A700011830283738234838F5F8093AC057091FE
:100A8000B0057D83783008F010C1C501B4010E9423
:100A9000D21C1B015B01C701B6010E94D21C6B0175
:100AA0008B0169817A818B819C810E94D21C698330
:100AB0007A838B839C8369807A8069857A858B852C
:100AC0009C850E94D21C9B0137FE0CC044275527F1
:100AD00042195309461557050CF0E7C0620C731C08
:100AE000B12CA12C17FF0DC0442755274C195D09C7
:100AF000421753070CF0D9C09B012C0D3D1D10E08F
:100B000000E0161417040CF0D0C080E8A816B10459
:100B10000CF0CBC0121613060CF0C7C00034110540
:100B20000CF0C3C0C3018A0D9B1D813891052CF0C8
:100B300080E890E03C016A187B08C901800F911F92
:100B40008134910524F020E430E0201B310BC801F2
:100B500043E0959587954A95E1F79695982F8827D4
:100B6000979587958A0D9B1D8F549A4F0770402F3C
:100B700050E06FEFB62E01C0BB0C0A95EAF7AD81CD
:100B8000EA2FAA0FFF0BEE54FB4FE491240F351F01
:100B900048E050E0421B530BEE24EA94F12C430151
:100BA000992460E870E0661977092830310544F42B
:100BB0008701042E02C0159507950A94E2F7B0222A
:100BC000F62DE13009F05DC08C01FF2309F45FC010
:100BD000F150D801AD908D016D01B1E0CB1AD10873
:100BE000AB28D601AC92F1CF12965C911297139676
:100BF0006C91139714964C91149711968C911197B0
:100C0000EF85F889E81BF10987FDF395CF01E989A4
:100C1000FA89E817F907A4F46817190689F084F02F
:100C20008B899C89851B910957FD93956D897E89D8
:100C3000681779072CF451E04817190609F00CF4ED
:100C400050E050FF1BC08C91E82FE295EF70F0E070
:100C5000EE0FFF1F4D855E85E40FF51F8F70B2010B
:100C6000A10104C0440F551F661F771F8A95D2F754
:100C700080819181482B592B518340832F5F15969A
:100C8000E7CE8C01E11136C0B094F11127C0880D78
:100C9000991D28503109860F971F485F5F4FBB246D
:100CA000BA94121613060CF480CF66960FB6F89419
:100CB000DEBF0FBECDBFDF91CF911F910F91FF908F
:100CC000EF90DF90CF90BF90AF909F908F907F90EC
:100CD0006F905F904F903F902F900895F150D80102
:100CE000AD908D016D01B1E0CB1AD108AB20D601DA
:100CF000AC92CBCFFF2359F2F150D801AD908D01CA
:100D00006D01B1E0CB1AD108AB24D601AC92F2CF81
:100D1000E1EBF5E080E0A0E0B8E000800EBC8111DE
:100D2000012C1197A0FDFDCF0192B9F70DB40895E4
:100D300080E0E1EBF5E081118FEF00248193819356
:100D4000819381930394D1F70895E1E0F0E00E944C
:100D5000BA06319728F068517C4F8F4F9F4FF9CFDB
:100D6000AB01FC010E94BA06641775078E079F0746
:100D7000C8F30895A2E3B2E02FB7F8947D918D9166
:100D80009C9166B52FBFA89B05C06F3F18F47F5F8D
:100D90008F4F9F4F22E0660F771F881F991F2A955C
:100DA000D1F70895FC0180915203882311F13FB7D8
:100DB000F89482E08093E9002091F200822F90E085
:100DC0001816190614F481E090E0882339F0289869
:100DD00044E6409351034091F1004083222339F0CF
:100DE0002091F200211103C02BE62093E8003FBFC1
:100DF00008958FEF9FEF08952FB7F89483E08093C5
:100E0000E9009091E800892F807295FF04C09091CD
:100E1000F20080E4891B2FBF08958091490381115E
:100E20000DC082E08093450384E0809346031092D6
:100E300048031092470381E08093490385E493E0DF
:100E400008958F929F92AF92BF92CF92DF92EF92CE
:100E5000FF920F931F93CF93DF936C017B018A0165
:100E600080910D01882309F458C080915203882392
:100E700009F453C08091F40280FF05C08091E00026
:100E800082608093E000E801B12C8AEFA82E93E005
:100E9000892E2AE3922E209711F4BB20B9F10E94EB
:100EA000FC06811106C0AA94AA20B9F10E94A506E9
:100EB000F2CF8C171D0611F00CF08C2F9FB7F89411
:100EC0008092E9002091E80025FD02C09FBFE3CF9A
:100ED000282F30E0C21BD30BF701815020F0419145
:100EE0004093F100FACFE20EF31EBB2021F0909266
:100EF000E800B12CEBCF8091E80085FDE7CF909220
:100F0000E800BB24B394209709F3F3CF5D9884E6FF
:100F10008093F302101611063CF081E090E0F60198
:100F20009383828310E000E0C801DF91CF911F918D
:100F30000F91FF90EF90DF90CF90BF90AF909F9078
:100F40008F900895CF93DF931F92CDB7DEB769835B
:100F5000DC01ED91FC910280F381E02D41E050E055
:100F6000BE016F5F7F4F09950F90DF91CF9108957C
:100F700083E08093E9008091F200882319F08AE3EE
:100F80008093E80008950E94FC0690E00895CF93B6
:100F9000DF931F92CDB7DEB7FC018485958597FD61
:100FA00008C02FEF3FEF358724870F90DF91CF9157
:100FB0000895CE0101960E94D206019719F4898105
:100FC00090E0F3CF8FEF9FEFF0CF0F931F93CF936E
:100FD000DF931F92CDB7DEB78C01FC018485958528
:100FE00097FF0BC0CE0101960E94D206019771F4C3
:100FF000898190E0F80195878487F801848595853B
:101000000F90DF91CF911F910F9108958FEF9FEF78
:10101000F1CFFC018485958597FD0BC09FB7F894AF
:1010200082E08093E9008091F2009FBF90E00196FA
:1010300008959FB7F89482E08093E9008091F200D0
:101040009FBF90E008954091EF025091F0022091EF
:10105000ED023091EE0242175307B4F49091E8008C
:101060009570E1F39091E80092FD19C08093F10032
:101070008091EF029091F00201968F739927892B4E
:1010800019F48EEF8093E8008091EF029091F002C6
:1010900001969093F0028093EF0281E0089580E042
:1010A0000895EF92FF920F931F93CF93DF93F82E43
:1010B000192FE62E042F81E0860F880F0E94230847
:1010C00083E00E942308CF2DD12FEC0EFD2EF11CC2
:1010D000CE15DF05B9F007FF13C0FE0184910E9411
:1010E0002308182F80E00E94230881232196811174
:1010F000EFCFDF91CF911F910F91FF90EF90089567
:101100008881EDCF81E0F5CFDF92EF92FF920F93D0
:101110001F93CF93DF93D82E8A01EB017B01E40E5E
:10112000F51ECE15DF0559F0D7FE12C0FE018491E1
:101130000E94230821968111F4CF0FEF1FEFC80101
:10114000DF91CF911F910F91FF90EF90DF90089565
:101150008881EECF0F931F93CF93DF931F92CDB76C
:10116000DEB782E0898342E450E066E474E080E820
:101170000E9484080E940D07DC0112960D911C91BB
:101180000115110589F0D801ED91FC910280F381E0
:10119000E02DBE016F5F7F4FC801099597FD04C028
:1011A000F80100851185ECCF89810F90DF91CF91F7
:1011B0001F910F910895615030F02091F100FC01D2
:1011C00020830196F8CF289884E6809351030895F0
:1011D000BC0190E080E0AB01FC010E94BA064150E6
:1011E0005109E109F10928F068517C4F8F4F9F4F59
:1011F000F6CFAB01FC010E94BA06641775078E0793
:101200009F07C8F308958FB18095807F669B8860A3
:101210001C9B846008951092DC023E983F980895CC
:101220003E9A3F9A81E08093DC020895CF92DF924C
:10123000EF92FF92CF93C82F6B01F12CE12C60E06D
:1012400074E284EF90E0A70196010E946F1B215089
:1012500031094109510991E02115310581E0480723
:1012600051056CF060E970ED83E090E0A701960114
:101270000E946F1B215031094109510993E0C1308F
:10128000C9F080919100887F892B809391003093E1
:1012900099002093980010929500109294008091EC
:1012A0007100826080937100CF91FF90EF90DF908A
:1012B000CF90089580918100887F892B8093810051
:1012C000309389002093880010928500109284004A
:1012D00080916F00826080936F00E6CF282F82306C
:1012E00009F1E82FF0E08130F1F0809171008D7FFD
:1012F00080937100469830912F0281E090E0A0E049
:10130000B0E004C0880F991FAA1FBB1F2A95D2F70F
:101310008095832380932F02EE0FFF1FEC5BFD4F20
:1013200011821082089580916F008D7F80936F00ED
:101330004798E1CFAF92BF92DF92EF92FF920F9367
:101340001F93CF93DF93E82EC82FD0E081E090E089
:10135000A0E0B0E00E2C04C0880F991FAA1FBB1F8D
:101360000A94D2F7D82EF82EF0948E01000F111F98
:101370000C5B1D4FD801ED91FC911197309709F44A
:101380006AC0CF01019611969C938E9324912039C7
:1013900081F53296ED93FC93FC01849187FF0FC099
:1013A00080912F028F2180932F0268EE73E08E2DA3
:1013B0000E94160998EEA92E93E0B92EDBCFE82FF4
:1013C000F0E0803378F4E259FC4FE491AE2EB12C7A
:1013D00080912F028D2980932F02B5018E2D0E94BE
:1013E0001609C8CFEE0FFF1FE259FD4FA590B4902C
:1013F000EFCF2038A9F227FD38C03296ED93FC9349
:10140000FC018491322F282FD5010E94C31B6C5000
:101410007E4F8F4F9F4F28EE33E040E050E00E9418
:10142000A11BCC0FDD1FCC0FDD1FC95DDD4F288355
:1014300039834A835B8388819981AA81BB81892B07
:101440008A2B8B2B41F481E090E0A0E0B0E0888310
:101450009983AA83BB83DF91CF911F910F91FF9056
:10146000EF90DF90BF90AF9008952F7E203E09F05F
:1014700081CF8E2DDF91CF911F910F91FF90EF9033
:10148000DF90BF90AF900C946E0983E08093B0051D
:1014900080E090E0A0E4B0E48093220290932302E5
:1014A000A0932402B093250280E090E0A0E0BFE387
:1014B00080931E0290931F02A0932002B0932102FA
:1014C00081E08093AD050895CF92DF92EF92FF9275
:1014D00081E08093E602C0904002D0904102E0900B
:1014E0004202F090430260913E0270913F0290E010
:1014F00080E00E94081DA70196010E94561C87FFEC
:1015000008C0C701B6010E94D91C70933F026093C6
:101510003E0210924002109241021092420210923A
:1015200043028091CD0287708093CD028091D102D9
:1015300087708093D1028091D50287708093D50205
:101540008091D90287708093D9021092260290E090
:1015500080E0FC0123E0EE0FFF1F2A95E1F7E05B3E
:10156000FD4F2081207C208301968031910589F7F1
:101570000E94450A8FEF8093E4028FEF9FEF9093D4
:10158000EC028093EB02FF90EF90DF90CF900895F4
:101590009091E5029095209101019223982381E09A
:1015A00009F480E008958091B0058093DD0283E026
:1015B0008093B00508958F929F92AF92BF92CF9281
:1015C000DF92EF92FF920F931F93CF93DF93C0911F
:1015D000B005C83008F05BC0480159016A017B01C1
:1015E000D82F20E030E040EC50ECCB01B6010E9457
:1015F000CC1E18160CF04BC020E030E040E053E465
:10160000C701B6010E94561C87FF41C020E030E0B0
:1016100040EC50ECC501B8010E94CC1E1816BCF578
:1016200020E030E040E852E4C501B8010E94561CB9
:1016300087FF2DC0EC2FCC0FFF0BEE54FB4F149106
:101640002D2F2152330BC90126E0289FE001299F4D
:10165000D00D1124C654DB4FC501B4010E94D21C29
:101660004B01C701B6010E94D21CCB01212FAE0154
:10167000B401DF91CF911F910F91FF90EF90DF9018
:10168000CF90BF90AF909F908F900C94A203DF916A
:10169000CF911F910F91FF90EF90DF90CF90BF906F
:1016A000AF909F908F9008958F929F92AF92BF922C
:1016B000EF92FF920F931F9349015A01A8019701DE
:1016C0000E94641D9B01AC01C501B4011F910F91E3
:1016D000FF90EF90BF90AF909F908F900C94451D1E
:1016E00020E1FC0111922A95E9F708953F924F926B
:1016F0005F926F927F928F929F92AF92BF92CF92A2
:10170000DF92EF92FF920F931F93CF93DF93CDB7AA
:10171000DEB764970FB6F894DEBF0FBECDBF5C0195
:101720004B0129013A016701CE0101960E94700B1D
:10173000C4010E94501B382E20E030E040E450E409
:10174000C301B2010E94D21B2B013C0120E030E01A
:1017500040E450E4C801B6010E94D21B698B7A8B29
:101760008B8B9C8BD12CC12CC31408F180E1FE0122
:101770003196D50101900D928A95E1F7C5016496E5
:101780000FB6F894DEBF0FBECDBFDF91CF911F9192
:101790000F91FF90EF90DF90CF90BF90AF909F9010
:1017A0008F907F906F905F904F903F900895F401DD
:1017B000EC0DFD1D84919FED980F9E3560F49E0108
:1017C0002F5F3F4F790109891A892B893C89B30121
:1017D000A2010E94DB0A20E030E040EC50E4C301AB
:1017E000B2010E94D31B2B013C013FEFC31AD30A65
:1017F000BBCF2F923F924F925F926F927F928F92C8
:101800009F92AF92BF92CF92DF92EF92FF920F938F
:101810001F93CF93DF93CDB7DEB766970FB6F894DB
:10182000DEBF0FBECDBF9A8B898B6B0129013A01B8
:10183000CE0101960E94700BF60101900020E9F79D
:1018400031972E2E2C1820E030E040E450E4C30104
:10185000B2010E94D21B2B013C0120E030E040E4A9
:1018600050E4C801B7010E94D21B6B8B7C8B8D8B1F
:101870009E8B3C2C4601882D8319821520F180E136
:10188000FE013196A989BA8901900D928A95E1F7F6
:1018900089899A8966960FB6F894DEBF0FBECDBFD0
:1018A000DF91CF911F910F91FF90EF90DF90CF903C
:1018B000BF90AF909F908F907F906F905F904F9070
:1018C0003F902F900895F40181914F019FED980F63
:1018D0009E3560F49E012F5F3F4F79010B891C8973
:1018E0002D893E89B301A2010E94DB0A20E030E08D
:1018F00040EC50E4C301B2010E94D31B2B013C0118
:10190000BACF8F929F92AF92BF92CF92DF92EF9217
:10191000FF92E0904401F0904501A9E0AE9DF001F6
:10192000AF9DF00D1124EA5BFE4F608371838283CB
:101930009383248335834683578321E02087F09364
:101940003501E0933401B7016F5F7F4F072E000C24
:10195000880B990B0E940A1D4B015C0120E030E0CE
:1019600040EC51E40E948E1D6B017C0120E030E0D0
:10197000A901C501B4010E94CC1E87FD1AC020E058
:1019800030E0A901C701B6010E94D31B6B017C01A5
:10199000C701B6010E94D21C7093450160934401B7
:1019A000FF90EF90DF90CF90BF90AF909F908F907F
:1019B000089520E030E040EC51E4C701B6010E94F8
:1019C000D31B20E030E0A9010E94D31B6B017C01F6
:1019D00020E030E040EC51E40E94CC1E87FDD8CFDF
:1019E00020E030E040EC51E4C701B6010E94D21B78
:1019F000CDCF2F923F924F925F926F927F928F92B4
:101A00009F92AF92BF92CF92DF92EF92FF920F938D
:101A10001F93CF93DF93CDB7DEB7E8970FB6F89457
:101A2000DEBF0FBECDBF8091EB029091EC02892BFF
:101A300009F045C0E6E4F1E08EE192E010863996C7
:101A40008E179F07D9F7109245011092440120E0AC
:101A500030E040E052E460E070E086EF92E40E9403
:101A6000810C80E090E0A0EAB0E480934001909384
:101A70004101A0934201B0934301109236011092AC
:101A80003701109238011092390180E090E0A0EE09
:101A9000B0E480933A0190933B01A0933C01B09352
:101AA0003D0186E491E090933F0180933E011092C6
:101AB0001E0210921F0210922002109221024090EA
:101AC000E7025090E8026090E9027090EA022AE092
:101AD00037ED43EA5CE3C301B2010E94D11E69AB5A
:101AE0007AAB8BAB9CAB20903E0130903F01D10193
:101AF000CD90DD90ED90FC9020E030E040ED51E4A1
:101B0000C701B6010E94CC1E1816D4F420E030E0C4
:101B100040ED51E4C701B6010E94D21B2DEC3CEC14
:101B20004CEC5DE30E94D11E9B01AC0169A97AA92E
:101B30008BA99CA90E94D31B69AB7AAB8BAB9CABE6
:101B40008CE00E94C80A882319F086E08093E402A2
:101B500080903A0190903B01A0903C01B0903D01F3
:101B6000809101018C7009F466C3A3019201C50143
:101B7000B4010E94D31B60933A0170933B018093A0
:101B80003C0190933D012DEC3CEC4CE45DE3C30142
:101B9000B2010E94D11E209136013091370140914F
:101BA0003801509139010E94D31B2B013C01409216
:101BB000360150923701609238017092390180915C
:101BC0003A0190913B01A0913C01B0913D0189A364
:101BD0009AA3ABA3BCA3D10114968D919D910D90B6
:101BE000BC91A02D8DA39EA3AFA3B8A7CE01019653
:101BF0000E94700BC301B2010E945B1C4B015C018F
:101C0000C301B2010E943E1F2B013C01A5019401BA
:101C100069A17AA18BA19CA10E94D11E69A77AA774
:101C20008BA79CA720E030E0A901C301B2010E946C
:101C3000D11E9B01AC0169A57AA58BA59CA50E942C
:101C4000D21B6DA77EA78FA798ABA301920169A1B4
:101C50007AA18BA19CA10E94D11E2B013C0120E006
:101C600030E0A901C501B4010E94D11E9B01AC0165
:101C7000C301B2010E94D31B1B012C0180901E02E4
:101C800090901F02A0902002B0902102AC019B0115
:101C9000C501B4010E94D11E9B01AC016DA17EA1C2
:101CA0008FA198A50E94D21B69A77AA78BA79CA792
:101CB0002DA53EA54FA558A9C501B4010E94D11E6E
:101CC0009B01AC01C701B6010E94D21B6DA37EA38C
:101CD0008FA398A7809153038093AC058DA49EA4F5
:101CE000AFA4B8A8E894B7F8D201C101BF778DAB13
:101CF0009EABAFABB8AF8091220290912302A0912E
:101D00002402B091250289A39AA3ABA3BCA320E02F
:101D100030E040EC5FE3BC01CD010E94D11EE12C1C
:101D2000F12C00E211E420E030E040E450E40E94B5
:101D3000540B6B017C012DA93EA94FA958ADC501DB
:101D4000B4010E94CC1EA701960118160CF084C2A3
:101D5000C501B4010E94601C0E943F1C0E94D91C56
:101D600070E090E080E00E94081DE12CF12C04E47A
:101D700012E420E030E040E450E40E94540B0E9462
:101D8000D91C662EA62FA150BB0BBD01072E000C3F
:101D9000880B990B0E940A1D6B017C01AC019B0111
:101DA0006DA57EA58FA598A90E94601C6DA77EA732
:101DB0008FA798ABA7019601C201B1010E94601CD8
:101DC0001B012C01712C67104CC28091AC058093D3
:101DD000530376E4272E71E0372E1AA219A2D101FF
:101DE00018968C911897882309F453C029A93AA909
:101DF0004BA95CA96D917D918D919C910E94D21B04
:101E00002B013C01F1014082518262827382848104
:101E10009581A681B7818DA39EA3AFA3B8A7CE015C
:101E200001960E94700B809153038093AC05FE01D4
:101E300031964F01A12CB12C60E4C62EDC2C86011A
:101E400075012DA13EA14FA158A5C301B2010E9469
:101E50006A048091AC0580935303898183FF09C094
:101E600080913E0190913F018215930511F03AA2B5
:101E700029A211E020E030E040E050ECD1016D916A
:101E80007D918D919C910E94CC1E87FD10E0F10107
:101E90001087F9E02F0E311C2EE132E022153305B8
:101EA00009F09DCF89A19AA1892B09F411C183E082
:101EB0008093E402A9A1BAA114968D919D910D90F1
:101EC000BC91A02D8DA39EA3AFA3B8A7E9A1FAA1B1
:101ED0004080518062807380E0903E01F0903F012D
:101EE000D7012D913D914D915C91C301B2010E94AA
:101EF000D21B4B015C01F70124813581468157815A
:101F00006DA17EA18FA198A50E94D21B6B017C01BF
:101F1000A5019401C501B4010E94D11E4B015C01D1
:101F2000A7019601C701B6010E94D11E9B01AC0119
:101F3000C501B4010E94D31B0E944C1F0E943F1C8C
:101F40004B015C01C0904002D0904102E0904202FF
:101F5000F090430220E030E0A9010E94561C87FF68
:101F6000AFC1A7019601C501B40190580E94CC1ED3
:101F700018160CF0A5C11092400210924102109266
:101F800042021092430220E030E44CE156E4C501E5
:101F9000B4010E94CC1E87FF89C020E030E44CE9E8
:101FA00055ECC501B4010E94561C87FD7FC03090DE
:101FB0002602C32CD12CE12CF12C0EEF12E420E0F0
:101FC00030E0A901C301B2010E94540BCC0CDD1C0E
:101FD000CC0CDD1C960126533D4F69010E94D91C93
:101FE000662E6294660C660C40EC6422D601119653
:101FF0007C9111977F73672A11966C921197669561
:1020000066956F7112967C90B72DB07E7B2E762AE6
:10201000F601728220E030E040EA51E46DA17EA139
:102020008FA198A50E94D21BE12CF12C0CE712E4A1
:1020300020E030E0A9010E94540B0E94D91C862F99
:102040008295880F807EF72DFF717F2E782AD6012A
:1020500012967C92129766956695669567701396B0
:102060001C911397187F162B13961C9320E030E4D5
:102070004CE955E4C501B4010E94D31B0E94D91C50
:10208000F60160837F73F62DF07C6F2E672AD601F0
:1020900011966C9211971770106F13961C9381E034
:1020A000830D843008F01BC180932602E9A1FAA1B8
:1020B000F0933F01E0933E0180E090E0A0EEB0E4B9
:1020C00080933A0190933B01A0933C01B0933D0172
:1020D00029A93AA94BA95CA96091400170914101DD
:1020E00080914201909143010E94D21B6093400174
:1020F000709341018093420190934301C09040014D
:10210000D0904101E0904201F090430120E030E0A6
:10211000A901C701B6010E94561C87FDE3C0E091EA
:102120003E01F0913F0120E030E040E050E460816A
:102130007181828193810E94561C87FF63C082E077
:102140008093E4028093E6020E94D30A1092B005C5
:10215000DD24D39493E0C92E8D2D6C2D0E94CE1FCB
:10216000192F682F880F770B880B990B0E940A1D77
:1021700020E030E040E052E40E94D31B20E030E059
:1021800040E85FE30E94D21B4B015C01612F110FFD
:10219000770B880B990B0E940A1D20E030E044E188
:1021A00052E40E94D31B20E030E040E85FE30E944D
:1021B000D21B9B01AC018501740164EC72E0CE017D
:1021C00041960E94760BD394D394F9E0DF12C4CFEA
:1021D000C092B005E12CF12C00E012E420E030E0E8
:1021E00044E152E464EC72E0CE0141960E94760B29
:1021F0008091DD028093B0058FEF9FEF9093EC020A
:102200008093EB02E8960FB6F894DEBF0FBECDBF09
:10221000DF91CF911F910F91FF90EF90DF90CF90C2
:10222000BF90AF909F908F907F906F905F904F90F6
:102230003F902F900895A501940160E070E080EE3A
:1022400090E40E94D21B2DEC3CEC4CEC5DE30E9430
:10225000D11EA50194018DCC6DA97EA98FA998AD41
:1022600079CDFE0131964F01A9A0BAA0CBA0DCA088
:102270008601750129A53AA54BA55CA56DA17EA196
:102280008FA198A50E946A042DA53EA54FA558A927
:102290006DA17EA18FA198A50E94D31B6DA37EA3E3
:1022A0008FA398A7A201910169A57AA58BA59CA5EA
:1022B0000E94D31B69A77AA78BA79CA7739483CD91
:1022C000A7019601C501B4010E94D31B609340028F
:1022D00070934102809342029093430254CE109235
:1022E0002602E4CE20E030E042E053E4C701B6012C
:1022F0000E94D31B4B015C010E94401B9F77BC01D5
:10230000990F880B990B0E940A1D20E03EEF4FEFBA
:1023100056E40E94601C20E030E040E452E40E9459
:10232000D11E20E030E040E051E40E94D31B69A3BD
:102330007AA38BA39CA3E0903401F0903501E114C3
:10234000F104B1F1D7012D913D914D915C91C50101
:10235000B4010E94D21B2B013C01F701248135817D
:102360004681578169A17AA18BA19CA10E94D21BB1
:102370006B017C01A3019201C301B2010E94D11E35
:102380002B013C01A7019601C701B6010E94D11E95
:102390009B01AC01C301B2010E94D31B0E944C1FE0
:1023A00020E030E040E651E40E94561C87FDA4CFB7
:1023B00029A13AA14BA15CA1C501B4010E94810CE5
:1023C0000E94401B9F77BC01990F880B990B0E94BC
:1023D0000A1D20E03EEF4FEF56E40E94601C20E013
:1023E00030E040E551E40E94D11E20E030E040ECB6
:1023F00050E40E94D31B9B01AC016091400170919D
:10240000410180914201909143010E94D31B6ECE05
:102410001F920F920FB60F9211248F939F9380916A
:10242000E1009091E100937F9093E10083FF0FC062
:102430001092E90091E09093EB001092EC0092E38F
:102440009093ED001092520398E09093F00082FF79
:1024500022C093E09093E9009091F200992319F043
:102460009AE39093E8009091F302992341F09091C0
:10247000F30291509093F302911101C05D9A9091F3
:102480005103992341F0909151039150909351033E
:10249000911101C0289A84FF18C08091E2008E7EBD
:1024A00081608093E2008091E1008F7E8093E10063
:1024B0008091F4028E7E80618093F4029F918F91CF
:1024C0000F900FBE0F901F90189580FFF7CF80914F
:1024D000E2008E7E80618093E2008091E1008E7E3A
:1024E0008093E1008091F4028E7E8160E5CF1F929F
:1024F0000F920FB60F921124CF92DF92EF92FF92BC
:102500000F931F932F933F934F935F936F937F93FB
:102510008F939F93AF93BF93EF93FF93CF93DF93EB
:10252000CDB7DEB76C97DEBFCDBF1092E9008091CA
:10253000E80083FF25C068E0CE0145960E94DB08D5
:1025400082EF8093E8008D8987FF39C09091E80081
:1025500090FFFCCF982F907609F034C19E894F8967
:10256000588D2F89F88C911131C0803861F5809198
:10257000F2028093F1001092F1008EEF8093E80058
:102580006C960FB6F894DEBF0FBECDBFDF91CF9132
:10259000FF91EF91BF91AF919F918F917F916F913B
:1025A0005F914F913F912F911F910F91FF90EF906D
:1025B000DF90CF900F900FBE0F901F9018959EEF59
:1025C0009093E800C7CF1092F100D5CF913059F425
:1025D0008111D3CF4130510581F68091F2028D7F78
:1025E0008093F202CACF933049F48111C6CF4130B3
:1025F000510519F68091F2028260F2CF953041F4D4
:102600008091E80080FFFCCF20682093E300B5CFE5
:10261000963009F0A9C00B8D1C8D22E01092E900C4
:102620001092F0021092EF02F2122EC01092EE02FF
:102630001092ED020E94AA081F8299E09983FA8203
:1026400091E09E8390EA98879AEF99872091EF0214
:102650003091F002275F3F4F3C832B838D83109294
:10266000E9001092F0021092EF021093EE02009334
:10267000ED0249E050E0BE016F5F7F4F80E00E94B5
:1026800084080E94AA0879CF1093EE020093ED020D
:102690000E940D07DC0112960D911C910115110588
:1026A00009F451C1D801ED91FC910480F581E02D30
:1026B000BE016B5E7F4FC8010995009709F03EC1CE
:1026C000F80100851185EACFF3E0FF120EC08F8973
:1026D000882309F440C0823061F440E867E08AEA68
:1026E00094E00E945108811148CF81E28093EB0071
:1026F00047CF813029F440E86BE08EE994E0F1CFD8
:10270000833099F70E940D07DC011296ED90FC9042
:102710008E010F5F1F4F6801E114F10479F0D701BA
:10272000ED91FC910680F781E02DB801C701099574
:10273000080F111DF701E084F184EECFD8011C923F
:10274000F60101900020E9F73197BF016C197D096E
:1027500040E0C601C6CF68E874E0FB01449150E058
:1027600080E80E94840809CF973009F4BECF9830E2
:1027700021F481E08093F10000CF993009F0FDCE83
:10278000837009F0B2CFE3E1F1E081E031E096E35C
:102790002191222371F08093E9003093EB00DF0157
:1027A00011972C912093EC009093ED008F5F873070
:1027B00079F78EE78093EA001092EA008F89809380
:1027C0005203DBCE8B8D9C8D1092E9001092F002AB
:1027D0001092EF029093EE028093ED02898D8111A9
:1027E00092C08E899D89913A49F4813209F07DCF5A
:1027F00047E050E066E071E080E0B3CF913209F04D
:1028000074CF833269F48F89988DB0E0A0E0809313
:10281000020190930301A0930401B0930501ADCE92
:10282000803269F48091E80082FFFCCF67E086E0A7
:1028300091E00E94DB088BEF8093E8009ECE82320D
:1028400009F09BCE8F8980930D01EEEFFFE7859114
:1028500094918B3F9C4D51F1E0E0F8E080910601AE
:1028600090910701A0910801B0910901803B94402B
:10287000A105B105F1F480910D0180FD1AC0EE3F74
:102880008AE0F80789F587E797E79183808380914D
:1028900060008093F10288E19BE00FB6F894A89560
:1028A000809360000FBE9093600067CEEEEFFAE079
:1028B000D5CF808191818737974709F05ECEA89563
:1028C000809160008861809360008091F102809324
:1028D0006000EE3F2AE0F20789F08091FE0A9091B5
:1028E000FF0A9183808349CE808191818737980741
:1028F00051F29093FF0A8093FE0AC5CF1092FF0A0F
:102900001092FE0A3ACE0E940D07DC0112960D913C
:102910001C910115110509F4E8CED801ED91FC9147
:102920000190F081E02DBE016B5E7F4FC8010995DB
:10293000811123CEF80100851185EBCF18161906F9
:102940000CF41BCED2CEF1E0FF12BECE6CE874E0E8
:1029500004CF0F920FB68F939F93EF93FF938091C5
:1029600031028D5F8D3708F08D5780933102E6E399
:10297000F2E080818E4F808391819F4F918382818D
:102980008F4F828383818F4F8383E2E3F2E08081E4
:102990008F5F808381818F4F818382818F4F82837C
:1029A00083818F4F83838FB18F6066991C9B8827AB
:1029B0008F3681F480913002981B963068F0E0E009
:1029C000F8E087E78083818388E180936000F0935B
:1029D0006000FFCF90933002FF91EF919F918F9114
:1029E0000FBE0F9018951F920F920FB60F921124E1
:1029F0002F933F934F935F936F937F938F939F9307
:102A0000AF93BF93EF93FF9380912F0281FF03C099
:102A100088B1805888B980912B0290912C02A091A6
:102A20002D02B0912E02892B8A2B8B2BD1F0809115
:102A30002B0290912C02A0912D02B0912E020197B1
:102A4000A109B10980932B0290932C02A0932D022F
:102A5000B0932E02892B8A2B8B2B19F481E00E94D4
:102A60009A09FF91EF91BF91AF919F918F917F91C3
:102A70006F915F914F913F912F910F900FBE0F90EB
:102A80001F9018951F920F920FB60F9211242F933B
:102A90003F934F935F936F937F938F939F93AF93E6
:102AA000BF93EF93FF9380912F0280FF04C088B102
:102AB00090E4892788B98091270290912802A091FB
:102AC0002902B0912A02892B8A2B8B2BD1F080917D
:102AD000270290912802A0912902B0912A02019721
:102AE000A109B1098093270290932802A09329029B
:102AF000B0932A02892B8A2B8B2B19F480E00E9439
:102B00009A09FF91EF91BF91AF919F918F917F9122
:102B10006F915F914F913F912F910F900FBE0F904A
:102B20001F901895E5EFF2E01382128288EE93E091
:102B3000A0E0B0E084839583A683B7838DE191E024
:102B4000918380838FEF9FEF958784870895CDB71A
:102B5000DEB7A597DEBFCDBF789483E084BD83E068
:102B600085BD81E080936E00E1E8F0E083E0808342
:102B7000E0E881E08083E1E983E08083E0E981E0CF
:102B80008083E1EC87E08083E3EC81E08083E0EC0C
:102B900082E08083E2EC81E08083EAE787E0808363
:102BA00080688083109252031092F2021092F40215
:102BB0008091D70081608093D70080EA8093D8000D
:102BC00089B5806189BD89B5826089BD09B400FE7F
:102BD000FDCF0E94A5068091D8008F7C80618093F4
:102BE000D8008091E000807F8093E0008091E10038
:102BF0008E7E8093E1008DE08093E200559A209ACA
:102C000082EC93E09093E3028093E20282EB93E004
:102C10009093E1028093E0021092AF051092AE050E
:102C20008EE993E0909349028093480289EF9CE0FB
:102C30009093DB028093DA0281EC80937C0085B173
:102C4000806F85B984B1877E84B984B1876E84B979
:102C50005E9A5F988AB1806D8AB9769A6E9881B3D0
:102C6000806F81BB899880B38D7080BB80E58CBDFF
:102C700081E08DBD85E090E00E94E8085F9A85E0E4
:102C800090E00E94E8085E985C98ECECF3E089ED37
:102C900093E024912EBD00000DB407FEFDCF3196C8
:102CA0008E179F07B1F75C9A81E88093640080914A
:102CB00065008160809365000E9488060E94030978
:102CC00087FF10C05C9885EA8EBD00000DB407FE3A
:102CD000FDCF5C9A2E982F982D9881E083BF889520
:102CE00013BEFCCF0E94030982FF46C02D980E94AC
:102CF000030984788438D9F42D9A88EC90E00E94F6
:102D0000E8082F9882E090E00E94591B8F3F29F03D
:102D10006FEF82E090E00E94611B84EF91E00E94DF
:102D2000E8082F9A0E94030984788438D9F30E9416
:102D3000030984718431D9F42D9A88EC90E00E94C3
:102D4000E8082E9882E090E00E94591B882329F021
:102D500060E082E090E00E94611B84EF91E00E94BD
:102D6000E8082E9A0E94030984718431D9F388EC13
:102D700090E00E94E808B6CF2D9A82E090E00E9491
:102D8000591B882309F48FC00E94100980E18093A9
:102D9000000180916500877F8093650080916400C9
:102DA000877F809364001092900089E08093910067
:102DB000109280008093810080E00E946E0981E083
:102DC0000E946E0910923F0210923E021092400241
:102DD00010924102109242021092430290E080E071
:102DE000FC01B3E0EE0FFF1FBA95E1F7E05BFD4F8A
:102DF0002081207C208301968031910589F7E09025
:102E0000E002F090E10200E010E0C7010E94501BD8
:102E1000882359F0282F863108F025E1121708F48D
:102E2000122F0F5F053009F041C00093DE02412FE1
:102E30004150550B9A014AEF4203C001439F900D48
:102E4000112480589F4F959587958093DF020E94AB
:102E5000450A1092E6020E94450A8FEF8093E40231
:102E60001092EC021092EB02CE0101961C01DE01E1
:102E70001496BB8FAA8F8FB7F89440913602509169
:102E8000370260913802709139028FBF80913C0205
:102E9000882389F010923C0280E090E0892B59F35E
:102EA0000E940000E8CF0E940B0970CF992701967D
:102EB000E80EF91EAACF80913D02B42FB81B8B2FCC
:102EC00090910001B91740F48F5F891728F781E0CE
:102ED00083BF889513BEE0CF81E080933C0240938E
:102EE0003D0280913A0290913B02019690933B0201
:102EF00080933A02109253030091EB021091EC027E
:102F0000B80190E080E00E94081D20E030E040E73A
:102F100052E40E94601C20E030E040E752E40E944E
:102F2000601C20E030E040E85FE30E94D31B609328
:102F3000E7027093E8028093E9029093EA0280919D
:102F400001018093E5020E94030980930101D09062
:102F5000E602D1105EC18CE00E94C80AF090DC024B
:102F60008823C1F082E090E00E94591BF81629F0F6
:102F70006F2D82E090E00E94611B0E94401B209117
:102F8000EB023091EC02822793270E94451B0E949E
:102F9000640A51C080E10E94C80A882359F0F110E8
:102FA000FBC00E9410098091DC02882319F088E0A0
:102FB0008093E4020E94D30A0115110509F0EFC0C5
:102FC0000E949806C090E202D090E302C6010E94DF
:102FD000501B2AEFAC012403B001259F700D112472
:102FE0006A577F4F7695679590E080E00E94081DB4
:102FF0009B01AC01E12CF12C00E811E4B601CE01FB
:103000000A960E94760B8091DC02E3E0811101C0F8
:10301000E0E00E2E000CFF0BEE54FB4F249140E439
:1030200054E06AE370E090E080E00E94A2038091A7
:10303000DD028093B0050091EB021091EC02C80113
:103040008F709927892B11F58091E4028930D8F48B
:10305000E0914802F09149027EE2E72E74E0F72EFB
:10306000309739F090E0880F991FE80FF91FE5902D
:10307000F49080E00E946E09F0924502E0924402D2
:1030800080E00E949A098FEF8093E40201111AC038
:103090008091E602813009F0A3C2E0914802F091EC
:1030A000490209ED13E0309719F0729605911491D9
:1030B00081E00E946E09109347020093460281E06E
:1030C0000E949A090E94D30A83E08093B005609120
:1030D00040027091410280914202909143020E940D
:1030E000D91C7F936F93ABE2B1E0BF93AF933F9254
:1030F0002F920E94EE1FE12CF12C00E410E4A801B5
:103100009701B101CE010A960E94F90B88E48983E8
:1031100089E48A8380E28B8380913F028F93809140
:103120003E028F939BE2C92E91E0D92EDF92CF927F
:10313000FB8CFF922A8D2F930E94EE1F63E0680F95
:103140003AEF3603B00111246E577F4F072E000C63
:10315000880B990B0E940A1D9B01AC01E12CF12CFC
:1031600000E410E4B101CE010A960E94F90B8091AF
:10317000DD028093B0058091EB029091EC02019604
:103180009093EC028093EB020E9488060FB6F894AD
:10319000DEBF0FBECDBF80CE0E940B0904CFA09032
:1031A000E002B090E10256E0C52E0E31110509F0A3
:1031B0002ACF8091DE02D81608F025CFDC9CB00122
:1031C0001124072E000C880B990B0E940A1D2DEC70
:1031D0003CEC4CE052E40E94D31B2B013C0160917B
:1031E000DF02062E000C770B880B990B0E940A1D3C
:1031F0009B01AC0183017201B501CE010A960E94C8
:10320000760BC5010E94501B0196A80EB91ED394DF
:10321000D0CF51E0D512C9C10E949806E091DA02E0
:10322000F091DB0209958AE492E09D8F8C8F10E08B
:1032300000E0680143E0CC0CDD1C4A95E1F7D9A21F
:10324000C8A29601265B3D4F3F8F2E8FD90116965F
:103250008C918F7309F0B4C00F5F1F4FEC8DFD8D03
:103260003896FD8FEC8F0031110519F70E94D30AB3
:10327000912C812C8BE2C82E5401AA0CBB1CAA0CE9
:10328000BB1CF501E653FD4F8381887F09F48FC095
:1032900080812181922F9F737C0128E8E21A23E12B
:1032A000F20AFF92EF924BE251E05F934F938F2D22
:1032B0008095D10187FD1196CD019F93AF930E9418
:1032C000EE1F182F0F900F900F900F900F900F90F0
:1032D000F7FC02C0C9821F5FF501E353FD4FD080A8
:1032E000D694D694D694DD9CB0011124072E000C00
:1032F000880B990B0E940A1D20E030E044E352E461
:103300000E94601C2B013C01F501E453FD4F6081DC
:10331000862F82958695877061816770660F660F2C
:10332000660F682B70E090E080E00E940A1D9B0110
:10333000AC01C301B2010E94D31B2B013C01E12F60
:10334000E150FF0BCF01880F991F880F991F7F0154
:10335000E81AF90AF501E553FD4F6081262F229501
:1033600026952695237061816F71660F660F622B1B
:103370006E0D7F2D711D072E000C880B990B0E947E
:103380000A1D9B01AC0183017201B101CE010A96B5
:103390000E94F90BF501E653FD4F1FE1F12EDF0C02
:1033A000DD0CDD0CDD0C83818770D82AD3822FEFF2
:1033B000821A920A34E08316910409F05DCF37CE69
:1033C00028A139A1205B3D4F6901D9018C91B82F0B
:1033D000BF73FB2E8295869586958370F901618176
:1033E0006370660F660F682B70E090E080E00E94CB
:1033F0000A1D20E030E040E851E40E94D11E4B015C
:103400005C016F2D70E090E080E00E940A1D9B013E
:10341000AC01C501B4010E94D31B9B01AC010E9409
:10342000D11E20E030E040E05AE30E94D11EAC8D76
:10343000BD8D12962D913D914D915C9115970E94F5
:10344000D31B6AA37BA38CA39DA3EC8DFD8D62830C
:103450007383848395838FE38F0D8F73D6019C9143
:10346000907C892B8C93E8A1F9A1EF5AFD4F6081E4
:103470006695669570E090E080E00E940A1D2BED55
:103480003FE049E450E40E94D11E20E030E040E0FB
:103490005DE30E94D11E6B017C010E945B1C2B012D
:1034A0003C01EC8DFD8D608170E090E080E00E9439
:1034B000081D4B015C01A30192016AA17BA18CA1B3
:1034C0009DA10E94D11E9B01AC01C501B4010E94C7
:1034D000D31B4B015C01C701B6010E943E1F2B01AB
:1034E0003C01AE8DBF8D11968C9187FF56C0B6E022
:1034F000BE8FC501B4010E94D21C6B0160387105FA
:1035000008F0AACEE8A1F9A1E55BFD4F60816F77D5
:1035100070E090E080E00E94081D4B015C01A30177
:1035200092016AA17BA18CA19DA10E94D11E9B0149
:10353000AC01C501B4010E94D31B0E94D21C6034AF
:10354000710508F089CEDB0193E0B595A7959A95B2
:10355000E1F7B695BA2FAA27B795A795AC0DBD1D73
:10356000AF54BA4F67707727C12CD12C7601C39422
:1035700004C0CC0CDD1CEE1CFF1C6A95D2F7A60122
:10358000DE8CED2DDD0CFF0BEE54FB4FE491E230B1
:1035900031F48C9148274C935FCE1E8EAACF8C912C
:1035A000842B8C93E130A9F757CE42E0D41243CD5F
:1035B0000C33110508F43FCD8CE00E94C80A81113C
:1035C000E6CC0C32114008F436CD1092E6028FEFB3
:1035D0009FEF9093EC028093EB020E94450A2BCD63
:1035E00081E00E946E096ECD8F929F92AF92BF9242
:1035F000CF92DF92EF92FF92CF93DF93EC0168813D
:1036000079818A819B81611571058105910521F47C
:1036100064E279ED8BE597E02DE133EF41E050E096
:103620000E946F1B49015A019B01AC01A7EAB1E45A
:103630000E948E1B6B017C01ACEEB4EFA5019401DE
:103640000E949C1BDC01CB018C0D9D1DAE1DBF1D7E
:10365000B7FF03C00197A109B04888839983AA8363
:10366000BB839F77DF91CF91FF90EF90DF90CF905A
:10367000BF90AF909F908F9008950E94F41A089584
:103680008EE091E00E94F41A0895B0E0A0E08093EB
:103690000E0190930F01A0931001B09311010895B2
:1036A000FC0105900020E9F7809590958E0F9F1FF3
:1036B0000895F999FECF92BD81BDF89A992780B5FA
:1036C0000895262FF999FECF1FBA92BD81BD20BD66
:1036D0000FB6F894FA9AF99A0FBE01960895052E3E
:1036E00097FB1EF400940E94861B57FD07D00E9492
:1036F000A11B07FC03D04EF40C94861B50954095FB
:10370000309521953F4F4F4F5F4F0895909580958D
:10371000709561957F4F8F4F9F4F08950E94C31BF7
:10372000A59F900DB49F900DA49F800D911D112415
:103730000895B7FF0C948E1B0E948E1B821B930B67
:103740000895A1E21A2EAA1BBB1BFD010DC0AA1FE2
:10375000BB1FEE1FFF1FA217B307E407F50720F0FA
:10376000A21BB30BE40BF50B661F771F881F991F75
:103770001A9469F760957095809590959B01AC01BE
:10378000BD01CF010895A29FB001B39FC001A39FC7
:10379000700D811D1124911DB29F700D811D11248A
:1037A000911D08955058BB27AA270E94EA1B0C942C
:1037B000661E0E942D1E38F00E94341E20F039F43F
:1037C0009F3F19F426F40C942A1E0EF4E095E7FBB3
:1037D0000C94FB1DE92F0E948B1E58F3BA17620749
:1037E00073078407950720F079F4A6F50C94C51E9D
:1037F0000EF4E0950B2EBA2FA02D0B01B90190010C
:103800000C01CA01A0011124FF27591B99F0593F4F
:1038100050F4503E68F11A16F040A22F232F342F97
:103820004427585FF3CF469537952795A795F040E5
:103830005395C9F77EF41F16BA0B620B730B840BFA
:10384000BAF09150A1F0FF0FBB1F661F771F881FB2
:10385000C2F70EC0BA0F621F731F841F48F487950A
:1038600077956795B795F7959E3F08F0B0CF9395FC
:10387000880F08F09927EE0F9795879508950E9475
:10388000AD1E90F09F3748F4911116F40C94C61EAB
:1038900060E070E080E89FE3089526F01B16611D4C
:1038A000711D811D0C94011E0C941C1E0E94D71DBD
:1038B00008F481E008950E943D1EE3950C94771E64
:1038C0000E94741C0C94661E0E94341E58F00E94C4
:1038D0002D1E40F029F45F3F29F00C94FB1D51117F
:1038E0000C94C61E0C942A1E0E948B1E68F399230A
:1038F000B1F3552391F3951B550BBB27AA276217EC
:103900007307840738F09F5F5F4F220F331F441FF8
:10391000AA1FA9F335D00E2E3AF0E0E832D091502C
:103920005040E695001CCAF72BD0FE2F29D0660F19
:10393000771F881FBB1F261737074807AB07B0E85C
:1039400009F0BB0B802DBF01FF2793585F4F3AF062
:103950009E3F510578F00C94FB1D0C94C61E5F3FF2
:10396000E4F3983ED4F3869577956795B795F795E8
:103970009F5FC9F7880F911D9695879597F90895D0
:10398000E1E0660F771F881FBB1F6217730784076C
:10399000BA0720F0621B730B840BBA0BEE1F88F77B
:1039A000E09508950E94D91C6894B1110C94C61E2C
:1039B00008950E94931E88F09F5798F0B92F992779
:1039C000B751B0F0E1F0660F771F881F991F1AF00A
:1039D000BA95C9F714C0B13091F00E94C51EB1E08C
:1039E00008950C94C51E672F782F8827B85F39F08B
:1039F000B93FCCF3869577956795B395D9F73EF4A3
:103A000090958095709561957F4F8F4F9F4F08954A
:103A1000E89409C097FB3EF4909580957095619568
:103A20007F4F8F4F9F4F9923A9F0F92F96E9BB271E
:103A30009395F695879577956795B795F111F8CF9A
:103A4000FAF4BB0F11F460FF1BC06F5F7F4F8F4F05
:103A50009F4F16C0882311F096E911C0772321F0FB
:103A60009EE8872F762F05C0662371F096E8862F93
:103A700070E060E02AF09A95660F771F881FDAF7EA
:103A8000880F9695879597F90895990FBB0B550F59
:103A9000AA0BE0E8FEEF16161706E807F90770F024
:103AA00012161306E407F50760F0BA173CF049F464
:103AB0006217730784079507A7951BF4B901CA011C
:103AC000BA2FB69597950895990FBB0B550FAA0B72
:103AD000E0E8FEEF16161706E807F90770F0121671
:103AE0001306E407F50760F0BA1754F031F426170F
:103AF000370748075907A7951BF4B901CA01BA2F20
:103B0000B695979508950E942D1E20F019F00E94F9
:103B1000341E50F40C942A1E0C94C61EE92F0E94E9
:103B20008B1E88F35523B1F3E7FB621773078407F5
:103B30009507A8F189F3E92FFF2788232AF0319709
:103B4000660F771F881FDAF7952F5527442332F029
:103B500091505040220F331F441FD2F7BB27E91B5F
:103B6000F50B621B730B840BB109B1F222F4620FE7
:103B7000731F841FB11D31972AF0660F771F881FAE
:103B8000BB1FEFCF9150504062F041F0882332F0DC
:103B9000660F771F881F91505040C1F793950C9482
:103BA0001C1E8695779567959F5FD9F7F7CF990F7C
:103BB0000008550FAA0BE0E8FEEF16161706E807F7
:103BC000F907C0F012161306E407F50798F0621B18
:103BD000730B840B950B39F40A2661F0232B242BED
:103BE000252B21F408950A2609F4A140A6958FEF0C
:103BF000811D811D089597F99F6780E870E060E05E
:103C00000895882371F4772321F09850872B762F1D
:103C100007C0662311F499270DC09051862B70E0E0
:103C200060E02AF09A95660F771F881FDAF7880FF1
:103C30009695879597F908959F3F31F0915020F41C
:103C4000879577956795B795880F911D9695879578
:103C500097F908959FEF80EC089500240A941616B2
:103C6000170618060906089500240A94121613066A
:103C70001406050608950C942A1E0E94931ED8F37C
:103C8000E894E0E0BB279F57F0F02AED3FE049ECD5
:103C900006C0EE0FBB0F661F771F881F28F0B23AD1
:103CA00062077307840728F0B25A620B730B840B08
:103CB000E3959A9572F7803830F49A95BB0F661F9A
:103CC000771F881FD2F790480C941E1E092E03946C
:103CD000000C11F4882352F0BB0F40F4BF2B11F4F9
:103CE00060FF04C06F5F7F4F8F4F9F4F0895EF932A
:103CF000E0FF07C0A2EA2AED3FE049EC5FEB0E943B
:103D0000EA1B0E94661E0F90039401FC9058ECEA97
:103D1000F0E00C94931F57FD9058440F551F59F035
:103D20005F3F71F04795880F97FB991F61F09F3FA8
:103D300079F087950895121613061406551FF2CFD1
:103D40004695F1DF08C0161617061806991FF1CF21
:103D5000869571056105089408950E94931EA0F050
:103D6000BEE7B91788F4BB279F3860F41616B11D5B
:103D7000672F782F8827985FF7CF86957795679577
:103D8000B11D93959639C8F30895E894BB2766272B
:103D90007727CB0197F908950E94D71D08F48FEF7C
:103DA00008950E94E41E0C94661E0E942D1E38F099
:103DB0000E94341E20F0952311F00C94FB1D0C94EE
:103DC0002A1E11240C94C61E0E948B1E70F3959F10
:103DD000C1F3950F50E0551F629FF001729FBB2702
:103DE000F00DB11D639FAA27F00DB11DAA1F649F9E
:103DF0006627B00DA11D661F829F2227B00DA11D51
:103E0000621F739FB00DA11D621F839FA00D611DD6
:103E1000221F749F3327A00D611D231F849F600DF7
:103E2000211D822F762F6A2F11249F5750409AF020
:103E3000F1F088234AF0EE0FFF1FBB1F661F771FAC
:103E4000881F91505040A9F79E3F510580F00C9477
:103E5000FB1D0C94C61E5F3FE4F3983ED4F3869599
:103E600077956795B795F795E7959F5FC1F7FE2B17
:103E7000880F911D9695879597F908959F930E94B5
:103E80003D1E0F9007FCEE5F0C94771E19F416F49C
:103E90000C942A1E0C941C1E0E94931EB8F39923A6
:103EA000C9F3B6F39F57550B87FF0E948C1F002460
:103EB000A0E640EA900180585695979528F4805CDA
:103EC000660F771F881F20F026173707480730F442
:103ED000621B730B840B202931294A2BA69517945A
:103EE0000794202531254A2758F7660F771F881F2A
:103EF00020F026173707480730F4620B730B840B4A
:103F0000200D311D411DA09581F7B901842F9158D5
:103F1000880F96958795089591505040660F771FAA
:103F2000881FD2F708959F938F937F936F93FF938A
:103F3000EF939B01AC010E94D11EEF91FF910E9473
:103F4000A71F2F913F914F915F910C94D11EDF934A
:103F5000CF931F930F93FF92EF92DF927B018C011F
:103F6000689406C0DA2EEF010E94E41EFE01E89478
:103F7000A5912591359145915591A6F3EF010E94A8
:103F8000EA1BFE019701A801DA9469F7DF90EF9030
:103F9000FF900F911F91CF91DF91089587FB082E1D
:103FA000062687FD819567FD61950E94DC1F0EF452
:103FB000919507FC81950895991B79E004C0991F9C
:103FC000961708F0961B881F7A95C9F78095089573
:103FD000EE0FFF1F0590F491E02D0994AEE0B0E0E4
:103FE000E4EFFFE10C949D220D891E8986E08C830D
:103FF0001A8309838FEF9FE79E838D83AE01475E0F
:104000005F4F6F89788DCE0101960E9411202F811C
:104010003885020F131FF80110822E96E4E00C94ED
:10402000B922ABE0B0E0E7E1F0E20C948F227C0132
:104030003B018A01FC0117821682838181FFC8C17E
:10404000CE0101965C01F7019381F30193FD859107
:1040500093FF81913F01882309F453C1853239F4DC
:1040600093FD859193FF81913F01853229F4B7013A
:1040700090E00E940122E7CF912C212C312CFFE10E
:10408000F31538F08B3211F190F4803209F183325C
:1040900029F137FC3CC020ED280F2A3050F536FEC0
:1040A00020C08AE0989E200D1124922E06C08D32E9
:1040B00091F0803371F7689430F8F30193FD8591A6
:1040C00093FF81913F018111DACF21C0689431F8CB
:1040D000689432F8F2CF689433F8EFCF689434F8EC
:1040E000ECCFEAE02E9E200D1124222E689435F8A4
:1040F000E4CF8E3229F436FC04C1689436F8DDCF63
:104100008C3619F4689437F8D8CF8836B1F2982FE6
:104110009F7D95549330E0F08336A1F18337C1F150
:10412000833509F063C02801F2E04F0E511CF801FD
:10413000C080D180692D70E036FC02C06FEF7FEF48
:10414000C6010E94EB214C01689437F882010AC035
:104150000C5F1F4FFFE3F98388248394912C650142
:10416000E89437F833FE2DC0522C8114910471F578
:10417000552009F468CFB70180E290E00E94012247
:104180005A94F6CFF801808189830E5F1F4FE4CFE8
:104190002801F2E04F0E511CF801C080D180692D3A
:1041A00070E036FC02C06FEF7FEFC6010E94F6217F
:1041B0004C018201D5CFB70180E290E00E9401223C
:1041C0002A942814190409F0B0F7CECFF60137FC71
:1041D000859137FE81916F01B70190E00E94012225
:1041E00051105A94F1E08F1A9108BFCF843619F01C
:1041F000893609F077C0F80137FE6BC060817181A4
:10420000828193810C5F1F4FF32DFF763F2E97FF26
:1042100009C090958095709561957F4F8F4F9F4F06
:10422000689437F82AE030E0A5010E943122C82EB8
:10423000CA188C2C432C36FE0CC0E89440F8C914E4
:1042400040F434FE05C032FC03C0F32DFE7E4F2E39
:10425000892C44FE95C0FE01EC0DF11D8081803358
:1042600009F087C0242D297E422E842D8870582E77
:1042700043FC95C040FE8FC09C2C821418F42C0C7B
:10428000922C981844FE91C0B70180E390E00E9400
:10429000012242FE09C088E790E041FE02C088E5A5
:1042A00090E0B7010E940122C91408F48AC0CA94A0
:1042B000D12C9FEFC91AD90ACA0CDB1CF6018291D6
:1042C0006F01B70190E00E940122AC14BD04B1F768
:1042D0004FCF60817181072E000C880B990B0E5F08
:1042E0001F4F92CFD32CE894D4F82AE030E08537E2
:1042F00039F1232D297FD22E8F3601F148F48835EC
:10430000A9F0F701868197812B96E2E10C94AB220C
:10431000803749F08837A9F7D4FE02C06894D2F8F4
:1043200020E130E00DC06894D4F8F6CF34FE03C02D
:10433000822F8660D82E20E132E002C028E030E0F3
:10434000F801D7FE0FC060817181828193810C5F7B
:104350001F4FA5010E943122C82ECA183D2CE89497
:1043600037F867CF6081718190E080E00E5F1F4F6A
:10437000F0CF42FC02C0839478CF8394839475CFAE
:10438000842D867809F471CFF6CFB70180E290E0F2
:104390000E94012283948214C0F3512C73CF522CBB
:1043A0005818821408F46ECFF8CF842D867809F45B
:1043B0007BCF8BE241FE80E247FC8DE2B70190E0CB
:1043C00071CFB70180E390E00E9401229A946CCFF4
:1043D0008FEF9FEF99CFFC01059061507040011065
:1043E000D8F7809590958E0F9F1F0895FC0161501E
:1043F000704001900110D8F7809590958E0F9F1F07
:1044000008950F931F93CF93DF93182F092FEB017C
:104410008B8181FD09C01FEF0FEF812F902FDF915E
:10442000CF911F910F91089582FF14C02E813F817B
:104430008C819D81281739073CF4E881F981CF01EF
:1044400001969983888310838E819F8101969F8333
:104450008E83E3CFE885F985812F0995892BA1F318
:10446000DACFFA01AA27283051F1203181F1E894FE
:104470006F936E7F6E5F7F4F8F4F9F4FAF4FB1E057
:104480003ED0B4E03CD0670F781F891F9A1FA11D52
:10449000680F791F8A1F911DA11D6A0F711D811D53
:1044A000911DA11D20D009F468943F912AE0269F18
:1044B00011243019305D3193DEF6CF010895462F77
:1044C0004770405D4193B3E00FD0C9F7F6CF462F58
:1044D0004F70405D4A3318F0495D31FD40524193C1
:1044E00002D0A9F7EACFB4E0A6959795879577957E
:1044F0006795BA95C9F700976105710508959B0105
:10450000AC010A2E06945795479537952795BA958D
:10451000C9F7620F731F841F951FA01D08952F9266
:104520003F924F925F926F927F928F929F92AF9243
:10453000BF92CF92DF92EF92FF920F931F93CF9390
:10454000DF93CDB7DEB7CA1BDB0B0FB6F894DEBF27
:104550000FBECDBF09942A88398848885F846E844D
:104560007D848C849B84AA84B984C884DF80EE8097
:10457000FD800C811B81AA81B981CE0FD11D0FB6A0
:10458000F894DEBF0FBECDBFED010895F894FFCFC4
:1045900010FFFFFFFFFF00E100000000000001002E
:1045A000000000C1808100000000000000A207217F
:0E45B00007C307B8070908C707E50725640019
:00000001FF
