:100000000C946B030C9493030C9493030C94930340
:100010000C9493030C9493030C9493030C94930308
:100020000C9493030C9493030C94401A0C94AF1A01
:100030000C9493030C9493030C9493030C949303E8
:100040000C9493030C942B1D0C9493030C94930326
:100050000C9493030C9493030C9493030C94E11C61
:100060000C9493030C9493030C9493030C949303B8
:100070000C9493030C9493030C9493030C949303A8
:100080000C947A1D0C9493030C9493030C94930397
:100090000C9493030C9493030C9493030C94930388
:1000A0000C9493030C9493030C94930305A84CCDE8
:1000B000B2D44EB93836A9020C50B9918688083CA2
:1000C000A6AAAA2ABE000000803F903900858000C1
:1000D00085903D00868003A5903D008580029B9021
:1000E000390085800086903D00858003A5903E0004
:1000F0008680E0904A00218000219054001180F019
:1001000090380010903D0011904F0011904D00105C
:10011000905A0011906500119050001090520011FB
:10012000904A001190510010904600119045001126
:10013000904D001090440011903F001180F09044C9
:1001400000219044004380F0904E0042903D001109
:10015000903F001190410010904300119045001114
:100160009047001090490011904B0011904D0010E5
:10017000904F0011905100119053001090550011B4
:100180009057001190590010905B0011905E001183
:1001900080F0904B0010904A001190490011904956
:1001A00000109043001180F090530010904E001109
:1001B00090490011904A0010904E00119052001189
:1001C00090560010905A0011905E0011905A001045
:1001D00090530011904C0011904B0010904E001164
:1001E0009052001190560010905A0011905E00112C
:1001F0009061001080F090580010904B00119047D3
:10020000001190520010903C0011904B0011902C66
:100210000010904C0011902B001190450010904858
:100220000011903700119038001090400011902E6E
:100230000011902F001090270011902C0011903980
:100240000010902900119026001180F090540010A9
:1002500090590011905300119052001090500011CD
:1002600090480011904D00109047001190420011ED
:1002700090430010903F0011903F0011903B001000
:10028000903900119036001180F09048005390563C
:10029000009680F047414D45204F564552000000E2
:1002A000002E000000000600060000143E143E145C
:1002B00000042A3E2A1000261008043200142A2CBA
:1002C000102800000006000000001C2200000000B2
:1002D000221C00000014083E08140008083E08080C
:1002E0000000201000000008080808080000002096
:1002F0000000002010080402001C322A261C0024E2
:10030000223E20200024322A2A240014222A2A14E1
:10031000001814123E10002E2A2A2A12001C2A2A23
:100320002A10000622120A0600142A2A2A1400049F
:100330002A2A2A1C000000140000000020140000DB
:10034000000814142222001414141414002222147D
:1003500014080004022A0A04001C222A2A0C003C69
:100360000A0A0A3C003E2A2A2A14001C22222214CD
:10037000003E2222221C003E2A2A2A22003E0A0A8D
:100380000A02001C22222A18003E0808083E002209
:10039000223E2222001020221E02003E08081422C3
:1003A000003E20202020003E0408043E003E0408B9
:1003B000103E001C2222221C003E0A0A0A04001CD5
:1003C0002222323C003E0A0A0A3400242A2A2A1237
:1003D0000002023E0202001E2020201E000E1020FD
:1003E000100E001E201C201E0022140814220002E1
:1003F000043804020022322A26220000003E220095
:10040000000204081020000000223E000000040248
:100410000400002020202020000000040800001814
:1004200024243C00003E2828100000182424240026
:10043000001028283E000018342C08000000083C5A
:100440000A0000042A2A1C0000003E0830000000B8
:10045000003400000000201A000000003E102800B8
:100460000000223E2000003C041C0438003C040430
:100470003800001824241800003C14140800000858
:1004800014143C00003C0804040000282C34140020
:100490000000081C2800001C20203C00000C30300C
:1004A0000C00001C2018201C002418182400002414
:1004B000180804000024342C240000000836220010
:1004C0000000003E0000000022360800000804087A
:1004D000100806011501260137014A015D0172016C
:1004E00088019F01B801D201EE010B022A024B02E2
:1004F0006E029302BA02E40210033F037003A403E6
:10050000DC03170455049704DD0427057505C805A9
:1005100020067D06E0064907B8072D08A9082D0921
:10052000B9094D0AEA0A900B400CFA0CC00D910E65
:100530006F0F5A1053115B1272139A14D4152017AF
:100540008018F519801B231DDE1EB420A622B524B9
:10055000E4263429A72B402E0031EA330037453AF0
:10056000BC3D68414C456B49C84D68524F57805C53
:10057000006210111213151617181A1C1D1F2123C3
:100580002527292C2E3134373A3E4145494E5257C2
:100590005C62686E757B838B939CA5AFB9C4D0DC1D
:1005A000E9F78A024C02F601A801920148013E01D6
:1005B0000001F300CA000F3F090F191F00661F1F3B
:1005C000090F390F00663C3F243C273C00665B4224
:1005D0007574746F6E5D204A756D700000535552CE
:1005E0005649564F5200D5F08D14A1C881CFD9F18C
:1005F000AF2000903C0085800085903E0086800002
:100600008590400085800190904100868000859013
:10061000400085800085903E0086800190903900E2
:1006200085800085903B0086800085903C00858019
:100630000190903E0086800085903C00858000857A
:10064000903B0086800190E090480010904B001194
:10065000904E00119051001080F000000001010147
:100660000202353509320438080B0002020200008C
:100670000904000001020200000524001001052405
:100680000101010424020605240600010705810377
:1006900010004009040100020A00000007050202E0
:1006A0004000000705830240000004030904120112
:1006B0000002EF02014041233680000101020301E4
:1006C00041726475696E6F204C4C430041726475D1
:1006D000626F7900CA1D11241FBECFEFDAE0DEBFC2
:1006E000CDBF11E0A0E0B1E0ECEAF5E502C0059075
:1006F0000D92AE32B107D9F729E0AEE2B1E001C008
:100700001D92AD3BB207E1F713E0CBE6D3E004C0A6
:100710002197FE010E94F627CA36D107C9F70E9429
:10072000DF1D0C94D42A0C940000AF92BF92CF929C
:10073000DF92EF92FF920F931F93CF93DF936C01A1
:10074000FC013596E538F10508F041C0FB0135960E
:10075000E534F105E0F5DB0177FF04C0AA27BB27EC
:10076000A61BB70BA770BB27EB0177FD2796E3E02D
:10077000D595C795EA95E1F777FF07C0219768E01F
:1007800070E0FB01EA1BFB0BDF01BE017695762FC3
:100790006627779567955B01A80EB91E60587F4F55
:1007A000860F971F70E060E0E8E0F0E07F01EA1A52
:1007B000FB0AF0E8CF16D10451F0D7FE13C06F5FEB
:1007C0007F4F3FEFC31AD30A6630710591F7DF916F
:1007D000CF911F910F91FF90EF90DF90CF90BF903E
:1007E000AF900895CF3FDC07D1F4109709F036C0E1
:1007F000E6CFE491F0E00E2C02C0F595E7950A945F
:10080000E2F7E095F0953E2341C0E491F0E00E2C34
:1008100002C0F595E7950A94E2F73E2B37C08501B3
:10082000060F171F03541A4FF8013081FA01E60F23
:10083000F71F213009F439C0222359F1E4910A2E1F
:1008400001C0EE0F0A94EAF73E27F80130831097B3
:1008500009F4B5CFC730D10509F4B1CF8B01080F2A
:10086000191F03541A4FF8013081FA01E60FF71FE0
:10087000213059F2222309F4BCCFE491F0E00E2C90
:1008800002C0F595E7950A94E2F73E27F801308318
:1008900096CFE491F0E00A2E02C0EE0FFF1F0A94FB
:1008A000E2F7E095F0953E23D0CFE4910A2E01C007
:1008B000EE0F0A94EAF73E2BC8CFEDEBF5E080E0AF
:1008C000A0E0B8E000800EBC8111012C1197A0FDC2
:1008D000FDCF0192B9F70DB4089580E0EDEBF5E09E
:1008E00081118FEF002481938193819381930394ED
:1008F000D1F70895E1E0F0E00E948F04319728F0ED
:1009000068517C4F8F4F9F4FF9CFAB01FC010E9484
:100910008F04641775078E079F07C8F30895A8E929
:10092000B4E02FB7F8947D918D919C9166B52FBF5F
:10093000A89B05C06F3F18F47F5F8F4F9F4F22E049
:10094000660F771F881F991F2A95D1F70895FC011C
:100950008091BC05882311F13FB7F89482E0809321
:10096000E9002091F200822F90E01816190614F485
:1009700081E090E0882339F0289844E64093BB0555
:100980004091F1004083222339F02091F20021119F
:1009900003C02BE62093E8003FBF08958FEF9FEF41
:1009A00008952FB7F89483E08093E9009091E800D0
:1009B000892F807295FF04C09091F20080E4891B1A
:1009C0002FBF08958091B30581110DC082E08093FF
:1009D000AF0584E08093B0051092B2051092B10586
:1009E00081E08093B3058FEA95E008958F929F92FE
:1009F000AF92BF92CF92DF92EF92FF920F931F932D
:100A0000CF93DF936C017B018A0180910D018823D4
:100A100009F458C08091BC05882309F453C0809123
:100A20005E0580FF05C08091E00082608093E00059
:100A3000E801B12C8AEFA82E93E0892E2AE3922EAA
:100A4000209711F4BB20B9F10E94D104811106C096
:100A5000AA94AA20B9F10E947A04F2CF8C171D063D
:100A600011F00CF08C2F9FB7F8948092E900209140
:100A7000E80025FD02C09FBFE3CF282F30E0C21B56
:100A8000D30BF701815020F041914093F100FACF50
:100A9000E20EF31EBB2021F09092E800B12CEBCFC8
:100AA0008091E80085FDE7CF9092E800BB24B394E5
:100AB000209709F3F3CF5D9884E680935D051016C7
:100AC00011063CF081E090E0F6019383828310E010
:100AD00000E0C801DF91CF911F910F91FF90EF903F
:100AE000DF90CF90BF90AF909F908F900895CF935D
:100AF000DF931F92CDB7DEB76983DC01ED91FC91E6
:100B00000280F381E02D41E050E0BE016F5F7F4F36
:100B100009950F90DF91CF91089583E08093E900CC
:100B20008091F200882319F08AE38093E800089509
:100B30000E94D10490E00895CF93DF931F92CDB728
:100B4000DEB7FC018485958597FD08C02FEF3FEF48
:100B5000358724870F90DF91CF910895CE010196BC
:100B60000E94A704019719F4898190E0F3CF8FEFD9
:100B70009FEFF0CF0F931F93CF93DF931F92CDB7CB
:100B8000DEB78C01FC018485958597FF0BC0CE01F3
:100B900001960E94A704019771F4898190E0F80101
:100BA00095878487F801848595850F90DF91CF9193
:100BB0001F910F9108958FEF9FEFF1CFFC01848576
:100BC000958597FD0BC09FB7F89482E08093E9006C
:100BD0008091F2009FBF90E0019608959FB7F8942E
:100BE00082E08093E9008091F2009FBF90E0089539
:100BF0004091590550915A0520915705309158055B
:100C000042175307B4F49091E8009570E1F3909186
:100C1000E80092FD19C08093F100809159059091F0
:100C20005A0501968F739927892B19F48EEF8093BB
:100C3000E8008091590590915A05019690935A05C4
:100C40008093590581E0089580E00895EF92FF9226
:100C50000F931F93CF93DF93F82E192FE62E042FB7
:100C600081E0860F880F0E94F80583E00E94F80556
:100C7000CF2DD12FEC0EFD2EF11CCE15DF05B9F0D6
:100C800007FF13C0FE0184910E94F805182F80E031
:100C90000E94F805812321968111EFCFDF91CF913A
:100CA0001F910F91FF90EF9008958881EDCF81E023
:100CB000F5CFDF92EF92FF920F931F93CF93DF93C5
:100CC000D82E8A01EB017B01E40EF51ECE15DF055F
:100CD00059F0D7FE12C0FE0184910E94F8052196BA
:100CE0008111F4CF0FEF1FEFC801DF91CF911F915A
:100CF0000F91FF90EF90DF9008958881EECF0F93D2
:100D00001F93CF93DF931F92CDB7DEB782E0898325
:100D100042E450E068E676E080E80E9459060E94CE
:100D2000E204DC0112960D911C910115110589F068
:100D3000D801ED91FC910280F381E02DBE016F5F3F
:100D40007F4FC801099597FD04C0F8010085118502
:100D5000ECCF89810F90DF91CF911F910F91089572
:100D6000615030F02091F100FC0120830196F8CF12
:100D7000289884E68093BB050895BC0190E080E04C
:100D8000AB01FC010E948F0441505109E109F109B6
:100D900028F068517C4F8F4F9F4FF6CFAB01FC017D
:100DA0000E948F04641775078E079F07C8F3089584
:100DB0008FB18095807F669B88601C9B84600895BE
:100DC000109244053E983F9808953E9A3F9A81E0DC
:100DD000809344050895CF92DF92EF92FF92CF93D4
:100DE000C82F6B01F12CE12C60E074E284EF90E0FD
:100DF000A70196010E94A9232150310941095109F7
:100E000091E02115310581E0480751056CF060E95A
:100E100070ED83E090E0A70196010E94A923215084
:100E200031094109510993E0C130C9F08091910025
:100E3000887F892B809391003093990020939800AC
:100E400010929500109294008091710082608093BE
:100E50007100CF91FF90EF90DF90CF900895809137
:100E60008100887F892B80938100309389002093B3
:100E70008800109285001092840080916F0082603B
:100E800080936F00E6CF282F823009F1E82FF0E041
:100E90008130F1F0809171008D7F809371004698D0
:100EA0003091950481E090E0A0E0B0E004C0880FAC
:100EB000991FAA1FBB1F2A95D2F780958323809381
:100EC0009504EE0FFF1FE455FB4F11821082089529
:100ED00080916F008D7F80936F004798E1CFAF9234
:100EE000BF92DF92EF92FF920F931F93CF93DF9306
:100EF000E82EC82FD0E081E090E0A0E0B0E00E2C1A
:100F000004C0880F991FAA1FBB1F0A94D2F7D82EBE
:100F1000F82EF0948E01000F111F04551B4FD801BD
:100F2000ED91FC911197309709F46AC0CF010196B9
:100F300011969C938E932491203981F53296ED93EE
:100F4000FC93FC01849187FF0FC0809195048F2151
:100F50008093950468EE73E08E2D0E94EB0698EE68
:100F6000A92E93E0B92EDBCFE82FF0E0803378F4A0
:100F7000EE58FA4FE491AE2EB12C809195048D2954
:100F800080939504B5018E2D0E94EB06C8CFEE0F1D
:100F9000FF1FEE58FB4FA590B490EFCF2038A9F279
:100FA00027FD38C03296ED93FC93FC018491322FDB
:100FB000282FD5010E94FD236C507E4F8F4F9F4FED
:100FC00028EE33E040E050E00E94DB23CC0FDD1F31
:100FD000CC0FDD1FC357DB4F288339834A835B83E4
:100FE00088819981AA81BB81892B8A2B8B2B41F423
:100FF00081E090E0A0E0B0E088839983AA83BB837E
:10100000DF91CF911F910F91FF90EF90DF90BF90F4
:10101000AF9008952F7E203E09F081CF8E2DDF9175
:10102000CF911F910F91FF90EF90DF90BF90AF9005
:101030000C9443074F925F926F927F928F929F9290
:10104000AF92BF92CF92DF92EF92FF920F931F93D6
:10105000CF93DF93A0905605A3E3B2E0B12C062E08
:10106000000C770B30E0319521953109042E000CEE
:10107000550B10E0119501951109C12CD12C760169
:10108000C394BA1011C0DF91CF911F910F91FF90BF
:10109000EF90DF90CF90BF90AF909F908F907F9018
:1010A0006F905F904F9008951296CC91129713967F
:1010B0007C9013971496DC9114971196EC911197EC
:1010C0004B018E1A9108E7FD9394281539058CF58C
:1010D0007814190471F16CF1FA01EC1BF109C7FDE8
:1010E000F3950E171F072CF5C1E0DE171F0609F058
:1010F0000CF4C0E0EC2FE0FF19C0CC91EC2FE2958E
:10110000EF70F0E0EE0FFF1FE80FF91FCF70260120
:10111000370104C0440C551C661C771CCA95D2F7D5
:10112000C081D181C429D529D183C083B3941596B8
:10113000A8CFE0E0E0CF3F924F925F926F927F9214
:101140008F929F92AF92BF92CF92DF92EF92FF92D7
:101150000F931F93CF93DF9300D000D000D01F9246
:10116000CDB7DEB78D8349835A836B837C83280197
:1011700039018E2C9C2C3090460587E0831508F4AD
:1011800057C020E030E040EC50EC69817A818B81DF
:101190009C810E94B22618160CF04AC020E030E074
:1011A00040E053E469817A818B819C810E94902484
:1011B00087FF3EC020E030E040EC50ECC301B801B6
:1011C0000E94B2261816A4F520E030E040E852E470
:1011D000C301B8010E94902487FF2AC09D81092F76
:1011E00010E0CC2009F4B5C00152110926E0209F7F
:1011F000C001219F900D11248C0102561D4FE32D3B
:10120000032C000CFF0BE65AF94F84918E83C30127
:10121000B2010E940C256B0169817A818B819C81CE
:101220000E940C25CB012E81A801B6010E949503D6
:1012300080918B04882309F474C0882009F471C05C
:1012400020E030E040E852EC69817A818B819C811A
:101250000E94B22687FD8BC020E030E040E453E4DA
:1012600069817A818B819C810E94902487FF7FC055
:1012700020E030E040E852ECC301B2010E94B22607
:1012800087FD75C091E09E8320E030E040E053E4AC
:10129000C301B2010E94902487FF1E828E8180FFCD
:1012A00040C0992009F465C037EEF32E8D81F80E09
:1012B00020E030E040E85FE369817A818B819C81A6
:1012C0000E940D240E940C256D8320E030E040E850
:1012D0005FE3C301B2010E940D240E940C25D62EAB
:1012E00095E0998345E0E42E09812E2D4D2D6D81E9
:1012F000C5010E941A0837FC14C080915605883732
:1013000080F495E0899FF0011124ED5CFD4FF0829F
:101310009D819183D282E382998194838F5F8093B0
:10132000560527960FB6F894DEBF0FBECDBFDF91EE
:10133000CF911F910F91FF90EF90DF90CF90BF90D2
:10134000AF909F908F907F906F905F904F903F9065
:1013500008950156104E53E0000F111F5A95E1F702
:1013600080919C0490919D04080F191F48CF80E044
:1013700096CF85E0F82E8D81F80E90E08156904E44
:1013800023E0880F991F2A95E1F7E0919C04F091E2
:101390009D04E80FF91F369605911491602F6F7028
:1013A00070E090E080E00E94442529813A814B81E1
:1013B0005C810E940D240E940C256D83602F629534
:1013C0006F7070E090E080E00E944425A3019201DC
:1013D0000E940D240E940C25D62E812F8F70E82E9E
:1013E000912F92959F7099837FCF83E080934605DC
:1013F00080E090E0A0E4B0E480932E0290932F026E
:10140000A0933002B093310281E080938B04089561
:10141000CF92DF92EF92FF9281E080934F05C090D0
:10142000A804D090A904E090AA04F090AB046091C5
:10143000A6047091A70490E080E00E944225A701D5
:1014400096010E94902487FF08C0C701B6010E9440
:1014500013257093A7046093A6041092A804109219
:10146000A9041092AA041092AB04809135058770EC
:101470008093350580913905877080933905809177
:101480003D05877080933D0580914105877080936D
:1014900041051092320290E080E0FC0123E0EE0F63
:1014A000FF1F2A95E1F7E854FB4F2081207C208321
:1014B00001968031910589F70E94F5098FEF80939D
:1014C0004D058FEF9FEF9093550580935405FF9046
:1014D000EF90DF90CF90089590914E0590952091D8
:1014E00001019223982381E009F480E0089580911E
:1014F00046058093450583E08093460508952F9225
:101500003F924F925F926F927F928F929F92AF9293
:10151000BF92CF92DF92EF92FF920F931F93CF93E0
:10152000DF93CDB7DEB729970FB6F894DEBF0FBEB5
:10153000CDBF2A013B0109831A832B833C83882377
:1015400021F120E030E040E05FE3C701B6010E94F6
:10155000B7269B01AC01C301B2010E940C242B01F0
:101560003C0120E030E040E05FE3C501B4010E94AF
:10157000B7269B01AC0169817A818B819C810E9495
:101580000C2469837A838B839C8380918B048823CA
:1015900009F468C020E030E040E852ECC301B20139
:1015A0000E94B22687FD17C120E030E040E453E4FA
:1015B000C301B2010E94902487FF0DC120E030E0FA
:1015C00040E852EC69817A818B819C810E94B2262D
:1015D00087FD01C111E020E030E040E053E4698183
:1015E0007A818B819C810E94902487FF10E0812F5B
:1015F00080FF38C0409146054D83C301B2010E946F
:101600000C25162F69817A818B819C810E940C2583
:10161000362EC701B6010E941325262EC501B4013E
:101620000E9413256987062F222D432D612F8E8D51
:101630009F8D0E941A088D8187FD14C080912D0214
:10164000883780F495E0899FF0011124ED5CFD4F0F
:10165000AD81A083118332822382B985B4838F5FE9
:1016600080932D02409146054987483008F0C8C054
:10167000C301B2010E940C256D837E838F839887FE
:101680006D807E8069817A818B819C810E940C258E
:1016900069837A838B839C8329803A80C701B60152
:1016A0000E940C256B018B01C501B4010E940C2521
:1016B0009B0177FE0DC0A3015195419551094C1531
:1016C0005D050CF09DC083010C0D1D1D712C612C5E
:1016D00037FE0FC049815A815195419551094217F2
:1016E00053070CF08DC029813A81260F371F312C0A
:1016F000212C101611060CF083C080E868167104C6
:101700000CF07EC0121613060CF07AC090E4291675
:1017100031040CF075C0C801860D971D8138910504
:1017200024F000E810E006191709C901820D931D85
:101730008134910524F020E430E022193309C101FD
:1017400043E0959587954A95E1F79695982F8827D8
:1017500097958795860D971D83549A4F422D477014
:10176000642F70E05FEF952E01C0990C4A95EAF75F
:10177000A985EA2FAA0FFF0BE65AF94FE491260F2D
:10178000371F48E050E0421B530BCC24CA94D12CA5
:101790003801772460E870E0601B710B2830310558
:1017A00044F47601042E02C0F594E7940A94E2F71B
:1017B0009E20F02FE13089F47C01FF23A1F0F1504D
:1017C000D7018D907D015D01B1E0AB1AB108892888
:1017D000D5018C92F2CF80E00BCF7C01E11135C0B6
:1017E0009094F11126C0860D971D28503109860F5F
:1017F000971F485F5F4F99249A941216130674F24C
:1018000029960FB6F894DEBF0FBECDBFDF91CF9102
:101810001F910F91FF90EF90DF90CF90BF90AF900E
:101820009F908F907F906F905F904F903F902F9000
:101830000895F150D7018D907D015D01B1E0AB1AA3
:10184000B1088920D5018C92CCCFFF2361F2F150F1
:10185000D7018D907D015D01B1E0AB1AB1088924FB
:10186000D5018C92F2CFEF92FF920F931F93CF93FB
:10187000DF9390E080E025E1289FE001299FD00DD3
:1018800011248E0106561E4FF801308933FD69C0C0
:101890000E947A237C010E947A239F77BC01990FD2
:1018A000880B990B0E94442520E03EEF4FEF56E451
:1018B0000E949A2420E030E040EF51E40E94B726D5
:1018C00020E030E040E251E40E940D24F801608302
:1018D000718382839383B7017F77072E000C880B77
:1018E000990B0E94442520E03EEF4FEF56E40E9402
:1018F0009A2420E030E040E951E40E94B72620E03D
:1019000030E040E151E40E940C24F80164837583C7
:101910008683978310861186128613861486158611
:1019200016861786C655DE4F88818C7F8B7F88830D
:10193000128A118A148A138A0E947A2360E170E065
:101940000E94C227982F9295907F88818F70892B53
:1019500088608883DF91CF911F910F91FF90EF9066
:10196000089501968630910509F086CFF3CF8F92C6
:101970009F92AF92BF92EF92FF920F931F934901F4
:101980005A01A80197010E949E259B01AC01C50147
:10199000B4011F910F91FF90EF90BF90AF909F9077
:1019A0008F900C947F252F923F924F925F926F926F
:1019B0007F929F92AF92BF92CF92DF92EF92FF926F
:1019C0000F931F93CF93DF93CDB7DEB761970FB619
:1019D000F894DEBF0FBECDBF6E837F838887998763
:1019E0002A873B874C875D872701380120E030E05C
:1019F00040E85FE3C801B7010E94902487FF22C03E
:101A00000E947A239F77BC01990F880B990B0E9443
:101A1000442520E03EEF4FEF56E40E949A2420E058
:101A200030E0A9010E940D249B01AC01C801B7015F
:101A30000E94902487FD1BC0412C512C40E8642E4D
:101A40004FE3742E1D82D601C501BF778E879F8715
:101A5000A88BB98B2D81622F70E090E080E00E940E
:101A60004425A30192010E94902487FD18C061962D
:101A70000FB6F894DEBF0FBECDBFDF91CF911F919F
:101A80000F91FF90EF90DF90CF90BF90AF909F901D
:101A90007F906F905F904F903F902F90089520908F
:101AA0008C0498E0299E1001112481010E541B4FD3
:101AB0006E817F81888599850E941325D8016C935A
:101AC00081010D541B4F6A857B858C859D850E9405
:101AD0001325862F8F77F80160816078682B6083EB
:101AE00091E08091460583300CF490E0D8018C9110
:101AF00090FB87F98C93F101EE54FB4F1282138215
:101B0000148215820E947A238C016E857F858889D4
:101B100099890E94322769837A838B839C83B801D9
:101B20007F77072E000C880B990B0E94442520E03C
:101B30003EEF4FEF56E40E949A2420E030E040E26E
:101B400051E40E94B72620E030E040E251E40E94D8
:101B50000D2429813A814B815C810E940D24E12C66
:101B6000F12C00E712E420E030E040E251E40E9472
:101B7000B70CF101E854FB4F1F010E941325862F7B
:101B80008F73D1016C91607C682B6C930E947A23D7
:101B90009F77BC01990F880B990B0E94442520E088
:101BA0003EEF4FEF56E40E949A2420E030E040E000
:101BB0005FE30E94B72620E030E040E05FE30E9450
:101BC0000D24A60195010E94B72620E030E040E0F8
:101BD00055E40E94B7260E94322769837A838B835B
:101BE0009C83F10180818F73982E682F70E090E0C4
:101BF00080E00E9444259B01AC0169817A818B8140
:101C00009C810E940C2420E030E040E85DE30E94CB
:101C1000B726E12CF12C00E711E420E030E0A90127
:101C20000E94B70C0E941325862F8295880F880F7B
:101C3000807C8929D1018C93669566956370119695
:101C40008C9111978C7F682B11966C930E947A234C
:101C50009F77BC01990F880B990B0E94442520E0C7
:101C60003EEF4FEF56E40E949A2429A53AA54BA5D2
:101C70005CA50E94B72620E030E0A9010E940D2457
:101C80002DA13EA14FA158A50E940D2469837A83FE
:101C90008B839C8320E030E040E05FE369A57AA578
:101CA0008BA59CA50E94B7269B01AC0169817A8116
:101CB0008B819C810E940C2420E030E040E052E4C3
:101CC0000E94B7262BED3FE049E450E40E949A249D
:101CD00020E030E040E05FE30E940D240E941325E5
:101CE000862F880F880FF10161816370682B6183F3
:101CF00080918C048F5F803130F480938C04FD815F
:101D0000FF5FFD83A7CE10928C04F9CF20E1FC0188
:101D100011922A95E9F708952F923F924F925F9280
:101D20006F927F928F929F92AF92BF92CF92DF92EB
:101D3000EF92FF920F931F93CF93DF93CDB7DEB750
:101D400067970FB6F894DEBF0FBECDBF4C017A8BFC
:101D5000698B29013A016701CE0101960E94860E26
:101D600089899A890E948A238B8B20E030E040E4A5
:101D700050E4C301B2010E940C242B013C0120E07D
:101D800030E040E450E4C801B6010E940C246C8BA2
:101D90007D8B8E8B9F8B312C212C8B89281610F1FB
:101DA00080E1FE013196D40101900D928A95E1F710
:101DB000C40167960FB6F894DEBF0FBECDBFDF91AA
:101DC000CF911F910F91FF90EF90DF90CF90BF9038
:101DD000AF909F908F907F906F905F904F903F90CB
:101DE0002F900895E989FA89E20DF31D84919FED02
:101DF000980F9E3578F49E012F5F3F4F5901CC24F8
:101E0000C394E12C0C891D892E893F89B301A2015D
:101E10000E949B0820E030E040EC50E4C301B20196
:101E20000E940D242B013C013FEF231A330AB5CF4A
:101E30002F923F924F925F926F927F928F929F92DA
:101E4000AF92BF92CF92DF92EF92FF920F931F93C8
:101E5000CF93DF93CDB7DEB767970FB6F894DEBFA9
:101E60000FBECDBF9A8B898B6B0129013A01CE0140
:101E700001960E94860EF60101900020E9F7319745
:101E80002E2F2C192B8B20E030E040E450E4C301CE
:101E9000B2010E940C242B013C0120E030E040E420
:101EA00050E4C801B7010E940C246C8B7D8B8E8B93
:101EB0009F8BFC2C1601822D8F193B89831720F1F3
:101EC00080E1FE013196A989BA8901900D928A9527
:101ED000E1F789899A8967960FB6F894DEBF0FBE3D
:101EE000CDBFDF91CF911F910F91FF90EF90DF90C9
:101EF000CF90BF90AF909F908F907F906F905F90AA
:101F00004F903F902F900895F10181911F019FED17
:101F1000980F9E3578F49E012F5F3F4F5901CC24D6
:101F2000C394E12C0C891D892E893F89B301A2013C
:101F30000E949B0820E030E040EC50E4C301B20175
:101F40000E940D242B013C01B6CF3F924F925F922D
:101F50006F927F928F929F92AF92BF92CF92DF92B9
:101F6000EF92FF920F931F93CF93DF93CDB7DEB71E
:101F700060970FB6F894DEBF0FBECDBF4C01362E72
:101F800059016A01CE0101960E94860E20E030E0E0
:101F900040E450E4C801B7010E940C242B013C012D
:101FA00020E030E040E450E4C601B5010E940C247A
:101FB000AB01BC01CE0101965C01C12CEE24E3947F
:101FC00093018201832D0E949B0880E1F501D401D9
:101FD00001900D928A95E1F7C40160960FB6F894CE
:101FE000DEBF0FBECDBFDF91CF911F910F91FF904C
:101FF000EF90DF90CF90BF90AF909F908F907F90A9
:102000006F905F904F903F9008952F923F924F9224
:102010005F926F927F928F929F92AF92BF92CF9278
:10202000DF92EF92FF920F931F93CF93DF93CDB781
:10203000DEB7C456D1090FB6F894DEBF0FBECDBFD0
:102040008091540590915505892BC9F4A4E3B1E022
:1020500090E080E035E1389FF001399FF00D1124C8
:10206000E655FE4F2081277F208350961C92509783
:10207000019651968630910571F710922C0280914D
:102080002C028111ACC083E080934D050E94330C7B
:102090000E94330C0E94330C0E94330C0E94330CBC
:1020A0000E94330C0E947A239F77BC01990F880B02
:1020B000990B0E94442520E03EEF4FEF56E40E942A
:1020C0009A2420E030E040E351E40E94B72620E06B
:1020D00030E040EA50E40E940D246B017C0120E0D6
:1020E00030E044E153E40E940D24609318027093A1
:1020F000190280931A0290931B02A701960160E0D7
:1021000070E08CE792E40E940C2460931C027093B0
:102110001D0280931E0290931F020E947A238C015D
:102120002AE939E949E95EE3C701B6010E94B72609
:1021300020E030E040E85FE30E940D240E94322757
:102140004B015C01B8017F77072E000C880B990BBF
:102150000E94442520E03EEF4FEF56E40E949A246F
:1021600020E030E040E85FE30E940D24A5019401E7
:102170000E949A246093200270932102809322028D
:1021800090932302C0922402D0922502E09226026C
:10219000F09227020E947A239F77BC01990F880B47
:1021A000990B0E94442520E03EEF4FEF56E40E9439
:1021B0009A242BED3FE049EC50E40E94B72620E042
:1021C00030E0A9010E940D24609328027093290237
:1021D00080932A0290932B0281E080932C0220911D
:1021E0005005309151054091520550915305609131
:1021F00020027091210280912202909123020E947C
:10220000B7269B01AC016091180270911902809170
:102210001A0290911B020E940C242F966CAF7DAF86
:102220008EAF9FAF2F97609318027093190280931F
:102230001A0290931B028091240290912502A09192
:102240002602B091270289A79AA7ABA7BCA72DECBD
:102250003CEC4CEC5DE3BC01CD010E94B72620E0D4
:1022600030E040E450E40E940D2427966CAF7DAF2F
:102270008EAF9FAF279760932E0270932F028093AB
:1022800030029093310240902802509029026090D1
:102290002A0270902B0280911C0290911D02A09145
:1022A0001E02B0911F0264968CAF9DAFAEAFBFAF60
:1022B0006497CE0101960E94860E80915605809308
:1022C0002D022BED3FE049EC50E4C301B2010E9426
:1022D0000D24A30192010E940C244B015C012AE011
:1022E00037ED43E25CE30E94902487FD8CC020E040
:1022F00030E0A901C501B4010E94902487FD5BC5AF
:102300002BED3FE049EC50E4C501B4010E94B22638
:1023100018160CF454C520E030E040E05EE369A5F7
:102320007AA58BA59CA50E94B7260E943227A501FD
:1023300094010E94B7260E9479240E94132570E020
:1023400090E080E00E944225E12CF12C00E911E4AC
:1023500020E030E040E85FE30E94B70C0E941325C4
:1023600065966FAF659770E090E080E00E9444252D
:102370009B01AC01C501B4010E949A24A1966CAFE7
:102380007DAF8EAF9FAFA197C301B2010E9495248C
:102390009B01AC0169A57AA58BA59CA50E94B726D7
:1023A0002F962CAD3DAD4EAD5FAD2F970E940D2405
:1023B000362E272E8DA79DABC301B2010E94242784
:1023C0009B01AC0169A57AA58BA59CA50E94B726A7
:1023D00064962CAD3DAD4EAD5FAD64970E940D246B
:1023E00069AB7FAB89AF9AAF60961FAE6097659679
:1023F000FFAD659760962FAD6097F213E9C48091A9
:102400002D02809356058090200290902102A0908A
:102410002202B09023028091240290912502A09183
:102420002602B091270289A79AA7ABA7BCA79C0157
:10243000AD01C501B4010E949A249B01AC016091D9
:1024400028027091290280912A0290912B020E9409
:102450000C24609328027093290280932A0290939F
:102460002B02809146058F3F09F470C040901802FE
:102470005090190260901A0270901B0220E030E028
:10248000A901C301B2010E94902487FD5FC0209181
:102490001C0230911D0240911E0250911F0269A53D
:1024A0007AA58BA59CA50E940D246DA77EA78FA75A
:1024B00098AB20E030E0A9010E94902487FD46C03F
:1024C00020E030E040E053E4C301B2010E94B226B4
:1024D00087FF3CC020E030E040E852E46DA57EA5D7
:1024E0008FA598A90E94B22687FF30C020E030E077
:1024F00040EA50E4C501B4010E94B7265B016C01BB
:102500002DEC3CEC4CE45DE369A57AA58BA59CA57C
:102510000E94B7267B018C018EE38F932CE42F93CE
:102520009CEC9F938DEC8F933EEB3F932F939F9367
:102530008F932DA53EA54FA558A9C301B2010E94B6
:10254000D30C0FB6F894DEBF0FBECDBFFE0131969F
:102550003F01CF010E94860E8091560580932D0287
:102560007F926F92812C912C00EEA02E00E4B02E71
:10257000C12CD12CE12C83E4F82E00E010E02CE7F4
:1025800032E440E050E0BA0180E00E947F0A80918E
:102590002D02809356050F900F909AE9292E91E015
:1025A000392E1AA619A61EAA1DAA69AE7AAEF9A5D9
:1025B000F9AB45E129A53AA5429FF001439FF00DF3
:1025C0001124E656FE4F808983FF13C2D101519634
:1025D0008D919C91892B09F0A5C0B0914D05BDA7A7
:1025E0001AE9C12E11E0D12E10E000E0F8AFEFABF8
:1025F00025E1209FF001219FF00D1124E656FE4FAA
:10260000808983FF83C039A9301709F47FC0AFA93F
:10261000B8AD50968C9180FF79C07601F101208190
:10262000318142815381D6016D917D918D919C9133
:102630000E940C242B013C01F1012481358146814B
:102640005781D60114966D917D918D919C9117972C
:102650000E940C244B015C01A3019201C301B20151
:102660000E94B7262B013C01A5019401C501B401CC
:102670000E94B7269B01AC01C301B2010E940D2448
:102680000E94322720E030E040E850E40E9490248D
:1026900087FF3CC0F10183E690E021893289211552
:1026A000310509F0FCC483E690E0D70153962D91E3
:1026B0003C912115310519F001977901B1F7D70146
:1026C0005496FC93EE935397F28AE18AF10123E644
:1026D00030E080898E7F8B7F808B0388F489E02DAA
:1026E000309719F021503109A1F7F10183E690E00C
:1026F00020892E7F2B7F208B0188F289E02D309757
:1027000009F4D2C40197A1F7B6E0BDA70F5F1F4F30
:10271000F5E1CF0ED11C0630110509F069CF2DA5CA
:1027200020934D058CE80E946C0A882309F4A1C00F
:10273000A5E189A59AA5A89FF001A99FF00D1124F4
:10274000E656FE4F808980FD0AC0D1015196ED9179
:10275000FC91309709F4ABC4808982FF91C0B5E049
:10276000B0934D05F101108611861286138680E024
:1027700090E0A0EABFEB84879587A687B787809112
:1027800046058F3F09F459C04080518062807380B4
:1027900020E030E0A901C301B2010E94902487FD2E
:1027A0004CC0D10114968D919D910D90BC91A02D9E
:1027B0008DA79EA7AFA7B8AB20E030E0A901BC0170
:1027C000CD010E94902487FD38C020E030E040E039
:1027D00053E4C301B2010E94B22687FF2EC020E05D
:1027E00030E040E852E46DA57EA58FA598A90E942F
:1027F000B22687FF22C0BFE3BF931F921F921F9292
:10280000BF93E9ECEF93FFE0FF938BED8F93A12C47
:10281000B12CC12CA0E4DA2EE12CF12C00EA10E45A
:102820002DA53EA54FA558A9C301B2010E94D30C06
:102830000FB6F894DEBF0FBECDBFA5E189A59AA55E
:10284000A89FF001A99FF00D1124E655FE4F80814D
:102850008E7F82608083D1015196ED91FC915297D9
:10286000309709F424C4148A138A52961C921E923B
:102870005197D1015196ED91FC91309709F417C40D
:1028800088E0D10101900D928A95E1F720E030E0D7
:1028900040EC50E4F10164817581868197810E944A
:1028A0000C24D10114966D937D938D939C9317976F
:1028B000F10110861186128613861C961D921D92B8
:1028C0001D921C921F97D1011496ED90FD900D91D1
:1028D0001C9117972D913D914D915C91A5E189A592
:1028E0009AA5A89FF001A99FF00D1124E655FE4F6F
:1028F000608162956F7070E0660F771F809154055C
:1029000090915505680F791F65FB662760F96F592F
:1029100089AD9AAD0E94A50F898183FF68C5D10159
:102920005396ED91FC91309729F0128A118A808993
:102930008260808BD1015196ED91FC91309711F01E
:10294000148A138AB4E0B0934D05F101C484D58490
:10295000E684F78480849184A284B3846091200209
:1029600070912102809122029091230228E0DE01E1
:10297000519601900D922A95E1F7E4E3F1E030E001
:1029800020E0408941112BC5F1E1F29F8001F39FC6
:10299000100D11240C5C1E4F28E0FE017196D80129
:1029A00001900D922A95E1F79B01AC010E940D2444
:1029B0009B01AC01C501B4010E940C24D8011896FA
:1029C0006D937D938D939C931B97F801C486D58658
:1029D000E686F78621E0208BA5E189A59AA5A89F28
:1029E000F001A99FF00D1124E655FE4F8081877FED
:1029F000808389A59AA501969AA789A795E1290EB2
:102A0000311CA9A5BAA5169709F0D1CD10E0EDA902
:102A1000FEA91E171F060CF42CC590E080E035E1DE
:102A2000389FF001399FF00D1124DF01A656BE4FEB
:102A300050962C912A702A3031F4E655FE4F2081B1
:102A400024602D7F208301968630910549F774E339
:102A5000C72E71E0D72EEAE92E2EE1E03E2ED601F8
:102A600050968C915097882309F456C018962D9152
:102A70003D914D915C911B976D917D918D919C91B4
:102A80000E940D244B015C01F60180829182A2829A
:102A9000B38284859585A685B78589A79AA7ABA7B4
:102AA000BCA72481358146815781BC01CD010E949C
:102AB0000D242B013C01D60114964D925D926D922E
:102AC0007C9217972DEC3CEC4CE45EE369A57AA56B
:102AD0008BA59CA50E940D24F601648775878687C7
:102AE000978783017201A501940163E6CE0149969F
:102AF0000E94A50F20E030E046E952E4D60114968A
:102B00006D917D918D919C9117970E949024881FC3
:102B10008827881FF601808BF1E1CF0ED11C2C1481
:102B20003D0409F09CCF90E080E0D12C25E1289F66
:102B3000F001299FF00D1124E655FE4F308133FD41
:102B4000D39401968630910591F7D11064C087E047
:102B500080934D0582E080934F050E94770A109282
:102B60004605CC24C39463E0B62E8C2D6B2D0E94B9
:102B7000B427192F682F880F770B880B990B0E94A9
:102B8000442520E030E040E052E40E940D2420E0A3
:102B900030E040E85FE30E940C242B013C01612FF0
:102BA000110F770B880B990B0E94442520E030E031
:102BB00044E152E40E940D2420E030E040E85FE36D
:102BC0000E940C249B01AC018301720164E972E054
:102BD000CE0149960E948C0EC394C39429E0C21280
:102BE000C4CFB0924605E12CF12C00E012E420E0C5
:102BF00030E044E152E464E972E0CE0149960E947B
:102C00008C0E80914505809346058FEF9FEF909342
:102C1000550580935405209124023091250240915E
:102C200026025091270250586091180270911902A3
:102C300080911A0290911B020E94902487FFA1C0EC
:102C400010922C026D2D70E090E080E00E944225F1
:102C50002B013C01AC019B016091A8047091A90477
:102C60008091AA049091AB040E940D246093A80463
:102C70007093A9048093AA049093AB0420E030E4FD
:102C80004CE156E4C301B2010E94B22687FF79C02D
:102C900020E030E44CE955ECC301B2010E949024DD
:102CA00087FD6FC090903202C92CD12CE12CF12C01
:102CB0000EEF12E420E030E0A90160E070E080E275
:102CC00091E40E94B70CCC0CDD1CCC0CDD1CD601B1
:102CD000AE5CBA4F6D010E941325A62EA294AA0CD9
:102CE000AA0C30ECA322F60171817F73A72AA1827E
:102CF000669566956F71B280FB2DF07EBF2EB62A69
:102D0000D6011296BC92E12CF12C0CE712E420E0E3
:102D100030E0A90160E070E080EF91E40E94B70C20
:102D20000E941325862F8295880F807EBB2DBF7150
:102D3000BB2EB82AF601B2826695669566956770D5
:102D40001381187F162B138320E030E44CE955E4FF
:102D5000C301B2010E940D240E941325D6016C9379
:102D60007F73BA2DB07CAB2EA72AF601A182177013
:102D7000106F138381E0890D843008F07EC3809347
:102D80003202CC59DF4F0FB6F894DEBF0FBECDBF75
:102D9000DF91CF911F910F91FF90EF90DF90CF9037
:102DA000BF90AF909F908F907F906F905F904F906B
:102DB0003F902F900895812C912C5401ACCA5BED6B
:102DC000852E5FE0952E59ECA52E50E4B52EA3CAB2
:102DD000A1962CAD3DAD4EAD5FADA197C301B20143
:102DE0000E940D242B013C010E9495249B01AC0103
:102DF00069A57AA58BA59CA50E94B7262F962CAD18
:102E00003DAD4EAD5FAD2F970E940D246A966FAF1A
:102E10006A976B967FAF6B976C968FAF6C976D963A
:102E20009FAF6D97C301B2010E9424279B01AC01A3
:102E300069A57AA58BA59CA50E94B72664962CADA2
:102E40003DAD4EAD5FAD64970E940D2466966FAFA9
:102E5000669767967FAF679768968FAF6897699612
:102E60009FAF6997232D322D4DA55DA96A966FAD51
:102E70006A976B967FAD6B976C968FAD6C976D96DE
:102E80009FAD6D970E940C246BAF7CAF8DAF9EAF52
:102E900029A93FA949AD5AAD66966FAD6697679669
:102EA0007FAD679768968FAD689769969FAD699774
:102EB0000E940C242B966CAF7DAF8EAF9FAF2B97EB
:102EC0008BAD9CADADADBEADBF7723968CAF9DAF46
:102ED000AEAFBFAF23972B968CAC9DACAEACBFAC66
:102EE0002B97E894B7F820E030E040EC5FE32796BA
:102EF0006CAD7DAD8EAD9FAD27970E94B726E12CBE
:102F0000F12C00E211E420E030E040E450E40E94C3
:102F1000B70C6B017C01A501940123966CAD7DADCE
:102F20008EAD9FAD23970E94B226A7019601181679
:102F30000CF073C023966CAD7DAD8EAD9FAD239725
:102F40000E949A240E9479240E94132570E090E048
:102F500080E00E944225E12CF12C04E412E420E000
:102F600030E040E450E40E94B70C0E9413256FAF9C
:102F7000A62FA150BB0BBD01072E000C880B990B8F
:102F80000E9444256B017C01AC019B016BAD7CADC3
:102F90008DAD9EAD0E949A24A5966CAF7DAF8EAF8D
:102FA0009FAFA597A70196012B966CAD7DAD8EAD19
:102FB0009FAD2B970E949A242B966CAF7DAF8EAF5E
:102FC0009FAF2B971BAE2FAD3BAD231329C060964F
:102FD0004FAD60974F5F60964FAF609766966FAD4D
:102FE000669769AB67968FAD67978FAB68969FAD15
:102FF000689799AF6996AFAD6997AAAF6A963FACEB
:103000006A976B962FAC6B976C96BFAD6C97BDA70C
:103010006D96EFAD6D97EDABEAC9C501B40190CFE8
:10302000E1E0F0E0EC0FFD1FFF93EF9327968CACEF
:103030009DACAEACBFAC27977501640109A91FA96F
:1030400029AD3AAD432D522D6DA57DA981E00E9499
:103050007F0AA5962CAD3DAD4EAD5FADA597632D16
:10306000722D8DA59DA90E940D24362E272E8DA789
:103070009DAB2B962CAD3DAD4EAD5FAD2B9769A9A9
:103080007FA989AD9AAD0E940D2469AB7FAB89AF52
:103090009AAFFBADFF5FFBAF0F900F9094CF0197FE
:1030A000F90109F0FACAFFCAE6E0EDA72FCBD1017A
:1030B0001C968D919D910D90BC91A02D8DA79EA7E2
:1030C000AFA7B8AB409050055090510560905205A5
:1030D00070905305F10180849184A284B384A5018A
:1030E0009401C301B2010E94B726D1012D913D91F7
:1030F0004D915C910E940D246B017C01F101C08215
:10310000D182E282F382A30192016DA57EA58FA5F3
:1031100098A90E94B726D10114962D913D914D9109
:103120005C9117970E940D2469AB7AAB8BAB9CAB7B
:10313000F101648375838683978323E333E343E755
:103140005FE3C501B4010E94B7264B015C01D101C8
:1031500018968D929D92AD92BC921B9720E030E024
:1031600040EE50E4C701B6010E94902487FF09C0D9
:1031700020E030E0A901C501B4010E94902487FD40
:1031800013C020E030E04AE952E4C701B6010E94D2
:10319000B22687FD16C020E030E0A901C501B401C8
:1031A0000E94B22618166CF420E030E040E05FEB9D
:1031B000C501B4010E94B726F1016087718782873B
:1031C0009387D10118968D909D90AD90BC901B97E0
:1031D00020E030E048E452E4C701B6010E949024A8
:1031E00087FF9FC0A701960160E070E088E492E449
:1031F0000E940C2420E030E040E85FE30E940D24B0
:103200000E9432272AE037ED43E25CE30E94B726B2
:10321000A50194010E940D24F101608771878287C6
:10322000938725E1E9A5FAA52E9F80012F9F100D18
:103230001124F801E656FE4F808980FF96C08090E9
:10324000180290901902A0901A02B0901B02A701D8
:103250009601C501B4010E94B2261816C4F560910A
:1032600024027091250280912602909127020E94EB
:1032700032272B013C01A7019601C501B4010E9430
:103280000C2420E030E040E85FE30E940D240E941F
:1032900032276B017C012DEC3CEC4CEC5DE3C3016F
:1032A000B2010E94B726A70196010E949A249B01B1
:1032B000AC01D10118966D917D918D919C911B97D8
:1032C0000E940C24F101608771878287938720E038
:1032D00030E0A901F10164817581868197810E94A6
:1032E000902487FFF0CAD1011C96CD90DD90ED901F
:1032F000FC901F9720E030E0A901C701B6010E94B1
:10330000902487FFE0CA20E030E040E05FEBC70197
:10331000B6010E94B726F101648775878687978773
:10332000D2CA20E030E048E452E4C701B6010E946E
:103330000C2420E030E040E85FE30E940D240E946E
:1033400032272AE037ED43E25CE30E94B7269B0177
:10335000AC01C501B4010E940C24D10118966D93F3
:103360007D938D939C931B975CCF2DEC3CEC4CECA8
:103370005DE3C301B2010E94B7262DA53EA54FA56E
:1033800058A90E940D24D1011C966D937D938D93B5
:103390009C931F9720E030E040E752E469A97AA9A6
:1033A0008BA99CA90E94B22618160CF090CF80E041
:1033B00090E0A0E7B2E4F10184839583A683B7830C
:1033C000F801E655FE4F808181608B7F8083D101BB
:1033D0001C961D921D921D921C921F9778CF2F5FF5
:1033E0003F4F71962630310509F0CBCAF5CAF1017D
:1033F000C080D180E280F38020E030E0A901C701E5
:10340000B6010E94902487FD26C020E030E040E015
:1034100053E4C701B6010E94B2261816E4F0D101A8
:103420001496CD90DD90ED90FC90179720E030E061
:1034300048E452ECC701B6010E94902487FD0BC0FE
:1034400020E030E04CE852E4C701B6010E94B22609
:1034500018160CF0CECAEDA9FEA93196FEABEDAB65
:1034600045E129A53AA5429FF001439FF00D1124A3
:10347000BBCA0E94330C1F5FCACA1092320281CCB1
:103480001F920F920FB60F9211248F939F938091EA
:10349000E1009091E100937F9093E10083FF0FC0E2
:1034A0001092E90091E09093EB001092EC0092E30F
:1034B0009093ED001092BC0598E09093F00082FF8D
:1034C00022C093E09093E9009091F200992319F0C3
:1034D0009AE39093E80090915D05992341F09091D3
:1034E0005D05915090935D05911101C05D9A909199
:1034F000BB05992341F09091BB0591509093BB057A
:10350000911101C0289A84FF18C08091E2008E7E3C
:1035100081608093E2008091E1008F7E8093E100E2
:1035200080915E058E7E806180935E059F918F9174
:103530000F900FBE0F901F90189580FFF7CF8091CE
:10354000E2008E7E80618093E2008091E1008E7EB9
:103550008093E10080915E058E7E8160E5CF1F92B1
:103560000F920FB60F921124CF92DF92EF92FF923B
:103570000F931F932F933F934F935F936F937F937B
:103580008F939F93AF93BF93EF93FF93CF93DF936B
:10359000CDB7DEB76C97DEBFCDBF1092E90080914A
:1035A000E80083FF25C068E0CE0145960E94B00682
:1035B00082EF8093E8008D8987FF39C09091E80001
:1035C00090FFFCCF982F907609F034C19E894F89E7
:1035D000588D2F89F88C911131C0803861F5809118
:1035E0005C058093F1001092F1008EEF8093E8006B
:1035F0006C960FB6F894DEBF0FBECDBFDF91CF91B2
:10360000FF91EF91BF91AF919F918F917F916F91BA
:103610005F914F913F912F911F910F91FF90EF90EC
:10362000DF90CF900F900FBE0F901F9018959EEFD8
:103630009093E800C7CF1092F100D5CF913059F4A4
:103640008111D3CF4130510581F680915C058D7F8A
:1036500080935C05CACF933049F48111C6CF4130C5
:10366000510519F680915C058260F2CF953041F4E6
:103670008091E80080FFFCCF20682093E300B5CF65
:10368000963009F0A9C00B8D1C8D22E01092E90044
:1036900010925A0510925905F2122EC01092580538
:1036A000109257050E947F061F8299E09983FA8243
:1036B00091E09E8390EA98879AEF99872091590527
:1036C00030915A05275F3F4F3C832B838D831092A7
:1036D000E90010925A05109259051093580500936D
:1036E000570549E050E0BE016F5F7F4F80E00E94C8
:1036F00059060E947F0679CF10935805009357050D
:103700000E94E204DC0112960D911C910115110535
:1037100009F451C1D801ED91FC910480F581E02DAF
:10372000BE016B5E7F4FC8010995009709F03EC14D
:10373000F80100851185EACFF3E0FF120EC08F89F2
:10374000882309F440C0823061F440E867E08CECE3
:1037500096E00E942606811148CF81E28093EB001B
:1037600047CF813029F440E86BE080EC96E0F1CF60
:10377000833099F70E94E204DC011296ED90FC90F0
:103780008E010F5F1F4F6801E114F10479F0D7013A
:10379000ED91FC910680F781E02DB801C7010995F4
:1037A000080F111DF701E084F184EECFD8011C92BF
:1037B000F60101900020E9F73197BF016C197D09EE
:1037C00040E0C601C6CF6AEA76E0FB01449150E0D2
:1037D00080E80E94590609CF973009F4BECF98308F
:1037E00021F481E08093F10000CF993009F0FDCE03
:1037F000837009F0B2CFE3E1F1E081E031E096E3DC
:103800002191222371F08093E9003093EB00DF01D6
:1038100011972C912093EC009093ED008F5F8730EF
:1038200079F78EE78093EA001092EA008F898093FF
:10383000BC05DBCE8B8D9C8D1092E90010925A0551
:10384000109259059093580580935705898D8111E1
:1038500092C08E899D89913A49F4813209F07DCFD9
:1038600047E050E066E071E080E0B3CF913209F0CC
:1038700074CF833269F48F89988DB0E0A0E0809393
:10388000020190930301A0930401B0930501ADCE12
:10389000803269F48091E80082FFFCCF67E086E027
:1038A00091E00E94B0068BEF8093E8009ECE8232BA
:1038B00009F09BCE8F8980930D01EEEFFFE7859194
:1038C00094918B3F9C4D51F1E0E0F8E0809106012E
:1038D00090910701A0910801B0910901803B9440AB
:1038E000A105B105F1F480910D0180FD1AC0EE3FF4
:1038F0008AE0F80789F587E797E7918380838091CD
:10390000600080935B0588E19BE00FB6F894A89572
:10391000809360000FBE9093600067CEEEEFFAE0F8
:10392000D5CF808191818737974709F05ECEA895E2
:103930008091600088618093600080915B05809336
:103940006000EE3F2AE0F20789F08091FE0A909134
:10395000FF0A9183808349CE8081918187379807C0
:1039600051F29093FF0A8093FE0AC5CF1092FF0A8E
:103970001092FE0A3ACE0E94E204DC0112960D91EA
:103980001C910115110509F4E8CED801ED91FC91C7
:103990000190F081E02DBE016B5E7F4FC80109955B
:1039A000811123CEF80100851185EBCF1816190679
:1039B0000CF41BCED2CEF1E0FF12BECE6EEA76E062
:1039C00004CF0F920FB68F939F93EF93FF93809145
:1039D00097048D5F8D3708F08D5780939704EEE93B
:1039E000F4E080818E4F808391819F4F918382810B
:1039F0008F4F828383818F4F8383E8E9F4E0808156
:103A00008F5F808381818F4F818382818F4F8283FB
:103A100083818F4F83838FB18F6066991C9B88272A
:103A20008F3681F480919604981B963068F0E0E020
:103A3000F8E087E78083818388E180936000F093DA
:103A40006000FFCF90939604FF91EF919F918F912B
:103A50000FBE0F9018951F920F920FB60F92112460
:103A60002F933F934F935F936F937F938F939F9386
:103A7000AF93BF93EF93FF938091950481FF03C0B1
:103A800088B1805888B98091910490919204A09156
:103A90009304B0919404892B8A2B8B2BD1F08091C5
:103AA000910490919204A0919304B0919404019791
:103AB000A109B1098093910490939204A093930477
:103AC000B0939404892B8A2B8B2B19F481E00E94EC
:103AD0006F07FF91EF91BF91AF919F918F917F9170
:103AE0006F915F914F913F912F910F900FBE0F906B
:103AF0001F9018951F920F920FB60F9211242F93BB
:103B00003F934F935F936F937F938F939F93AF9365
:103B1000BF93EF93FF938091950480FF04C088B119
:103B200090E4892788B980918D0490918E04A091AA
:103B30008F04B0919004892B8A2B8B2BD1F080912C
:103B40008D0490918E04A0918F04B0919004019700
:103B5000A109B10980938D0490938E04A0938F04E2
:103B6000B0939004892B8A2B8B2B19F480E00E9450
:103B70006F07FF91EF91BF91AF919F918F917F91CF
:103B80006F915F914F913F912F910F900FBE0F90CA
:103B90001F901895EFE5F5E01382128288EE93E00E
:103BA000A0E0B0E084839583A683B7838DE191E0A4
:103BB000918380838FEF9FEF958784870895CDB79A
:103BC000DEB7A597DEBFCDBF789483E084BD83E0E8
:103BD00085BD81E080936E00E1E8F0E083E08083C2
:103BE000E0E881E08083E1E983E08083E0E981E04F
:103BF0008083E1EC87E08083E3EC81E08083E0EC8C
:103C000082E08083E2EC81E08083EAE787E08083E2
:103C1000806880831092BC0510925C0510925E054E
:103C20008091D70081608093D70080EA8093D8008C
:103C300089B5806189BD89B5826089BD09B400FEFE
:103C4000FDCF0E947A048091D8008F7C80618093A0
:103C5000D8008091E000807F8093E0008091E100B7
:103C60008E7E8093E1008DE08093E200559A209A49
:103C70008DED95E090934C0580934B058EEC95E08F
:103C800090934A058093490586EB95E090939D04B7
:103C900080939C0482EA95E09093B1048093B004F1
:103CA00085E090E1909343058093420581EC8093F9
:103CB0007C0085B1806F85B984B1877E84B984B179
:103CC000876E84B95E9A5F988AB1806D8AB9769A58
:103CD0006E9881B3806F81BB899880B38D7080BBF3
:103CE00080E58CBD81E08DBD85E090E00E94BD0641
:103CF0005F9A85E090E00E94BD065E985C98E6EED3
:103D0000F5E083EF95E024912EBD00000DB407FE91
:103D1000FDCF31968E179F07B1F75C9A81E88093AB
:103D20006400809165008160809365000E945D045D
:103D30000E94D80687FF10C05C9885EA8EBD0000FF
:103D40000DB407FEFDCF5C9A2E982F982D9881E038
:103D500083BF889513BEFCCF0E94D80682FF46C061
:103D60002D980E94D80684788438D9F42D9A88EC4E
:103D700090E00E94BD062F9882E090E00E9493237D
:103D80008F3F29F06FEF82E090E00E949B2384EF49
:103D900091E00E94BD062F9A0E94D806847884384C
:103DA000D9F30E94D80684718431D9F42D9A88EC15
:103DB00090E00E94BD062E9882E090E00E9493233E
:103DC000882329F060E082E090E00E949B2384EF4A
:103DD00091E00E94BD062E9A0E94D806847184311B
:103DE000D9F388EC90E00E94BD06B6CF2D9A82E010
:103DF00090E00E949323882309F48FC00E94E50677
:103E000080E18093000180916500877F8093650049
:103E100080916400877F809364001092900089E015
:103E200080939100109280008093810080E00E9436
:103E3000430781E00E9443071092A7041092A60452
:103E40001092A8041092A9041092AA041092AB0434
:103E500090E080E0FC01B3E0EE0FFF1FBA95E1F7C0
:103E6000E854FB4F2081207C20830196803191050E
:103E700089F7E0904905F0904A0500E010E0C7019D
:103E80000E948A23882359F0282F863108F025E1E3
:103E9000121708F4122F0F5F053009F041C000938C
:103EA0004705412F4150550B9A014AEF4203C0018B
:103EB000439F900D112480589F4F9595879580932F
:103EC00048050E94F50910924F050E94F5098FEFF1
:103ED00080934D051092550510925405CE01019620
:103EE0001C01DE011496BB8FAA8F8FB7F894409106
:103EF0009E0450919F046091A0047091A1048FBF13
:103F00008091A404882389F01092A40480E090E0BA
:103F1000892B59F30E940000E8CF0E94E00670CF81
:103F200099270196E80EF91EAACF8091A504B42F17
:103F3000B81B8B2F90910001B91740F48F5F891740
:103F400028F781E083BF889513BEE0CF81E080939E
:103F5000A4044093A5048091A2049091A304019627
:103F60009093A3048093A2041092560500915405E7
:103F700010915505B80190E080E00E94422520E0B4
:103F800030E040E752E40E949A2420E030E040E72D
:103F900052E40E949A2420E030E040E85FE30E946F
:103FA0000D246093500570935105809352059093B2
:103FB00053058091010180934E050E94D80680939D
:103FC0000101D0904F05D1105EC18CE00E946C0AB7
:103FD000F09044058823C1F082E090E00E94932392
:103FE000F81629F06F2D82E090E00E949B230E943A
:103FF0007A232091540530915505822793270E94FA
:104000007F230E94080A51C080E10E946C0A882325
:1040100059F0F110FBC00E94E50680914405882309
:1040200019F088E080934D050E94770A011511056B
:1040300009F0EFC00E946D04C0904B05D0904C0574
:10404000C6010E948A232AEFAC012403B001259FF8
:10405000700D11246A577F4F7695679590E080E048
:104060000E9442259B01AC01E12CF12C00E811E4F7
:10407000B601CE010A960E948C0E80914405E3E0C1
:10408000811101C0E0E00E2E000CFF0BE65AF94F43
:10409000249142E656E06AE370E090E080E00E94FE
:1040A0009503809145058093460500915405109134
:1040B0005505C8018F709927892B11F580914D0501
:1040C0008930D8F4E091B004F091B10478E4E72E9F
:1040D00076E0F72E309739F090E0880F991FE80FBF
:1040E000F91FE590F49080E00E944307F092AD0440
:1040F000E092AC0480E00E946F078FEF80934D0543
:1041000001111AC080914F05813009F0A3C2E091DE
:10411000B004F091B10403EF15E0309719F07296F6
:104120000591149181E00E9443071093AF0400931E
:10413000AE0481E00E946F070E94770A83E08093BB
:1041400046056091A8047091A9048091AA049091F9
:10415000AB040E9413257F936F93ABE2B1E0BF9352
:10416000AF933F922F920E94FC27E12CF12C00E4A8
:1041700010E4A8019701B101CE010A960E94180F20
:1041800088E4898389E48A8380E28B838091A70411
:104190008F938091A6048F939BE2C92E91E0D92E34
:1041A000DF92CF92FB8CFF922A8D2F930E94FC27E7
:1041B00063E0680F3AEF3603B00111246E577F4F6A
:1041C000072E000C880B990B0E9444259B01AC0123
:1041D000E12CF12C00E410E4B101CE010A960E941A
:1041E000180F809145058093460580915405909164
:1041F0005505019690935505809354050E945D04E2
:104200000FB6F894DEBF0FBECDBF80CE0E94E00691
:1042100004CFA0904905B0904A0556E0C52E0E3156
:10422000110509F02ACF80914705D81608F025CF4F
:10423000DC9CB0011124072E000C880B990B0E9406
:1042400044252DEC3CEC4CE052E40E940D242B0163
:104250003C0160914805062E000C770B880B990BEA
:104260000E9444259B01AC0183017201B501CE017E
:104270000A960E948C0EC5010E948A230196A80E00
:10428000B91ED394D0CF51E0D512C9C10E946D049C
:10429000E0914205F0914305099582EB94E09D8FF2
:1042A0008C8F10E000E0680143E0CC0CDD1C4A95E7
:1042B000E1F7D9A2C8A296012E543B4F3F8F2E8F13
:1042C000D90116968C918F7309F0B4C00F5F1F4F00
:1042D000EC8DFD8D3896FD8FEC8F0031110519F7AF
:1042E0000E94770A912C812C8BE2C82E5401AA0CD3
:1042F000BB1CAA0CBB1CF501EE5CFA4F8381887FC6
:1043000009F48FC080812181922F9F737C0128E85E
:10431000E21A23E1F20AFF92EF924BE251E05F933F
:104320004F938F2D8095D10187FD1196CD019F93DD
:10433000AF930E94FC27182F0F900F900F900F90B3
:104340000F900F90F7FC02C0C9821F5FF501EB5C74
:10435000FA4FD080D694D694D694DD9CB001112427
:10436000072E000C880B990B0E94442520E030E0BA
:1043700044E352E40E949A242B013C01F501EC5CD9
:10438000FA4F6081862F829586958770618167706C
:10439000660F660F660F682B70E090E080E00E9469
:1043A00044259B01AC01C301B2010E940D242B01E5
:1043B0003C01E12FE150FF0BCF01880F991F880FBF
:1043C000991F7F01E81AF90AF501ED5CFA4F608147
:1043D000262F229526952695237061816F71660F91
:1043E000660F622B6E0D7F2D711D072E000C880B42
:1043F000990B0E9444259B01AC0183017201B1011C
:10440000CE010A960E94180FF501EE5CFA4F1FE1EB
:10441000F12EDF0CDD0CDD0CDD0C83818770D82ADA
:10442000D3822FEF821A920A34E08316910409F0A6
:104430005DCF37CE28A139A128543B4F6901D9015E
:104440008C91B82FBF73FB2E8295869586958370CD
:10445000F90161816370660F660F682B70E090E070
:1044600080E00E94442520E030E040E851E40E94D2
:10447000B7264B015C016F2D70E090E080E00E9458
:1044800044259B01AC01C501B4010E940D249B0190
:10449000AC010E94B72620E030E040E05AE30E94E1
:1044A000B726AC8DBD8D12962D913D914D915C91AD
:1044B00015970E940D246AA37BA38CA39DA3EC8D6A
:1044C000FD8D62837383848395838FE38F0D8F7358
:1044D000D6019C91907C892B8C93E8A1F9A1E7549B
:1044E000FB4F60816695669570E090E080E00E94E9
:1044F00044252BED3FE049E450E40E94B72620E03C
:1045000030E040E05DE30E94B7266B017C010E9431
:1045100095242B013C01EC8DFD8D608170E090E0D5
:1045200080E00E9442254B015C01A30192016AA137
:104530007BA18CA19DA10E94B7269B01AC01C50166
:10454000B4010E940D244B015C01C701B6010E9419
:1045500024272B013C01AE8DBF8D11968C9187FFD6
:1045600056C0B6E0BE8FC501B4010E940C256B0198
:104570006038710508F0AACEE8A1F9A1ED54FB4F0F
:1045800060816F7770E090E080E00E9442254B01EF
:104590005C01A30192016AA17BA18CA19DA10E9453
:1045A000B7269B01AC01C501B4010E940D240E94F5
:1045B0000C256034710508F089CEDB0193E0B595D8
:1045C000A7959A95E1F7B695BA2FAA27B795A7951B
:1045D000AC0DBD1DA354BA4F67707727C12CD12CE9
:1045E0007601C39404C0CC0CDD1CEE1CFF1C6A9544
:1045F000D2F7A601DE8CED2DDD0CFF0BE65AF94F4C
:10460000E491E23031F48C9148274C935FCE1E8EBA
:10461000AACF8C91842B8C93E130A9F757CE42E03E
:10462000D41243CD0C33110508F43FCD8CE00E9429
:104630006C0A8111E6CC0C32114008F436CD109290
:104640004F058FEF9FEF90935505809354050E947F
:10465000F5092BCD81E00E9443076ECD8F929F928A
:10466000AF92BF92CF92DF92EF92FF92CF93DF9300
:10467000EC01688179818A819B81611571058105D1
:10468000910521F464E279ED8BE597E02DE133EFBC
:1046900041E050E00E94A92349015A019B01AC016D
:1046A000A7EAB1E40E94C8236B017C01ACEEB4EF31
:1046B000A50194010E94D623DC01CB018C0D9D1D28
:1046C000AE1DBF1DB7FF03C00197A109B048888385
:1046D0009983AA83BB839F77DF91CF91FF90EF905F
:1046E000DF90CF90BF90AF909F908F9008950E94E1
:1046F0002E2308958EE091E00E942E230895B0E0CD
:10470000A0E080930E0190930F01A0931001B0934D
:1047100011010895FC0105900020E9F7809590951E
:104720008E0F9F1F0895F999FECF92BD81BDF89A13
:10473000992780B50895262FF999FECF1FBA92BD0B
:1047400081BD20BD0FB6F894FA9AF99A0FBE019672
:104750000895052E97FB1EF400940E94C02357FD78
:1047600007D00E94DB2307FC03D04EF40C94C02337
:1047700050954095309521953F4F4F4F5F4F08958D
:1047800090958095709561957F4F8F4F9F4F0895BD
:104790000E94FD23A59F900DB49F900DA49F800DB6
:1047A000911D11240895B7FF0C94C8230E94C823BB
:1047B000821B930B0895A1E21A2EAA1BBB1BFD01BD
:1047C0000DC0AA1FBB1FEE1FFF1FA217B307E407F0
:1047D000F50720F0A21BB30BE40BF50B661F771F48
:1047E000881F991F1A9469F7609570958095909528
:1047F0009B01AC01BD01CF010895A29FB001B39F01
:10480000C001A39F700D811D1124911DB29F700DD9
:10481000811D1124911D08955058BB27AA270E947D
:1048200024240C944C260E94132638F00E941A2649
:1048300020F039F49F3F19F426F40C9410260EF45E
:10484000E095E7FB0C94E125E92F0E94712658F3CF
:10485000BA17620773078407950720F079F4A6F565
:104860000C94AB260EF4E0950B2EBA2FA02D0B0165
:10487000B90190010C01CA01A0011124FF27591BA5
:1048800099F0593F50F4503E68F11A16F040A22FAB
:10489000232F342F4427585FF3CF4695379527951C
:1048A000A795F0405395C9F77EF41F16BA0B620B1B
:1048B000730B840BBAF09150A1F0FF0FBB1F661F62
:1048C000771F881FC2F70EC0BA0F621F731F841FA5
:1048D00048F4879577956795B795F7959E3F08F0CB
:1048E000B0CF9395880F08F09927EE0F979587958D
:1048F00008950E94932690F09F3748F4911116F482
:104900000C94AC2660E070E080E89FE3089526F008
:104910001B16611D711D811D0C94E7250C94022648
:104920000E94BD2508F481E008950E942326E395A6
:104930000C945D260E94AE240C944C260E941A26EC
:1049400058F00E94132640F029F45F3F29F00C94A0
:10495000E12551110C94AC260C9410260E9471266E
:1049600068F39923B1F3552391F3951B550BBB279E
:10497000AA2762177307840738F09F5F5F4F220FE3
:10498000331F441FAA1FA9F335D00E2E3AF0E0E8DA
:1049900032D091505040E695001CCAF72BD0FE2F24
:1049A00029D0660F771F881FBB1F261737074807B8
:1049B000AB07B0E809F0BB0B802DBF01FF27935870
:1049C0005F4F3AF09E3F510578F00C94E1250C942E
:1049D000AC265F3FE4F3983ED4F3869577956795D0
:1049E000B795F7959F5FC9F7880F911D96958795A5
:1049F00097F90895E1E0660F771F881FBB1F6217C4
:104A000073078407BA0720F0621B730B840BBA0B81
:104A1000EE1F88F7E09508950E9413256894B11160
:104A20000C94AC2608950E94792688F09F5798F040
:104A3000B92F9927B751B0F0E1F0660F771F881FA3
:104A4000991F1AF0BA95C9F714C0B13091F00E94BD
:104A5000AB26B1E008950C94AB26672F782F8827FA
:104A6000B85F39F0B93FCCF3869577956795B395E4
:104A7000D9F73EF490958095709561957F4F8F4F53
:104A80009F4F0895E89409C097FB3EF49095809558
:104A9000709561957F4F8F4F9F4F9923A9F0F92F04
:104AA00096E9BB279395F695879577956795B79582
:104AB000F111F8CFFAF4BB0F11F460FF1BC06F5F68
:104AC0007F4F8F4F9F4F16C0882311F096E911C07A
:104AD000772321F09EE8872F762F05C0662371F09B
:104AE00096E8862F70E060E02AF09A95660F771FAF
:104AF000881FDAF7880F9695879597F90895990F8B
:104B0000BB0B550FAA0BE0E8FEEF16161706E807D9
:104B1000F90770F012161306E407F50760F0BA17EC
:104B20003CF049F46217730784079507A7951BF4B7
:104B3000B901CA01BA2FB69597950895990FBB0B85
:104B4000550FAA0BE0E8FEEF16161706E807F9075F
:104B500070F012161306E407F50760F0BA1754F068
:104B600031F42617370748075907A7951BF4B901F1
:104B7000CA01BA2FB69597950895990F0008550F59
:104B8000AA0BE0E8FEEF16161706E807F907C0F0D3
:104B900012161306E407F50798F0621B730B840BDB
:104BA000950B39F40A2661F0232B242B252B21F4B5
:104BB00008950A2609F4A140A6958FEF811D811D55
:104BC000089597F99F6780E870E060E00895882372
:104BD00071F4772321F09850872B762F07C0662336
:104BE00011F499270DC09051862B70E060E02AF0F7
:104BF0009A95660F771F881FDAF7880F9695879525
:104C000097F908959F3F31F0915020F4879577955B
:104C10006795B795880F911D9695879597F9089593
:104C20009FEF80EC089500240A94161617061806C4
:104C30000906089500240A941216130614060506A0
:104C400008950C9410260E947926D8F3E894E0E0A9
:104C5000BB279F57F0F02AED3FE049EC06C0EE0F6E
:104C6000BB0F661F771F881F28F0B23A62077307D1
:104C7000840728F0B25A620B730B840BE3959A9564
:104C800072F7803830F49A95BB0F661F771F881F24
:104C9000D2F790480C940426092E0394000C11F4CA
:104CA000882352F0BB0F40F4BF2B11F460FF04C007
:104CB0006F5F7F4F8F4F9F4F0895EF93E0FF07C0C7
:104CC000A2EA2AED3FE049EC5FEB0E9424240E9417
:104CD0004C260F90039401FC9058ECEAF0E00C9401
:104CE000792757FD9058440F551F59F05F3F71F0D9
:104CF0004795880F97FB991F61F09F3F79F0879543
:104D00000895121613061406551FF2CF4695F1DFCB
:104D100008C0161617061806991FF1CF869571055B
:104D20006105089408950E947926A0F0BEE7B9179E
:104D300088F4BB279F3860F41616B11D672F782FB3
:104D40008827985FF7CF869577956795B11D9395DE
:104D50009639C8F30895E894BB2766277727CB01D7
:104D600097F908950E94BD2508F48FEF08950E94D9
:104D7000CA260C944C260E94132638F00E941A264C
:104D800020F0952311F00C94E1250C9410261124A9
:104D90000C94AC260E94712670F3959FC1F3950F79
:104DA00050E0551F629FF001729FBB27F00DB11DAF
:104DB000639FAA27F00DB11DAA1F649F6627B00D3F
:104DC000A11D661F829F2227B00DA11D621F739F28
:104DD000B00DA11D621F839FA00D611D221F749F36
:104DE0003327A00D611D231F849F600D211D822F7D
:104DF000762F6A2F11249F5750409AF0F1F08823A4
:104E00004AF0EE0FFF1FBB1F661F771F881F9150D0
:104E10005040A9F79E3F510580F00C94E1250C9479
:104E2000AC265F3FE4F3983ED4F38695779567957B
:104E3000B795F795E7959F5FC1F7FE2B880F911DFA
:104E40009695879597F908959F930E9423260F9032
:104E500007FCEE5F0C945D2619F416F40C941026F2
:104E60000C9402260E947926B8F39923C9F3B6F36D
:104E70009F57550B87FF0E9472270024A0E640EA47
:104E8000900180585695979528F4805C660F771F9F
:104E9000881F20F026173707480730F4621B730B72
:104EA000840B202931294A2BA69517940794202595
:104EB00031254A2758F7660F771F881F20F02617DD
:104EC0003707480730F4620B730B840B200D311D3C
:104ED000411DA09581F7B901842F9158880F9695AF
:104EE0008795089591505040660F771F881FD2F71D
:104EF00008959F938F937F936F93FF93EF939B01FD
:104F0000AC010E94B726EF91FF910E948D272F914F
:104F10003F914F915F910C94B726DF93CF931F93EE
:104F20000F93FF92EF92DF927B018C01689406C091
:104F3000DA2EEF010E94CA26FE01E894A591259180
:104F4000359145915591A6F3EF010E942424FE016D
:104F50009701A801DA9469F7DF90EF90FF900F9125
:104F60001F91CF91DF91089587FB082E062687FDBC
:104F7000819567FD61950E94D6270EF4919507FCF7
:104F80008195089597FB072E16F4009407D077FDBE
:104F900009D00E94E22707FC05D03EF49095819548
:104FA0009F4F0895709561957F4F0895991B79E003
:104FB00004C0991F961708F0961B881F7A95C9F7A9
:104FC00080950895AA1BBB1B51E107C0AA1FBB1FF8
:104FD000A617B70710F0A61BB70B881F991F5A9585
:104FE000A9F780959095BC01CD010895EE0FFF1FA4
:104FF0000590F491E02D0994AEE0B0E0E2E0F8E233
:105000000C94AB2A0D891E8986E08C831A83098350
:105010008FEF9FE79E838D83AE01475E5F4F6F8961
:10502000788DCE0101960E941F282F813885020FAE
:10503000131FF80110822E96E4E00C94C72AABE00F
:10504000B0E0E5E2F8E20C949D2A7C013B018A0184
:10505000FC0117821682838181FFC8C1CE010196AF
:105060005C01F7019381F30193FD859193FF819199
:105070003F01882309F453C1853239F493FD8591AA
:1050800093FF81913F01853229F4B70190E00E949E
:105090000F2AE7CF912C212C312CFFE1F31538F0AA
:1050A0008B3211F190F4803209F1833229F137FC0F
:1050B0003CC020ED280F2A3050F536FE20C08AE093
:1050C000989E200D1124922E06C08D3291F08033CF
:1050D00071F7689430F8F30193FD859193FF819106
:1050E0003F018111DACF21C0689431F8689432F819
:1050F000F2CF689433F8EFCF689434F8ECCFEAE05D
:105100002E9E200D1124222E689435F8E4CF8E3285
:1051100029F436FC04C1689436F8DDCF8C3619F4D6
:10512000689437F8D8CF8836B1F2982F9F7D955480
:105130009330E0F08336A1F18337C1F1833509F074
:1051400063C02801F2E04F0E511CF801C080D180ED
:10515000692D70E036FC02C06FEF7FEFC6010E9440
:10516000F9294C01689437F882010AC00C5F1F4F7F
:10517000FFE3F98388248394912C6501E89437F840
:1051800033FE2DC0522C8114910471F5552009F481
:1051900068CFB70180E290E00E940F2A5A94F6CFC0
:1051A000F801808189830E5F1F4FE4CF2801F2E070
:1051B0004F0E511CF801C080D180692D70E036FC83
:1051C00002C06FEF7FEFC6010E94042A4C018201EA
:1051D000D5CFB70180E290E00E940F2A2A942814CC
:1051E000190409F0B0F7CECFF60137FC859137FEF0
:1051F00081916F01B70190E00E940F2A51105A94DB
:10520000F1E08F1A9108BFCF843619F0893609F082
:1052100077C0F80137FE6BC0608171818281938114
:105220000C5F1F4FF32DFF763F2E97FF09C090951F
:105230008095709561957F4F8F4F9F4F689437F899
:105240002AE030E0A5010E943F2AC82ECA188C2C03
:10525000432C36FE0CC0E89440F8C91440F434FEE8
:1052600005C032FC03C0F32DFE7E4F2E892C44FE78
:1052700095C0FE01EC0DF11D8081803309F087C0DF
:10528000242D297E422E842D8870582E43FC95C0F3
:1052900040FE8FC09C2C821418F42C0C922C981871
:1052A00044FE91C0B70180E390E00E940F2A42FEC5
:1052B00009C088E790E041FE02C088E590E0B701B0
:1052C0000E940F2AC91408F48AC0CA94D12C9FEFF7
:1052D000C91AD90ACA0CDB1CF60182916F01B70109
:1052E00090E00E940F2AAC14BD04B1F74FCF60814B
:1052F0007181072E000C880B990B0E5F1F4F92CF08
:10530000D32CE894D4F82AE030E0853739F1232D06
:10531000297FD22E8F3601F148F48835A9F0F701A4
:10532000868197812B96E2E10C94B92A803749F067
:105330008837A9F7D4FE02C06894D2F820E130E0A3
:105340000DC06894D4F8F6CF34FE03C0822F866077
:10535000D82E20E132E002C028E030E0F801D7FE8C
:105360000FC060817181828193810C5F1F4FA50105
:105370000E943F2AC82ECA183D2CE89437F867CF00
:105380006081718190E080E00E5F1F4FF0CF42FCA2
:1053900002C0839478CF8394839475CF842D8678CC
:1053A00009F471CFF6CFB70180E290E00E940F2A96
:1053B00083948214C0F3512C73CF522C581882144A
:1053C00008F46ECFF8CF842D867809F47BCF8BE27A
:1053D00041FE80E247FC8DE2B70190E071CFB7015A
:1053E00080E390E00E940F2A9A946CCF8FEF9FEF9A
:1053F00099CFFC010590615070400110D8F780955D
:1054000090958E0F9F1F0895FC0161507040019090
:105410000110D8F7809590958E0F9F1F08950F93D8
:105420001F93CF93DF93182F092FEB018B8181FD01
:1054300009C01FEF0FEF812F902FDF91CF911F91A8
:105440000F91089582FF14C02E813F818C819D8130
:10545000281739073CF4E881F981CF010196998337
:10546000888310838E819F8101969F838E83E3CFF3
:10547000E885F985812F0995892BA1F3DACFFA0107
:10548000AA27283051F1203181F1E8946F936E7F83
:105490006E5F7F4F8F4F9F4FAF4FB1E03ED0B4E074
:1054A0003CD0670F781F891F9A1FA11D680F791FB5
:1054B0008A1F911DA11D6A0F711D811D911DA11DC6
:1054C00020D009F468943F912AE0269F11243019D6
:1054D000305D3193DEF6CF010895462F4770405D71
:1054E0004193B3E00FD0C9F7F6CF462F4F70405D20
:1054F0004A3318F0495D31FD4052419302D0A9F77B
:10550000EACFB4E0A6959795879577956795BA9574
:10551000C9F700976105710508959B01AC010A2E3A
:1055200006945795479537952795BA95C9F7620F11
:10553000731F841F951FA01D08952F923F924F92B5
:105540005F926F927F928F929F92AF92BF92CF9213
:10555000DF92EF92FF920F931F93CF93DF93CDB71C
:10556000DEB7CA1BDB0B0FB6F894DEBF0FBECDBF94
:1055700009942A88398848885F846E847D848C8465
:105580009B84AA84B984C884DF80EE80FD800C816E
:105590001B81AA81B981CE0FD11D0FB6F894DEBF51
:0C55A0000FBECDBFED010895F894FFCFC1
:1055AC0010FFFFFFFFFF00E1000000000000010002
:1055BC00000000C18081000000000000007705F6AB
:0E55CC000498058D05DE059C05BA05256400D2
:00000001FF
