:100000000C94A0030C94C8030C94C8030C94C8036C
:100010000C94C8030C94C8030C94C8030C94C80334
:100020000C94C8030C94C8030C9409120C94781215
:100030000C94C8030C94C8030C94C8030C94C80314
:100040000C94C8030C94F4140C94C8030C94C803C7
:100050000C94C8030C94C8030C94C8030C94AA1401
:100060000C94C8030C94C8030C94C8030C94C803E4
:100070000C94C8030C94C8030C94C8030C94C803D4
:100080000C9443150C94C8030C94C8030C94C80337
:100090000C94C8030C94C8030C94C8030C94C803B4
:1000A0000C94C8030C94C8030C94C80305A84CCD49
:1000B000B2D44EB93836A9020C50B9918688083CA2
:1000C000A6AAAA2ABE000000803F904200858002B6
:1000D0009B90420085800085903E00868001909034
:1000E0003E0085800085903E008680008590370028
:1000F0008580029B904C0085800086904900858019
:100100000190904200858000869049008580E090B3
:100110004A0021800021904E002280F0902C001097
:100120009024001190240011902E001090280011AE
:10013000902900119030001090240011901E0011A1
:100140009025001090320011902C0011903C00106E
:10015000903B0011903E001180F0903E00329040A4
:10016000005380F09046004290370011903A001101
:10017000903D0010904000119043001190460010F7
:1001800090490011904C0011904F001090520011B6
:100190009055001180F09048001090470011904554
:1001A00000119044001090440011904200119043BF
:1001B00000109042001180F0904F0010904B001101
:1001C000904700119043001090490011904C00118D
:1001D000904F00109052001190550011905800104F
:1001E000905B0011905E0011905800109052001129
:1001F000905100119054001090570011905A001126
:10020000905D00109060001180F0905500109046B5
:10021000001190410011903B0010902B0011903D77
:100220000011903D0010903A0011902C0011903F69
:10023000001090440011903D001190390010903052
:100240000011903000119033001090290011902778
:100250000011902C0010902D001190340011902B63
:10026000001090270011902A001180F09048001093
:10027000904E0011904D00119043001090470011D6
:1002800090460011903F001090400011903D0011E9
:10029000903B0010903A001180F0904E00749057FF
:1002A000008680F047414D45204F564552000000E2
:1002B000002E000000000600060000143E143E144C
:1002C00000042A3E2A1000261008043200142A2CAA
:1002D000102800000006000000001C2200000000A2
:1002E000221C00000014083E08140008083E0808FC
:1002F0000000201000000008080808080000002086
:100300000000002010080402001C322A261C0024D1
:10031000223E20200024322A2A240014222A2A14D1
:10032000001814123E10002E2A2A2A12001C2A2A13
:100330002A10000622120A0600142A2A2A1400048F
:100340002A2A2A1C000000140000000020140000CB
:10035000000814142222001414141414002222146D
:1003600014080004022A0A04001C222A2A0C003C59
:100370000A0A0A3C003E2A2A2A14001C22222214BD
:10038000003E2222221C003E2A2A2A22003E0A0A7D
:100390000A02001C22222A18003E0808083E0022F9
:1003A000223E2222001020221E02003E08081422B3
:1003B000003E20202020003E0408043E003E0408A9
:1003C000103E001C2222221C003E0A0A0A04001CC5
:1003D0002222323C003E0A0A0A3400242A2A2A1227
:1003E0000002023E0202001E2020201E000E1020ED
:1003F000100E001E201C201E0022140814220002D1
:10040000043804020022322A26220000003E220084
:10041000000204081020000000223E000000040238
:100420000400002020202020000000040800001804
:1004300024243C00003E2828100000182424240016
:10044000001028283E000018342C08000000083C4A
:100450000A0000042A2A1C0000003E0830000000A8
:10046000003400000000201A000000003E102800A8
:100470000000223E2000003C041C0438003C040420
:100480003800001824241800003C14140800000848
:1004900014143C00003C0804040000282C34140010
:1004A0000000081C2800001C20203C00000C3030FC
:1004B0000C00001C2018201C002418182400002404
:1004C000180804000024342C240000000836220000
:1004D0000000003E0000000022360800000804086A
:1004E000100806011501260137014A015D0172015C
:1004F00088019F01B801D201EE010B022A024B02D2
:100500006E029302BA02E40210033F037003A403D5
:10051000DC03170455049704DD0427057505C80599
:1005200020067D06E0064907B8072D08A9082D0911
:10053000B9094D0AEA0A900B400CFA0CC00D910E55
:100540006F0F5A1053115B1272139A14D41520179F
:100550008018F519801B231DDE1EB420A622B524A9
:10056000E4263429A72B402E0031EA330037453AE0
:10057000BC3D68414C456B49C84D68524F57805C43
:10058000006210111213151617181A1C1D1F2123B3
:100590002527292C2E3134373A3E4145494E5257B2
:1005A0005C62686E757B838B939CA5AFB9C4D0DC0D
:1005B000E9F79A026C020A02B801960164015A0135
:1005C0001C010F01CA000C1E3F33212100662121AE
:1005D000333F1E0C00660C1E3F333312006612338D
:1005E000333F1E0C00660C1E3F3F1E0C00660C1EA7
:1005F0003F3F1E0C0066301E3D1F2D020066022D7F
:100600001F3D1E300066003E1D3F1D020165021D9C
:100610003F1D3E00006500000C0C00002222000C73
:100620001E1E0C0011440000020002001213000202
:100630000002000011135B427574746F6E5D2054EC
:1006400075726E000050414B552050414B5500D5FE
:10065000F08D14A1C881CFD9F1AF2000903C008566
:10066000800085903E008680008590400085800156
:1006700090904100868000859040008580008590A4
:100680003E008680019090390085800085903B0077
:1006900086800085903C0085800190903E00868099
:1006A0000085903C0085800085903B00868001900D
:1006B000E090480010904B0011904E0011905100B6
:1006C0001080F0353509320438080B0002020200B0
:1006D00000090400000102020000052400100105C9
:1006E00024010101042402060524060001070581F6
:1006F0000310004009040100020A0000000705027F
:1007000002400000070583024000000403090412B0
:10071000010002EF02014041233680000101020383
:100720000141726475696E6F204C4C4300417264E4
:1007300075626F790000000001010102020093154B
:1007400011241FBECFEFDAE0DEBFCDBF11E0A0E085
:10075000B1E0EEE1F4E402C005900D92A033B107E0
:10076000D9F729E0A0E3B1E001C01D92A535B20799
:10077000E1F713E0C0EAD3E004C02197FE010E9434
:100780002F1FCF39D107C9F70E94A8150C940D224D
:100790000C940000AF92BF92CF92DF92EF92FF9243
:1007A0000F931F93CF93DF936C01FC013596E538CF
:1007B000F10508F041C0FB013596E534F105E0F59F
:1007C000DB0177FF04C0AA27BB27A61BB70BA770C6
:1007D000BB27EB0177FD2796E3E0D595C795EA9512
:1007E000E1F777FF07C0219768E070E0FB01EA1BA3
:1007F000FB0BDF01BE017695762F6627779567950F
:100800005B01A80EB91E60587F4F860F971F70E0DE
:1008100060E0E8E0F0E07F01EA1AFB0AF0E8CF16BA
:10082000D10451F0D7FE13C06F5F7F4F3FEFC31A63
:10083000D30A6630710591F7DF91CF911F910F9127
:10084000FF90EF90DF90CF90BF90AF900895CF3F93
:10085000DC07D1F4109709F036C0E6CFE491F0E060
:100860000E2C02C0F595E7950A94E2F7E095F09515
:100870003E2341C0E491F0E00E2C02C0F595E795CF
:100880000A94E2F73E2B37C08501060F171F0B5A5B
:100890001A4FF8013081FA01E60FF71F213009F4F1
:1008A00039C0222359F1E4910A2E01C0EE0F0A94B7
:1008B000EAF73E27F8013083109709F4B5CFC73027
:1008C000D10509F4B1CF8B01080F191F0B5A1A4F2C
:1008D000F8013081FA01E60FF71F213059F2222387
:1008E00009F4BCCFE491F0E00E2C02C0F595E79539
:1008F0000A94E2F73E27F801308396CFE491F0E0C6
:100900000A2E02C0EE0FFF1F0A94E2F7E095F09561
:100910003E23D0CFE4910A2E01C0EE0F0A94EAF7ED
:100920003E2BC8CFE5E5F5E080E0A0E0B8E0008030
:100930000EBC8111012C1197A0FDFDCF0192B9F7DA
:100940000DB4089580E0E5E5F5E081118FEF002416
:1009500081938193819381930394D1F70895E1E08A
:10096000F0E00E94C404319728F068517C4F8F4F0B
:100970009F4FF9CFAB01FC010E94C40464177507B7
:100980008E079F07C8F30895A6EDB1E02FB7F8943E
:100990007D918D919C9166B52FBFA89B05C06F3F3F
:1009A00018F47F5F8F4F9F4F22E0660F771F881FDD
:1009B000991F2A95D1F70895FC018091F8028823A8
:1009C00011F13FB7F89482E08093E9002091F200A2
:1009D000822F90E01816190614F481E090E0882325
:1009E00039F0289844E64093F7024091F1004083A3
:1009F000222339F02091F200211103C02BE620932D
:100A0000E8003FBF08958FEF9FEF08952FB7F89448
:100A100083E08093E9009091E800892F807295FF30
:100A200004C09091F20080E4891B2FBF089580914B
:100A3000EF0281110DC082E08093EB0284E080938D
:100A4000EC021092EE021092ED0281E08093EF0230
:100A50008BEE92E008958F929F92AF92BF92CF92C9
:100A6000DF92EF92FF920F931F93CF93DF936C016E
:100A70007B018A0180910D01882309F458C080917F
:100A8000F802882309F453C080919A0280FF05C0C0
:100A90008091E00082608093E000E801B12C8AEF51
:100AA000A82E93E0892E2AE3922E209711F4BB20E2
:100AB000B9F10E940605811106C0AA94AA20B9F1D5
:100AC0000E94AF04F2CF8C171D0611F00CF08C2F92
:100AD0009FB7F8948092E9002091E80025FD02C0BC
:100AE0009FBFE3CF282F30E0C21BD30BF70181500B
:100AF00020F041914093F100FACFE20EF31EBB20AB
:100B000021F09092E800B12CEBCF8091E80085FDB8
:100B1000E7CF9092E800BB24B394209709F3F3CF7A
:100B20005D9884E680939902101611063CF081E0EE
:100B300090E0F6019383828310E000E0C801DF912A
:100B4000CF911F910F91FF90EF90DF90CF90BF90CA
:100B5000AF909F908F900895CF93DF931F92CDB762
:100B6000DEB76983DC01ED91FC910280F381E02D19
:100B700041E050E0BE016F5F7F4F09950F90DF911C
:100B8000CF91089583E08093E9008091F20088235B
:100B900019F08AE38093E80008950E94060590E02A
:100BA0000895CF93DF931F92CDB7DEB7FC01848504
:100BB000958597FD08C02FEF3FEF358724870F906D
:100BC000DF91CF910895CE0101960E94DC04019738
:100BD00019F4898190E0F3CF8FEF9FEFF0CF0F935F
:100BE0001F93CF93DF931F92CDB7DEB78C01FC012B
:100BF0008485958597FF0BC0CE0101960E94DC0489
:100C0000019771F4898190E0F80195878487F80154
:100C1000848595850F90DF91CF911F910F91089555
:100C20008FEF9FEFF1CFFC018485958597FD0BC079
:100C30009FB7F89482E08093E9008091F2009FBF13
:100C400090E0019608959FB7F89482E08093E900C0
:100C50008091F2009FBF90E00895409195025091DD
:100C60009602209193023091940242175307B4F4F4
:100C70009091E8009570E1F39091E80092FD19C021
:100C80008093F100809195029091960201968F7366
:100C90009927892B19F48EEF8093E80080919502B3
:100CA000909196020196909396028093950281E02E
:100CB000089580E00895EF92FF920F931F93CF93D2
:100CC000DF93F82E192FE62E042F81E0860F880F70
:100CD0000E942D0683E00E942D06CF2DD12FEC0E11
:100CE000FD2EF11CCE15DF05B9F007FF13C0FE0184
:100CF00084910E942D06182F80E00E942D068123EA
:100D000021968111EFCFDF91CF911F910F91FF902D
:100D1000EF9008958881EDCF81E0F5CFDF92EF92DB
:100D2000FF920F931F93CF93DF93D82E8A01EB018D
:100D30007B01E40EF51ECE15DF0559F0D7FE12C07B
:100D4000FE0184910E942D0621968111F4CF0FEFB0
:100D50001FEFC801DF91CF911F910F91FF90EF908E
:100D6000DF9008958881EECF0F931F93CF93DF9389
:100D70001F92CDB7DEB782E0898342E450E069EC90
:100D800076E080E80E948E060E941705DC0112962C
:100D90000D911C910115110589F0D801ED91FC917F
:100DA0000280F381E02DBE016F5F7F4FC80109957E
:100DB00097FD04C0F80100851185ECCF89810F9063
:100DC000DF91CF911F910F910895615030F02091E4
:100DD000F100FC0120830196F8CF289884E68093E7
:100DE000F7020895BC0190E080E0AB01FC010E9495
:100DF000C40441505109E109F10928F068517C4FC0
:100E00008F4F9F4FF6CFAB01FC010E94C4046417C3
:100E100075078E079F07C8F308958FB18095807F6F
:100E2000669B88601C9B84600895109282023E98A5
:100E30003F9808953E9A3F9A81E0809382020895F8
:100E4000CF92DF92EF92FF92CF93C82F6B01F12CDC
:100E5000E12C60E074E284EF90E0A70196010E942B
:100E6000791B215031094109510991E021153105C2
:100E700081E0480751056CF060E970ED83E090E097
:100E8000A70196010E94791B21503109410951099E
:100E900093E0C130C9F080919100887F892B8093C5
:100EA0009100309399002093980010929500109231
:100EB000940080917100826080937100CF91FF90C7
:100EC000EF90DF90CF90089580918100887F892BEB
:100ED00080938100309389002093880010928500D0
:100EE0001092840080916F00826080936F00E6CF43
:100EF000282F823009F1E82FF0E08130F1F0809165
:100F000071008D7F8093710046983091D30181E00C
:100F100090E0A0E0B0E004C0880F991FAA1FBB1F9B
:100F20002A95D2F7809583238093D301EE0FFF1F7C
:100F3000E651FE4F11821082089580916F008D7FDF
:100F400080936F004798E1CFAF92BF92DF92EF920C
:100F5000FF920F931F93CF93DF93E82EC82FD0E01B
:100F600081E090E0A0E0B0E00E2C04C0880F991F53
:100F7000AA1FBB1F0A94D2F7D82EF82EF0948E0128
:100F8000000F111F06511E4FD801ED91FC911197D2
:100F9000309709F46AC0CF01019611969C938E9305
:100FA0002491203981F53296ED93FC93FC018491D4
:100FB00087FF0FC08091D3018F218093D30168EE0A
:100FC00073E08E2D0E94200798EEA92E93E0B92E93
:100FD000DBCFE82FF0E0803378F4EE57FA4FE4915E
:100FE000AE2EB12C8091D3018D298093D301B50110
:100FF0008E2D0E942007C8CFEE0FFF1FEE57FB4F2C
:10100000A590B490EFCF2038A9F227FD38C03296D2
:10101000ED93FC93FC018491322F282FD5010E947F
:10102000CD1B6C507E4F8F4F9F4F28EE33E040E03A
:1010300050E00E94AB1BCC0FDD1FCC0FDD1FC55352
:10104000DE4F288339834A835B8388819981AA8113
:10105000BB81892B8A2B8B2B41F481E090E0A0E0AF
:10106000B0E088839983AA83BB83DF91CF911F91DE
:101070000F91FF90EF90DF90BF90AF9008952F7E7B
:10108000203E09F081CF8E2DDF91CF911F910F91DE
:10109000FF90EF90DF90BF90AF900C9478074F9245
:1010A0005F926F927F928F929F92AF92BF92CF92F8
:1010B000DF92EF92FF920F931F93CF93DF93A09055
:1010C0005405A9EFB2E0B12C062E000C770B30E0EE
:1010D000319521953109042E000C550B10E0119526
:1010E00001951109C12CD12C7601C394BA1011C0FD
:1010F000DF91CF911F910F91FF90EF90DF90CF90F4
:10110000BF90AF909F908F907F906F905F904F9027
:1011100008951296CC91129713967C90139714967B
:10112000DC9114971196EC9111974B018E1A91084E
:10113000E7FD9394281539058CF57814190471F19D
:101140006CF1FA01EC1BF109C7FDF3950E171F07AF
:101150002CF5C1E0DE171F0609F00CF4C0E0EC2FFF
:10116000E0FF19C0CC91EC2FE295EF70F0E0EE0FAC
:10117000FF1FE80FF91FCF702601370104C0440C90
:10118000551C661C771CCA95D2F7C081D181C42931
:10119000D529D183C083B3941596A8CFE0E0E0CFE2
:1011A0003F924F925F926F927F928F929F92AF92F7
:1011B000BF92CF92DF92EF92FF920F931F93CF9344
:1011C000DF9300D000D000D01F92CDB7DEB78D8363
:1011D00049835A836B837C83280139018E2C9C2C94
:1011E0003090510587E0831508F457C020E030E0C7
:1011F00040EC50EC69817A818B819C810E942A1E8F
:1012000018160CF04AC020E030E040E053E4698159
:101210007A818B819C810E94491C87FF3EC020E01F
:1012200030E040EC50ECC301B8010E942A1E1816B1
:10123000A4F520E030E040E852E4C301B8010E9488
:10124000491C87FF2AC09D81092F10E0CC2009F49A
:10125000B5C00152110926E0209FC001219F900DC9
:1012600011248C0102551D4FE32D032C000CFF0BA4
:10127000EB5CF84F84918E83C301B2010E94C51CC0
:101280006B0169817A818B819C810E94C51CCB0195
:101290002E81A801B6010E94CA03809152058823BD
:1012A00009F474C0882009F471C020E030E040E8FF
:1012B00052EC69817A818B819C810E942A1E87FD74
:1012C0008BC020E030E040E453E469817A818B8177
:1012D0009C810E94491C87FF7FC020E030E040E8ED
:1012E00052ECC301B2010E942A1E87FD75C091E035
:1012F0009E8320E030E040E053E4C301B2010E944D
:10130000491C87FF1E828E8180FF40C0992009F40E
:1013100065C037EEF32E8D81F80E20E030E040E816
:101320005FE369817A818B819C810E94DD1B0E9431
:10133000C51C6D8320E030E040E85FE3C301B201EB
:101340000E94DD1B0E94C51CD62E95E0998345E0C6
:10135000E42E09812E2D4D2D6D81C5010E944F086F
:1013600037FC14C080915405883780F495E0899F3C
:10137000F0011124E750FD4FF0829D819183D282CC
:10138000E382998194838F5F8093540527960FB6EB
:10139000F894DEBF0FBECDBFDF91CF911F910F91AB
:1013A000FF90EF90DF90CF90BF90AF909F908F9085
:1013B0007F906F905F904F903F9008950156104E30
:1013C00053E0000F111F5A95E1F78091DA019091D7
:1013D000DB01080F191F48CF80E096CF85E0F82E7B
:1013E0008D81F80E90E08156904E23E0880F991F72
:1013F0002A95E1F7E091DA01F091DB01E80FF91F9E
:10140000369605911491602F6F7070E090E080E047
:101410000E94FD1C29813A814B815C810E94DD1B69
:101420000E94C51C6D83602F62956F7070E090E024
:1014300080E00E94FD1CA30192010E94DD1B0E941E
:10144000C51CD62E812F8F70E82E912F92959F70FC
:1014500099837FCF83E08093510581E0809352058B
:101460000895CF92DF92EF92FF9281E080938C02F9
:10147000C090E601D090E701E090E801F090E9012A
:101480006091E4017091E50190E080E00E94FB1C16
:10149000A70196010E94491C87FF08C0C701B60139
:1014A0000E94CC1C7093E5016093E4011092E60168
:1014B0001092E7011092E8011092E9018091730205
:1014C0008770809373028091770287708093770290
:1014D00080917B02877080937B0280917F0287706E
:1014E00080937F021092CA0190E080E0FC0123E02B
:1014F000EE0FFF1F2A95E1F7EA50FE4F2081207C76
:10150000208301968031910589F70E942A0A8FEF86
:1015100080938A028FEF9FEF9093920280939102C3
:10152000FF90EF90DF90CF90089590918B0290956F
:10153000209101019223982381E009F480E008952D
:10154000809151058093830283E080935105089533
:10155000E62F262F22952F7030E0220F331F820FA7
:10156000931FDC014D915C9170E060E0EF7081E0D1
:1015700090E0A0E0B0E004C0880F991FAA1FBB1F35
:10158000EA95D2F784239523A623B72321E0892B5C
:101590008A2B8B2B09F420E0822F0895CF93DF93C1
:1015A000EC0166E60E94A80A811120C067E6CE0120
:1015B0000E94A80A81111AC068E6CE010E94A80AFA
:1015C000811114C069E6CE010E94A80A81110EC0E3
:1015D0006AE6CE010E94A80A811108C06BE6CE011E
:1015E0000E94A80A8170DF91CF91089581E090E078
:1015F000F9CFDF92EF92FF920F931F93CF93DF9378
:1016000020E030E040E852E46091C2017091C301F3
:101610008091C4019091C5010E942A1E1816ECF514
:101620000E944A1B67E070E00E94071FC1E0C80FDC
:1016300007E311E084E0E82EF12CD0E0DD24D39420
:10164000B7010F2C000C880B990B0E94FD1CF801B0
:10165000608371838283938381E0CD1380E0F801FE
:101660008483D582DF5FF6E0EF0EF11C0A5F1F4F27
:10167000D53131F7D09336018091BB019091BC01F7
:1016800001969093BC018093BB01DF91CF911F9194
:101690000F91FF90EF90DF9008950E944A1B67E042
:1016A00070E00E94071FCDE0C2CF20E1FC01119243
:1016B0002A95E9F708952F923F924F925F926F9289
:1016C0007F928F929F92AF92BF92CF92DF92EF92D2
:1016D000FF920F931F93CF93DF93CDB7DEB767973A
:1016E0000FB6F894DEBF0FBECDBF4C017A8B698B6D
:1016F00029013A016701CE0101960E94550B8989A3
:101700009A890E945A1B8B8B20E030E040E450E421
:10171000C301B2010E94DC1B2B013C0120E030E040
:1017200040E450E4C801B6010E94DC1B6C8B7D8B49
:101730008E8B9F8B312C212C8B89281610F180E108
:10174000FE013196D40101900D928A95E1F7C40112
:1017500067960FB6F894DEBF0FBECDBFDF91CF9175
:101760001F910F91FF90EF90DF90CF90BF90AF90BF
:101770009F908F907F906F905F904F903F902F90B1
:101780000895E989FA89E20DF31D84919FED980F80
:101790009E3578F49E012F5F3F4F5901CC24C394AE
:1017A000E12C0C891D892E893F89B301A2010E9479
:1017B000D00820E030E040EC50E4C301B2010E94C8
:1017C000DD1B2B013C013FEF231A330AB5CF4F92AB
:1017D0005F926F927F928F929F92AF92BF92CF92C1
:1017E000EF92FF920F931F93CF93DF93CDB7DEB7A6
:1017F00060970FB6F894DEBF0FBECDBF4C01F62E3A
:1018000029013A01CE0101960E94550B20E030E0FB
:1018100040E450E4C301B2010E94DC1BAB01BC01F7
:10182000CE0101965C01C12CEE24E39400E010E0AF
:1018300024E032E48F2D0E94D00880E1F501D4012C
:1018400001900D928A95E1F7C40160960FB6F89465
:10185000DEBF0FBECDBFDF91CF911F910F91FF90E3
:10186000EF90CF90BF90AF909F908F907F906F90B0
:101870005F904F9008958F929F92AF92BF92CF92B8
:10188000DF92EF92FF920F931F93CF93DF93CDB729
:10189000DEB760970FB6F894DEBF0FBECDBF7C01F8
:1018A0004A015B01CE0101960E94550B109154052F
:1018B00010935305809152058823D1F120E030E048
:1018C00040E852ECC501B4010E942A1E87FD0AC0FF
:1018D00001E020E030E040E053E4C501B4010E94A3
:1018E000491C87FF00E000FF23C0C0905105C501DF
:1018F000B4010E94C51CD62E01E020E8462F60E00E
:10190000CE0101960E944F08C7FC12C0183780F420
:1019100085E0189FF0011124E750FD4FC08211822D
:10192000D28280E8838381E084831F5F1093530514
:1019300010915105183008F041C0C501B4010E9452
:10194000C51C60347105D0F5462F4770A42FB0E058
:101950002FEF30E0F90102C0EE0FFF1F4A95E2F7CA
:10196000AF010E2FE12F110FFF0BEB5CF84F14911D
:101970004B0183E0959487948A95E1F7B4017695BD
:10198000762F6627779567956B527A4FE7E0F0E000
:10199000EA1BFB0B179739F002C035952795EA959E
:1019A000E2F7022F0423FB01E058F109113031F571
:1019B0008081802B81936E177F07D1F7809153052B
:1019C0008093540580E1FE013196D70101900D927C
:1019D0008A95E1F7C70160960FB6F894DEBF0FBE97
:1019E000CDBFDF91CF911F910F91FF90EF90DF90CE
:1019F000CF90BF90AF909F908F900895111109C024
:101A0000902F90958081892381936E177F07D1F75E
:101A1000D5CF808180278193E617F707D1F7CECF06
:101A20002F923F924F925F926F927F928F929F92EE
:101A3000AF92BF92CF92DF92EF92FF920F931F93DC
:101A4000CF93DF93CDB7DEB765970FB6F894DEBFBF
:101A50000FBECDBF4C015B0129013A01E98AFA8A28
:101A60000B8B1C8BFC2CCE0101960E94550BF501B3
:101A700001900020E9F731972E2F2A192D8B20E0B5
:101A800030E040E450E4C301B2010E94DC1B2B01B2
:101A90003C0120E030E040E450E469897A898B8998
:101AA0009C890E94DC1B698B7A8B8B8B9C8BDA2C3C
:101AB0001501822D8D193D89831710F180E1FE01FA
:101AC0003196D40101900D928A95E1F7C401659693
:101AD0000FB6F894DEBF0FBECDBFDF91CF911F913F
:101AE0000F91FF90EF90DF90CF90BF90AF909F90BD
:101AF0008F907F906F905F904F903F902F900895C0
:101B0000F10181911F019FED980F9E3578F49E01A0
:101B10002F5F3F4F5901CC24C394EF2C09891A89B8
:101B20002B893C89B301A2010E94D00820E030E05B
:101B300040EC50E4C301B2010E94DD1B2B013C01CB
:101B4000B8CF4F925F926F927F928F929F92AF9297
:101B5000BF92CF92DF92EF92FF920F931F93CF939A
:101B6000DF93CDB7DEB7E9970FB6F894DEBF0FBEAF
:101B7000CDBF8091910290919202892BC1F580E0B6
:101B800090E0ACE4B2E48093C2019093C301A093CF
:101B9000C401B093C50180E090E0A0E8BFE380936A
:101BA000C6019093C701A093C801B093C90180E01A
:101BB00090E0A0E0B3E48093BD019093BE01A093B8
:101BC000BF01B093C0011092C1011092BC011092EC
:101BD000BB010E94F90A1092B7011092B80110924D
:101BE000B9011092BA011092B6011092B50180911C
:101BF000B501882319F081508093B50120E030E0D1
:101C000040E051E460918D0270918E0280918F02CC
:101C1000909190020E942F1E0E94CC1C8091B601D0
:101C2000680F6093B60183E0809351058091BC01F9
:101C30008F938091BB018F938BE291E09F938F9361
:101C40005E0181E2A80EB11CBF92AF920E94351FC7
:101C5000CC24C394E12CF12C00E111E420E030E02D
:101C600040E450E4B501CE0101960E94100DC090F1
:101C7000C601D090C701E090C801F090C9010F9053
:101C80000F900F900F900F900F9020E030E0A9017F
:101C9000C701B6010E942A1E18160CF04BC0809195
:101CA000010185FF47C080E090E0A0E8BFEB809392
:101CB000C6019093C701A093C801B093C901809059
:101CC000C6019090C701A090C801B090C90120E062
:101CD00030E040E05FE3C501B4010E942F1E209177
:101CE0008D0230918E0240918F02509190020E949D
:101CF0002F1E2091C2013091C3014091C401509127
:101D0000C5010E94DD1B6B017C0120E030E040E456
:101D100050EC0E94491C87FF32C080E090E0A3E0B5
:101D2000B3E48093C2019093C301A093C401B09324
:101D3000C50138C020E030E0A901C701B6010E940A
:101D4000491C87FF09C08091010186FF05C080E022
:101D500090E0A0E8BFE3ABCF8CE00E94950A882317
:101D600009F4ADCFF7FAF094F7F8F094C092C601F9
:101D7000D092C701E092C801F092C901A0CF20E043
:101D800030E043E053E4C701B6010E942A1E181652
:101D90000CF4DEC0C092C201D092C301E092C40133
:101DA000F092C50140E050E068EE71E4CE01869605
:101DB0000E943B0C40E050E068EF71E4CE01869653
:101DC0000E943B0C40E050E060E272E4CE01869657
:101DD0000E943B0C40E050E068E272E4CE0186963F
:101DE0000E943B0C84E0809351051091B60112953E
:101DF000169516951370C090C201D090C301E09063
:101E0000C401F090C50120E030E0A901C501B40192
:101E10000E94491C62E687FF61E6133009F49DC009
:101E2000110F610FA7019601CE0186960E94E70B64
:101E300007E311E065EBE62E61E0F62E74E0D72EA5
:101E4000E5E0CE2EF0E1BF2E412C512CAAE16A2E06
:101E5000A3E47A2ED80115968C91811180C00A5F77
:101E60001F4FE016F106B1F71091C1018090BD013E
:101E70009090BE01A090BF01B090C001112309F461
:101E8000CDC0612F012E000C770B880B990B0E949F
:101E9000FD1C2B013C01C090B701D090B801E0902F
:101EA000B901F090BA0120E030E0A901C701B60104
:101EB0000E942A1E20E030E040E85EE3181654F04D
:101EC00020E030E040E45FE3111104C02DEC3CEC75
:101ED0004CE05FE380918D0290918E02A0918F0281
:101EE000B09190028EAB9FABA8AFB9AFC301B20166
:101EF0000E942F1E2EA93FA948AD59AD0E942F1E4A
:101F0000A50194010E94DD1B20E030E040E053E495
:101F10000E94571D9B01AC0160E070E0CB010E9464
:101F2000381D4B015C018092BD019092BE01A092D0
:101F3000BF01B092C00117FFA5C020E030E040E82B
:101F40005FE30E94491C87FFA8C01092C101A5C091
:101F500080E090E0A0E4B0ECE4CE12E062CFF801C3
:101F6000A480AA2009F451C08091B60186FD4DC01D
:101F70008FEF80935105D8012D913D914D915C914A
:101F80006CE6A11001C06BE6CE0141960E94E70B02
:101F9000CE0141960E94CE0A882309F460CFAA2080
:101FA000B1F18091C101C0928A02B092B501811154
:101FB00008C04092B7015092B8016092B901709286
:101FC000BA016091BB017091BC0190E080E00E9479
:101FD000FB1C9B01AC016091E6017091E7018091CF
:101FE000E8019091E9010E94DD1B6093E601709386
:101FF000E7018093E8019093E901F801158280914F
:1020000036018150809336012ACF84E0B2CF80918F
:10201000B5018111D6CFD0928A02D3CFA501940108
:102020006091C2017091C3018091C4019091C5017A
:102030000E942A1EEE24E394F12C18161CF0EE24C4
:10204000EA94FE2C20E030E0A9016091B701709184
:10205000B8018091B9019091BA010E942A1E181608
:1020600074F48FEF9FEFE89EB001E99E700DF89E2B
:10207000700D1124072E000C880B990B08CF81E0FE
:1020800090E0F1CF112349F020E030E04EEF52E430
:102090000E942A1E18160CF458CFC701B6010E94E0
:1020A000CC1C862F6AE00E94ED1E20E030E0A901E2
:1020B000953008F4A5C1C701B6010E942A1E181662
:1020C0000CF0A5C120E030E040E252E4C701B601C7
:1020D0000E942A1E87FD9BC18091910280FF97C1BB
:1020E00080E0809351050091C1011DE6011107C0F8
:1020F0001091B60116FB112710F9110F195920E0A4
:1021000030E0A901C301B2010E94491C881F882741
:10211000881F682F610FA5019401CE0141960E948E
:10212000E70B0111CCC0CE0141960E94CE0A882354
:1021300009F4C5C020E030E0A901C701B6010E9442
:102140002A1E18160CF0F8C083E080938A0280E102
:102150008093B5016090BB017090BC018AE0869DC0
:10216000B001879D700D112490E080E00E94FB1C5F
:102170006B017C01AC019B016091E6017091E7016C
:102180008091E8019091E9010E94DD1B6093E601D6
:102190007093E7018093E8019093E90120E030E437
:1021A0004CE156E4C701B6010E942A1E87FF64C0B5
:1021B00020E030E44CE955ECC701B6010E94491C0F
:1021C00087FD5AC05090CA01052D10E020E030E094
:1021D0004EEF52E4C501B4010E94571D9B01AC01B2
:1021E00060E070E0CB010E94381D000F111F000F4E
:1021F000111F00591D4F0E94CC1CA62EA294AA0CA0
:10220000AA0C30ECA322D80111967C9111977F7310
:10221000A72A1196AC921197669566956F711296E2
:102220006C93129713968C911397887FB82E6894AD
:10223000B1F81396BC9220E030E44CE955E4C701B4
:10224000B6010E94DD1B0E94CC1CF80160837F73E5
:10225000FA2DF07CAF2EA72AD8011196AC921197D7
:102260008B2D8770806F13968C9381E0850D843061
:1022700008F05DC08093CA0120E030E040E852E4FD
:102280006091C2017091C3018091C4019091C50118
:102290000E942A1E18160CF04DC08FEF8093C101CA
:1022A0001092B7011092B8011092B9011092BA01C0
:1022B000BFEF6B1A7B0A7092BC016092BB012EA922
:1022C0003FA948AD59AD6091B7017091B8018091B7
:1022D000B9019091BA010E94DC1B6093B701709321
:1022E000B8018093B9019093BA01809136018111B0
:1022F00007C010928A0280E18093B5010E94F90A1A
:10230000E9960FB6F894DEBF0FBECDBFDF91CF9137
:102310001F910F91FF90EF90DF90CF90BF90AF9003
:102320009F908F907F906F905F904F900895109244
:10233000CA01A2CF81E0B2CF82E080938A0280936B
:102340008C020E94A00A10925105DD24D39493E0E0
:10235000C92E8D2D6C2D0E94F91E192F682F880F04
:10236000770B880B990B0E94FD1C20E030E040E0C9
:1023700052E40E94DD1B20E030E040E85FE30E9471
:10238000DC1B4B015C01612F110F770B880B990B44
:102390000E94FD1C20E030E044E152E40E94DD1B7D
:1023A00020E030E040E85FE30E94DC1B9B01AC01D1
:1023B0008501740164EA72E0CE0186960E945B0B8F
:1023C000D394D394E9E0DE12C4CFC0925105E12C3E
:1023D000F12C00E012E420E030E044E152E464EA51
:1023E00072E0CE0186960E945B0B809183028093FF
:1023F00051058FEF9FEF90939202809391025FCFF0
:10240000C701B6010E942A1E18160CF465CE84E09E
:1024100068CE1F920F920FB60F9211248F939F9345
:102420008091E1009091E100937F9093E10083FF20
:102430000FC01092E90091E09093EB001092EC0035
:1024400092E39093ED001092F80298E09093F000E0
:1024500082FF22C093E09093E9009091F2009923CB
:1024600019F09AE39093E80090919902992341F032
:1024700090919902915090939902911101C05D9AA7
:102480009091F702992341F09091F7029150909327
:10249000F702911101C0289A84FF18C08091E200D0
:1024A0008E7E81608093E2008091E1008F7E809338
:1024B000E10080919A028E7E806180939A029F91C2
:1024C0008F910F900FBE0F901F90189580FFF7CF40
:1024D0008091E2008E7E80618093E2008091E10035
:1024E0008E7E8093E10080919A028E7E8160E5CF9E
:1024F0001F920F920FB60F921124CF92DF92EF929C
:10250000FF920F931F932F933F934F935F936F937C
:102510007F938F939F93AF93BF93EF93FF93CF934B
:10252000DF93CDB7DEB76C97DEBFCDBF1092E90069
:102530008091E80083FF25C068E0CE0145960E94A7
:10254000E50682EF8093E8008D8987FF39C090917E
:10255000E80090FFFCCF982F907609F034C19E8957
:102560004F89588D2F89F88C911131C0803861F5D1
:10257000809198028093F1001092F1008EEF809389
:10258000E8006C960FB6F894DEBF0FBECDBFDF91AA
:10259000CF91FF91EF91BF91AF919F918F917F91DB
:1025A0006F915F914F913F912F911F910F91FF90EC
:1025B000EF90DF90CF900F900FBE0F901F90189567
:1025C0009EEF9093E800C7CF1092F100D5CF9130E5
:1025D00059F48111D3CF4130510581F68091980291
:1025E0008D7F80939802CACF933049F48111C6CF72
:1025F0004130510519F6809198028260F2CF9530F2
:1026000041F48091E80080FFFCCF20682093E30034
:10261000B5CF963009F0A9C00B8D1C8D22E0109229
:10262000E9001092960210929502F2122EC01092BA
:102630009402109293020E94B4061F8299E099833B
:10264000FA8291E09E8390EA98879AEF9987209189
:10265000950230919602275F3F4F3C832B838D83F9
:102660001092E90010929602109295021093940233
:102670000093930249E050E0BE016F5F7F4F80E01E
:102680000E948E060E94B40679CF109394020093A4
:1026900093020E941705DC0112960D911C91011501
:1026A000110509F451C1D801ED91FC910480F58127
:1026B000E02DBE016B5E7F4FC8010995009709F0C0
:1026C0003EC1F80100851185EACFF3E0FF120EC08C
:1026D0008F89882309F440C0823061F440E867E0C4
:1026E0008DE297E00E945B06811148CF81E28093E2
:1026F000EB0047CF813029F440E86BE081E297E0BE
:10270000F1CF833099F70E941705DC011296ED9006
:10271000FC908E010F5F1F4F6801E114F10479F006
:10272000D701ED91FC910680F781E02DB801C7013A
:102730000995080F111DF701E084F184EECFD8014F
:102740001C92F60101900020E9F73197BF016C1946
:102750007D0940E0C601C6CF6BE077E0FB01449104
:1027600050E080E80E948E0609CF973009F4BECF72
:10277000983021F481E08093F10000CF993009F086
:10278000FDCE837009F0B2CFE3E1F1E081E031E00A
:1027900096E32191222371F08093E9003093EB00BE
:1027A000DF0111972C912093EC009093ED008F5F47
:1027B000873079F78EE78093EA001092EA008F89DC
:1027C0008093F802DBCE8B8D9C8D1092E9001092E5
:1027D0009602109295029093940280939302898DB1
:1027E000811192C08E899D89913A49F4813209F014
:1027F0007DCF47E050E066E071E080E0B3CF9132FA
:1028000009F074CF833269F48F89988DB0E0A0E02D
:102810008093020190930301A0930401B0930501FA
:10282000ADCE803269F48091E80082FFFCCF67E092
:1028300086E091E00E94E5068BEF8093E8009ECE53
:10284000823209F09BCE8F8980930D01EEEFFFE776
:10285000859194918B3F9C4D51F1E0E0F8E080919F
:10286000060190910701A0910801B0910901803BF8
:102870009440A105B105F1F480910D0180FD1AC0CD
:10288000EE3F8AE0F80789F587E797E79183808331
:10289000809160008093970288E19BE00FB6F894E6
:1028A000A895809360000FBE9093600067CEEEEF16
:1028B000FAE0D5CF808191818737974709F05ECEC6
:1028C000A895809160008861809360008091970254
:1028D00080936000EE3F2AE0F20789F08091FE0AC3
:1028E0009091FF0A9183808349CE808191818737BF
:1028F000980751F29093FF0A8093FE0AC5CF109279
:10290000FF0A1092FE0A3ACE0E941705DC011296C9
:102910000D911C910115110509F4E8CED801ED9136
:10292000FC910190F081E02DBE016B5E7F4FC801EC
:102930000995811123CEF80100851185EBCF18167A
:1029400019060CF41BCED2CEF1E0FF12BECE6FE022
:1029500077E004CF0F920FB68F939F93EF93FF937F
:102960008091D5018D5F8D3708F08D578093D5010B
:10297000ECEDF1E080818E4F808391819F4F9183B8
:1029800082818F4F828383818F4F8383E6EDF1E0D5
:1029900080818F5F808381818F4F818382818F4F80
:1029A000828383818F4F83838FB18F6066991C9B55
:1029B00088278F3681F48091D401981B963068F077
:1029C000E0E0F8E087E78083818388E1809360001E
:1029D000F0936000FFCF9093D401FF91EF919F910E
:1029E0008F910FBE0F9018951F920F920FB60F92F6
:1029F00011242F933F934F935F936F937F938F9304
:102A00009F93AF93BF93EF93FF938091D30181FF87
:102A100003C088B1805888B98091CF019091D001CE
:102A2000A091D101B091D201892B8A2B8B2BD1F0AF
:102A30008091CF019091D001A091D101B091D201AC
:102A40000197A109B1098093CF019093D001A09380
:102A5000D101B093D201892B8A2B8B2B19F481E001
:102A60000E94A407FF91EF91BF91AF919F918F9129
:102A70007F916F915F914F913F912F910F900FBE7A
:102A80000F901F9018951F920F920FB60F9211245E
:102A90002F933F934F935F936F937F938F939F9366
:102AA000AF93BF93EF93FF938091D30180FF04C056
:102AB00088B190E4892788B98091CB019091CC01AD
:102AC000A091CD01B091CE01892B8A2B8B2BD1F017
:102AD0008091CB019091CC01A091CD01B091CE011C
:102AE0000197A109B1098093CB019093CC01A093E8
:102AF000CD01B093CE01892B8A2B8B2B19F480E06A
:102B00000E94A407FF91EF91BF91AF919F918F9188
:102B10007F916F915F914F913F912F910F900FBED9
:102B20000F901F901895EBE9F2E01382128288EE65
:102B300093E0A0E0B0E084839583A683B7838DE122
:102B400091E0918380838FEF9FEF9587848708952D
:102B5000CDB7DEB7A397DEBFCDBF789483E084BD49
:102B600083E085BD81E080936E00E1E8F0E083E0E2
:102B70008083E0E881E08083E1E983E08083E0E92D
:102B800081E08083E1EC87E08083E3EC81E0808377
:102B9000E0EC82E08083E2EC81E08083EAE787E09A
:102BA0008083806880831092F802109298021092BD
:102BB0009A028091D70081608093D70080EA809349
:102BC000D80089B5806189BD89B5826089BD09B4A5
:102BD00000FEFDCF0E94AF048091D8008F7C806101
:102BE0008093D8008091E000807F8093E000809106
:102BF000E1008E7E8093E1008DE08093E200559AA3
:102C0000209A85E496E0909389028093880286E377
:102C100096E0909387028093860286EC95E09093ED
:102C2000DB018093DA0182EB95E09093EF018093D2
:102C3000EE0181EA9DE0909381028093800281EC15
:102C400080937C0085B1806F85B984B1877E84B91B
:102C500084B1876E84B95E9A5F988AB1806D8AB9B3
:102C6000769A6E9881B3806F81BB899880B38D709E
:102C700080BB80E58CBD81E08DBD85E090E00E9449
:102C8000F2065F9A85E090E00E94F2065E985C98FA
:102C9000EFE4F6E08CE596E024912EBD00000DB443
:102CA00007FEFDCF31968E179F07B1F75C9A81E83A
:102CB00080936400809165008160809365000E942C
:102CC00092040E940D0787FF10C05C9885EA8EBDB4
:102CD00000000DB407FEFDCF5C9A2E982F982D981A
:102CE00081E083BF889513BEFCCF0E940D0782FF51
:102CF00046C02D980E940D0784788438D9F42D9A07
:102D000088EC90E00E94F2062F9882E090E00E940A
:102D1000631B8F3F29F06FEF82E090E00E946B1BF6
:102D200084EF91E00E94F2062F9A0E940D078478AA
:102D30008438D9F30E940D0784718431D9F42D9A17
:102D400088EC90E00E94F2062E9882E090E00E94CB
:102D5000631B882329F060E082E090E00E946B1BF7
:102D600084EF91E00E94F2062E9A0E940D07847172
:102D70008431D9F388EC90E00E94F206B6CF2D9A08
:102D800082E090E00E94631B882309F48CC00E94BB
:102D90001A0780E18093000180916500877F80930E
:102DA000650080916400877F80936400109290009A
:102DB00089E080939100109280008093810080E0F0
:102DC0000E94780781E00E9478071092E501109236
:102DD000E4011092E6011092E7011092E8011092CE
:102DE000E90190E080E0FC0133E0EE0FFF1F3A952F
:102DF000E1F7EA50FE4F2081207C2083019680314C
:102E0000910589F7E0908602F090870200E010E0DB
:102E1000C7010E945A1B882359F0282F863108F0D9
:102E200025E1121708F4122F0F5F053009F03EC09C
:102E300000938402412F4150550B9A014AEF4203FF
:102E4000C001439F900D112480589F4F9595879501
:102E5000809385020E942A0A10928C020E942A0AFC
:102E60008FEF80938A021092920210929102CE010B
:102E700004969B8F8A8F8FB7F8944091DC01509114
:102E8000DD016091DE017091DF018FBF8091E20171
:102E9000882389F01092E20140E050E0452B59F37D
:102EA0000E940000E8CF0E94150773CF9927019672
:102EB000E80EF91EADCF8091E301942F981B892F66
:102EC00090910001891740F48F5F891728F781E0FE
:102ED00083BF889513BEE0CF81E08093E2014093E9
:102EE000E3018091E0019091E10101969093E1016D
:102EF0008093E0011092540500919102109192028A
:102F0000B80190E080E00E94FB1C20E030E040E748
:102F100052E40E94531C20E030E040E752E40E945B
:102F2000531C20E030E040E85FE30E94DD1B60932B
:102F30008D0270938E0280938F0290939002809105
:102F4000010180938B020E940D0780930101D090B4
:102F50008C02D11065C18CE00E94950AF09082022B
:102F60008823C1F082E090E00E94631BF81629F0EC
:102F70006F2D82E090E00E946B1B0E944A1B209103
:102F8000910230919202822793270E944F1B0E9448
:102F9000310A51C080E10E94950A882359F0F1104E
:102FA00002C10E941A0780918202882319F088E0EA
:102FB00080938A020E94A00A0115110509F0F6C04B
:102FC0000E94A204C0908802D0908902C6010E948B
:102FD0005A1B2AEF8C012003B001219F700D112490
:102FE0006A577F4F7695679590E080E00E94FB1CC2
:102FF0009B01AC01E12CF12C00E811E4B601CE01FB
:103000000A960E945B0B80918202E3E0811101C06D
:10301000E0E00E2E000CFF0BEB5CF84F249143EC2C
:1030200056E06AE370E090E080E00E94CA0380917D
:103030008302809351050091910210919202C80180
:103040008F709927892B11F580918A028930D8F4E5
:10305000E091EE01F091EF0121EBE22E26E0F22E5D
:10306000309739F090E0880F991FE80FF91FE5902D
:10307000F49080E00E947807F092EB01E092EA0180
:1030800080E00E94A4078FEF80938A0201111AC08A
:1030900080918C02813009F0ADC2E091EE01F09197
:1030A000EF010CE516E0309719F072960591149136
:1030B00081E00E9478071093ED010093EC0181E01C
:1030C0000E94A4070E94A00A83E0809351056091AA
:1030D000E6017091E7018091E8019091E9010E9479
:1030E000CC1C7F936F93ACE2B1E0BF93AF9301E050
:1030F00010E00C0F1D1F1F930F930E94351FC12C52
:10310000E12CF12C00E410E4A8019701BE016F5FEF
:103110007F4FCE010A960E94100D88E4898389E4CE
:103120008A8380E28B838091E5018F938091E40113
:103130008F932CE231E03F932F935B8D5F938A8DC9
:103140008F930E94351F63E0680F0AEF0603B001FA
:1031500011246E577F4F072E000C880B990B0E948D
:10316000FD1C9B01AC01E12CF12C00E410E4BE013C
:103170006F5F7F4FCE010A960E94100D80918302EF
:1031800080935105809191029091920201969093C3
:103190009202809391020E9492040FB6F894DEBFCF
:1031A0000FBECDBF79CE0E941507FDCEA09086023E
:1031B000B0908702B6E0CB2E0E31110509F023CF77
:1031C00080918402D81608F01ECFDC9CB001112437
:1031D000072E000C880B990B0E94FD1C2DEC3CEC7B
:1031E0004CE052E40E94DD1B2B013C016091850202
:1031F000062E000C770B880B990B0E94FD1C9B017F
:10320000AC0183017201B501CE010A960E945B0BED
:10321000C5010E945A1B0196A80EB91ED394D0CFA7
:1032200021E0D212CCC10E94A204E0918002F09170
:103230008102099500EF11E01D8F0C8F312C212C9C
:103240008101A3E0000F111FAA95E1F79801205119
:103250003E4F3F8F2E8FD90116968C918F7309F0B8
:10326000BCC0BFEF2B1A3B0A0C8D1D8D085F1F4F92
:103270001D8F0C8F10E12116310411F70E94A00A56
:10328000912C812C6BE2762E5401AA0CBB1CAA0C4B
:10329000BB1CF501E059FD4F8381887F09F494C080
:1032A00080812181922F9F737C0128E8E21A23E11B
:1032B000F20AFF92EF924CE251E05F934F938F2D11
:1032C0008095A1E0B0E0AC0FBD1F87FD1196CD0148
:1032D0009F93AF930E94351F182F0F900F900F9060
:1032E0000F900F900F90F7FC02C079821F5FF501DD
:1032F000ED58FD4FD080D694D694D694DD9CB00185
:103300001124072E000C880B990B0E94FD1C20E055
:1033100030E044E352E40E94531C1B012C01F501F0
:10332000EE58FD4F6081862F82958695877061816A
:103330006770660F660F660F682B70E090E080E0A4
:103340000E94FD1C9B01AC01C201B1010E94DD1B6A
:103350001B012C01E12FE150FF0BCF01880F991FBA
:10336000880F991F8F01081B190BF501EF58FD4FAE
:103370006081262F229526952695237061816F7195
:10338000660F660F622B600F712F711D072E000CE8
:10339000880B990B0E94FD1C9B01AC01C12C820182
:1033A0007101BE016F5F7F4FCE010A960E94100D22
:1033B000F501E059FD4F1FE1D10EDD0CDD0CDD0CF8
:1033C00083818770D82AD3822FEF821A920A34E041
:1033D0008316910409F058CF2ACE98012A503E4F07
:1033E0006901D9018C91B82FBF73FB2E8295869508
:1033F00086958370F90161816370660F660F682B93
:1034000070E090E080E00E94FD1C20E030E040E8A9
:1034100051E40E942F1E4B015C016F2D70E090E083
:1034200080E00E94FD1C9B01AC01C501B4010E941B
:10343000DD1B9B01AC010E942F1E20E030E040E02C
:103440005AE30E942F1EAC8DBD8D12962D913D9199
:103450004D915C9115970E94DD1B68A379A38AA307
:103460009BA3EC8DFD8D62837383848395838FE3AF
:103470008F0D8F73D6019C91907C892B8C93F801D2
:10348000E950FE4F60816695669570E090E080E0BF
:103490000E94FD1C2BED3FE049E450E40E942F1EEA
:1034A00020E030E040E05DE30E942F1E6B017C01D4
:1034B0000E944E1C2B013C01EC8DFD8D608170E063
:1034C00090E080E00E94FB1C4B015C01A301920193
:1034D00068A179A18AA19BA10E942F1E9B01AC012A
:1034E000C501B4010E94DD1B4B015C01C701B6019F
:1034F0000E949C1E2B013C01AE8DBF8D11968C91BC
:1035000087FF55C0B6E0BE8FC501B4010E94C51C3F
:103510006B016038710508F0A4CEF801EF50FE4F42
:1035200060816F7770E090E080E00E94FB1C4B01AF
:103530005C01A301920168A179A18AA19BA10E94CB
:103540002F1E9B01AC01C501B4010E94DD1B0E942E
:10355000C51C6034710508F084CEDB01E3E0B5954D
:10356000A795EA95E1F7B695BA2FAA27B795A7953B
:10357000AC0DBD1DAB5ABA4F6770772701E010E064
:1035800020E030E004C0000F111F221F331F6A9596
:10359000D2F7A8011E8DE12F110FFF0BEB5CF84F46
:1035A000E491E23031F48C9148274C935ACE1E8E30
:1035B000ABCF8C91842B8C93E130A9F752CE42E0B3
:1035C000D41239CD0C33110508F435CD8CE00E94AE
:1035D000950A8111DCCC0C32114008F42CCD1092EC
:1035E0008C028FEF9FEF90939202809391020E9442
:1035F0002A0A21CD81E00E94780764CD8F929F92A4
:10360000AF92BF92CF92DF92EF92FF92CF93DF9370
:10361000EC01688179818A819B8161157105810541
:10362000910521F464E279ED8BE597E02DE133EF2C
:1036300041E050E00E94791B49015A019B01AC0115
:10364000A7EAB1E40E94981B6B017C01ACEEB4EFD9
:10365000A50194010E94A61BDC01CB018C0D9D1DD0
:10366000AE1DBF1DB7FF03C00197A109B0488883F5
:103670009983AA83BB839F77DF91CF91FF90EF90CF
:10368000DF90CF90BF90AF909F908F9008950E9451
:10369000FE1A08958EE091E00E94FE1A0895B0E0AF
:1036A000A0E080930E0190930F01A0931001B093BE
:1036B00011010895FC0105900020E9F7809590958F
:1036C0008E0F9F1F0895F999FECF92BD81BDF89A84
:1036D000992780B50895262FF999FECF1FBA92BD7C
:1036E00081BD20BD0FB6F894FA9AF99A0FBE0196E3
:1036F0000895052E97FB1EF400940E94901B57FD21
:1037000007D00E94AB1B07FC03D04EF40C94901B17
:1037100050954095309521953F4F4F4F5F4F0895FD
:1037200090958095709561957F4F8F4F9F4F08952D
:103730000E94CD1BA59F900DB49F900DA49F800D5E
:10374000911D11240895B7FF0C94981B0E94981B9B
:10375000821B930B0895A1E21A2EAA1BBB1BFD012D
:103760000DC0AA1FBB1FEE1FFF1FA217B307E40760
:10377000F50720F0A21BB30BE40BF50B661F771FB8
:10378000881F991F1A9469F7609570958095909598
:103790009B01AC01BD01CF010895A29FB001B39F71
:1037A000C001A39F700D811D1124911DB29F700D4A
:1037B000811D1124911D08955058BB27AA270E94EE
:1037C000F41B0C94DC1D0E94A31D38F00E94AA1D5E
:1037D00020F039F49F3F19F426F40C94A01D0EF448
:1037E000E095E7FB0C949A1DE92F0E94011E58F307
:1037F000BA17620773078407950720F079F4A6F5D6
:103800000C94231E0EF4E0950B2EBA2FA02D0B0165
:10381000B90190010C01CA01A0011124FF27591B15
:1038200099F0593F50F4503E68F11A16F040A22F1B
:10383000232F342F4427585FF3CF4695379527958C
:10384000A795F0405395C9F77EF41F16BA0B620B8B
:10385000730B840BBAF09150A1F0FF0FBB1F661FD2
:10386000771F881FC2F70EC0BA0F621F731F841F15
:1038700048F4879577956795B795F7959E3F08F03B
:10388000B0CF9395880F08F09927EE0F97958795FD
:1038900008950E94761D08F481E008950E94B31DEA
:1038A000E3950C94ED1D0E94671C0C94DC1D0E9496
:1038B000AA1D58F00E94A31D40F029F45F3F29F093
:1038C0000C949A1D51110C94241E0C94A01D0E945E
:1038D000011E68F39923B1F3552391F3951B550B02
:1038E000BB27AA2762177307840738F09F5F5F4FD3
:1038F000220F331F441FAA1FA9F335D00E2E3AF012
:10390000E0E832D091505040E695001CCAF72BD029
:10391000FE2F29D0660F771F881FBB1F261737077A
:103920004807AB07B0E809F0BB0B802DBF01FF27AC
:1039300093585F4F3AF09E3F510578F00C949A1DD2
:103940000C94241E5F3FE4F3983ED4F3869577955C
:103950006795B795F7959F5FC9F7880F911D969565
:10396000879597F90895E1E0660F771F881FBB1FC1
:10397000621773078407BA0720F0621B730B840B6E
:10398000BA0BEE1F88F7E09508950E94CC1C68944E
:10399000B1110C94241E08950E94091E88F09F57AF
:1039A00098F0B92F9927B751B0F0E1F0660F771F63
:1039B000881F991F1AF0BA95C9F714C0B13091F059
:1039C0000E94231EB1E008950C94231E672F782FC8
:1039D0008827B85F39F0B93FCCF38695779567951E
:1039E000B395D9F73EF490958095709561957F4F8A
:1039F0008F4F9F4F0895E89409C097FB3EF4909530
:103A00008095709561957F4F8F4F9F4F9923A9F0B7
:103A1000F92F96E9BB279395F69587957795679546
:103A2000B795F111F8CFFAF4BB0F11F460FF1BC08A
:103A30006F5F7F4F8F4F9F4F16C0882311F096E91D
:103A400011C0772321F09EE8872F762F05C06623CB
:103A500071F096E8862F70E060E02AF09A95660F84
:103A6000771F881FDAF7880F9695879597F908953D
:103A7000990FBB0B550FAA0BE0E8FEEF16161706C1
:103A8000E807F90770F012161306E407F50760F06F
:103A9000BA173CF049F46217730784079507A79596
:103AA0001BF4B901CA01BA2FB69597950895990FDD
:103AB000BB0B550FAA0BE0E8FEEF16161706E8073A
:103AC000F90770F012161306E407F50760F0BA174D
:103AD00054F031F42617370748075907A7951BF408
:103AE000B901CA01BA2FB69597950895990F0008A4
:103AF000550FAA0BE0E8FEEF16161706E807F907C0
:103B0000C0F012161306E407F50798F0621B730B5A
:103B1000840B950B39F40A2661F0232B242B252BDB
:103B200021F408950A2609F4A140A6958FEF811D7E
:103B3000811D089597F99F6780E870E060E008951F
:103B40009FEF80EC089500240A94161617061806B5
:103B50000906089500240A94121613061406050691
:103B600008950C94A01D0E94091ED8F3E894E0E08B
:103B7000BB279F57F0F02AED3FE049EC06C0EE0F5F
:103B8000BB0F661F771F881F28F0B23A62077307C2
:103B9000840728F0B25A620B730B840BE3959A9555
:103BA00072F7803830F49A95BB0F661F771F881F15
:103BB000D2F790480C94A61E092E0394000C11F421
:103BC000882352F0BB0F40F4BF2B11F460FF04C0F8
:103BD0006F5F7F4F8F4F9F4F0895EF93E0FF07C0B8
:103BE000A2EA2AED3FE049EC5FEB0E94F41B0E9441
:103BF000DC1D0F90039401FC9058ECEAF0E00C946B
:103C0000B21E57FD9058440F551F59F05F3F71F099
:103C10004795880F97FB991F61F09F3F79F0879533
:103C20000895121613061406551FF2CF4695F1DFBC
:103C300008C0161617061806991FF1CF869571054C
:103C4000610508940895E894BB2766277727CB0180
:103C500097F908950E94761D08F48FEF08950E9449
:103C6000421E0C94DC1D0E94A31D38F00E94AA1D68
:103C700020F0952311F00C949A1D0C94A01D112492
:103C80000C94241E0E94011E70F3959FC1F3950FA2
:103C900050E0551F629FF001729FBB27F00DB11DD0
:103CA000639FAA27F00DB11DAA1F649F6627B00D60
:103CB000A11D661F829F2227B00DA11D621F739F49
:103CC000B00DA11D621F839FA00D611D221F749F57
:103CD0003327A00D611D231F849F600D211D822F9E
:103CE000762F6A2F11249F5750409AF0F1F08823C5
:103CF0004AF0EE0FFF1FBB1F661F771F881F9150F2
:103D00005040A9F79E3F510580F00C949A1D0C94E9
:103D1000241E5F3FE4F3983ED4F38695779567952C
:103D2000B795F795E7959F5FC1F7FE2B880F911D1B
:103D30009695879597F908959F930E94B31D0F90CC
:103D400007FCEE5F0C94ED1D9F3F31F0915020F485
:103D5000879577956795B795880F911D9695879567
:103D600097F908959F938F937F936F93FF93EF93AA
:103D70009B01AC010E942F1EEF91FF910E94C61E75
:103D80002F913F914F915F910C942F1EDF93CF9312
:103D90001F930F93FF92EF92DF927B018C01689447
:103DA00006C0DA2EEF010E94421EFE01E894A591A2
:103DB0002591359145915591A6F3EF010E94F41B91
:103DC000FE019701A801DA9469F7DF90EF90FF9068
:103DD0000F911F91CF91DF910895991B79E004C055
:103DE000991F961708F0961B881F7A95C9F780953A
:103DF000089587FB082E062687FD819567FD61954E
:103E00000E94ED1E0EF4919507FC8195089597FB95
:103E1000072E16F4009407D077FD09D00E941B1FCF
:103E200007FC05D03EF4909581959F4F08957095BD
:103E300061957F4F0895AA1BBB1B51E107C0AA1FC4
:103E4000BB1FA617B70710F0A61BB70B881F991F3B
:103E50005A95A9F780959095BC01CD010895EE0F74
:103E6000FF1F0590F491E02D0994AEE0B0E0EBE384
:103E7000FFE10C94E4210D891E8986E08C831A836E
:103E800009838FEF9FE79E838D83AE01475E5F4F6F
:103E90006F89788DCE0101960E94581F2F81388539
:103EA000020F131FF80110822E96E4E00C940022FA
:103EB000ABE0B0E0EEE5FFE10C94D6217C013B01E4
:103EC0008A01FC0117821682838181FFC8C1CE015D
:103ED00001965C01F7019381F30193FD859193FFB6
:103EE00081913F01882309F453C1853239F493FD50
:103EF000859193FF81913F01853229F4B70190E0CC
:103F00000E944821E7CF912C212C312CFFE1F315A1
:103F100038F08B3211F190F4803209F1833229F1BB
:103F200037FC3CC020ED280F2A3050F536FE20C06B
:103F30008AE0989E200D1124922E06C08D3291F0B9
:103F4000803371F7689430F8F30193FD859193FF06
:103F500081913F018111DACF21C0689431F86894D2
:103F600032F8F2CF689433F8EFCF689434F8ECCF9E
:103F7000EAE02E9E200D1124222E689435F8E4CF1D
:103F80008E3229F436FC04C1689436F8DDCF8C36C5
:103F900019F4689437F8D8CF8836B1F2982F9F7DFE
:103FA00095549330E0F08336A1F18337C1F1833526
:103FB00009F063C02801F2E04F0E511CF801C080E7
:103FC000D180692D70E036FC02C06FEF7FEFC60133
:103FD0000E9432214C01689437F882010AC00C5FBC
:103FE0001F4FFFE3F98388248394912C6501E894A3
:103FF00037F833FE2DC0522C8114910471F55520F1
:1040000009F468CFB70180E290E00E9448215A94F9
:10401000F6CFF801808189830E5F1F4FE4CF28011E
:10402000F2E04F0E511CF801C080D180692D70E084
:1040300036FC02C06FEF7FEFC6010E943D214C01AC
:104040008201D5CFB70180E290E00E9448212A94F6
:104050002814190409F0B0F7CECFF60137FC85918A
:1040600037FE81916F01B70190E00E944821511005
:104070005A94F1E08F1A9108BFCF843619F089362F
:1040800009F077C0F80137FE6BC0608171818281D1
:1040900093810C5F1F4FF32DFF763F2E97FF09C0D2
:1040A00090958095709561957F4F8F4F9F4F689445
:1040B00037F82AE030E0A5010E947821C82ECA18FE
:1040C0008C2C432C36FE0CC0E89440F8C91440F404
:1040D00034FE05C032FC03C0F32DFE7E4F2E892C2A
:1040E00044FE95C0FE01EC0DF11D8081803309F086
:1040F00087C0242D297E422E842D8870582E43FCA3
:1041000095C040FE8FC09C2C821418F42C0C922C6D
:10411000981844FE91C0B70180E390E00E944821C6
:1041200042FE09C088E790E041FE02C088E590E0C9
:10413000B7010E944821C91408F48AC0CA94D12C3E
:104140009FEFC91AD90ACA0CDB1CF60182916F01D4
:10415000B70190E00E944821AC14BD04B1F74FCFE5
:1041600060817181072E000C880B990B0E5F1F4F29
:1041700092CFD32CE894D4F82AE030E0853739F197
:10418000232D297FD22E8F3601F148F48835A9F0EE
:10419000F701868197812B96E2E10C94F22180371A
:1041A00049F08837A9F7D4FE02C06894D2F820E11C
:1041B00030E00DC06894D4F8F6CF34FE03C0822FEF
:1041C0008660D82E20E132E002C028E030E0F8011D
:1041D000D7FE0FC060817181828193810C5F1F4F78
:1041E000A5010E947821C82ECA183D2CE89437F802
:1041F00067CF6081718190E080E00E5F1F4FF0CF4C
:1042000042FC02C0839478CF8394839475CF842D2D
:10421000867809F471CFF6CFB70180E290E00E9472
:10422000482183948214C0F3512C73CF522C581818
:10423000821408F46ECFF8CF842D867809F47BCFF2
:104240008BE241FE80E247FC8DE2B70190E071CF46
:10425000B70180E390E00E9448219A946CCF8FEFE1
:104260009FEF99CFFC010590615070400110D8F785
:10427000809590958E0F9F1F0895FC0161507040AE
:1042800001900110D8F7809590958E0F9F1F08958B
:104290000F931F93CF93DF93182F092FEB018B817F
:1042A00081FD09C01FEF0FEF812F902FDF91CF917C
:1042B0001F910F91089582FF14C02E813F818C8140
:1042C0009D81281739073CF4E881F981CF010196D7
:1042D0009983888310838E819F8101969F838E832B
:1042E000E3CFE885F985812F0995892BA1F3DACFF2
:1042F000FA01AA27283051F1203181F1E8946F9317
:104300006E7F6E5F7F4F8F4F9F4FAF4FB1E03ED0BC
:10431000B4E03CD0670F781F891F9A1FA11D680F5A
:10432000791F8A1F911DA11D6A0F711D811D911D8D
:10433000A11D20D009F468943F912AE0269F112402
:104340003019305D3193DEF6CF010895462F477066
:10435000405D4193B3E00FD0C9F7F6CF462F4F70C1
:10436000405D4A3318F0495D31FD4052419302D01F
:10437000A9F7EACFB4E0A6959795879577956795C5
:10438000BA95C9F700976105710508959B01AC01C5
:104390000A2E06945795479537952795BA95C9F7EC
:1043A000620F731F841F951FA01D08952F923F92C7
:1043B0004F925F926F927F928F929F92AF92BF9235
:1043C000CF92DF92EF92FF920F931F93CF93DF93E1
:1043D000CDB7DEB7CA1BDB0B0FB6F894DEBF0FBE3E
:1043E000CDBF09942A88398848885F846E847D848B
:1043F0008C849B84AA84B984C884DF80EE80FD808D
:104400000C811B81AA81B981CE0FD11D0FB6F89402
:0E441000DEBF0FBECDBFED010895F894FFCFC3
:10441E0010FFFFFFFFFF00E10000000000000100A1
:10442E00000000C1808100000000000000AC052BE0
:10443E0005CD05C2051306D105EF057825640000EC
:00000001FF
