:100000000C9498030C94C0030C94C0030C94C0038C
:100010000C94C0030C94C0030C94C0030C94C00354
:100020000C94C0030C94C0030C94E3110C94521272
:100030000C94C0030C94C0030C94C0030C94C00334
:100040000C94C0030C94CE140C94C0030C94C00305
:100050000C94C0030C94C0030C94C0030C9484143F
:100060000C94C0030C94C0030C94C0030C94C00304
:100070000C94C0030C94C0030C94C0030C94C003F4
:100080000C941D150C94C0030C94C0030C94C00375
:100090000C94C0030C94C0030C94C0030C94C003D4
:1000A0000C94C0030C94C0030C94C00305A84CCD61
:1000B000B2D44EB93836A9020C50B9918688083CA2
:1000C000A6AAAA2ABE000000803F904900858000B1
:1000D0008590450086800085904200858001909043
:1000E0004700868000859040008580029B904400F8
:1000F0008580008690400085800085903D00868048
:100100000190903E00858000859045008680E090BB
:100110004400218000219053002280F0903F001085
:10012000904B0011904E0011904A00109034001135
:10013000903D001190320010903D0011903E001152
:100140009044001090480011904400119047001016
:10015000904D0011904D00119051001090510011E0
:1001600090530011905C00109053001190610011A9
:1001700080F0905200329055004280F0904F004243
:10018000903F0011904000119041001090420011EA
:1001900090430011904400109045001190460011CA
:1001A000904700109048001190490011904A0010AB
:1001B000904B0011904C0011904D0010904E00118A
:1001C000904F00119051001080F090440010904228
:1001D000001190490011904700109042001180F0EA
:1001E00090530010904E0011904900119042001061
:1001F0009044001190470011904A0010904C00115B
:10020000904F00119052001090540011905D001119
:100210009057001090510011904B0011904C00101D
:10022000905000119054001190590010905D0011F1
:100230009062001180F09049001090420011904AA5
:100240000011903E00109037001190350011902B56
:100250000010902800119038001190430010904138
:100260000011902A00119041001090310011902F40
:10027000001190240010902E0011902B0011902F4F
:10028000001090300011902A00119034001090223C
:100290000011901F001180F0905D0010905B001124
:1002A000905700119052001090540011905000117E
:1002B000904D0010904C0011904D0011904B00108B
:1002C0009047001190480011904500109043001194
:1002D00090410011903F001080F0904D00539058D5
:1002E00000D980F047414D45204F564552002A0025
:1002F0000000002E000000000600060000143E145E
:100300003E1400042A3E2A1000261008043200146D
:100310002A2C102800000006000000001C2200000B
:100320000000221C00000014083E08140008083ECB
:100330000808000020100000000808080808000055
:1003400000200000002010080402001C322A261C95
:100350000024223E20200024322A2A240014222AAB
:100360002A14001814123E10002E2A2A2A12001CE9
:100370002A2A2A10000622120A0600142A2A2A14FF
:1003800000042A2A2A1C0000001400000000201487
:100390000000000814142222001414141414002263
:1003A000221414080004022A0A04001C222A2A0C1F
:1003B000003C0A0A0A3C003E2A2A2A14001C222277
:1003C0002214003E2222221C003E2A2A2A22003E1B
:1003D0000A0A0A02001C22222A18003E0808083EC7
:1003E0000022223E2222001020221E02003E080887
:1003F0001422003E20202020003E0408043E003E3F
:100400000408103E001C2222221C003E0A0A0A0494
:10041000001C2222323C003E0A0A0A3400242A2A06
:100420002A120002023E0202001E2020201E000EA0
:100430001020100E001E201C201E00221408142262
:100440000002043804020022322A26220000003E64
:100450002200000204081020000000223E000000DC
:1004600004020400002020202020000000040800D6
:10047000001824243C00003E2828100000182424E2
:100480002400001028283E000018342C080000002A
:10049000083C0A0000042A2A1C0000003E08300024
:1004A0000000003400000000201A000000003E1090
:1004B00028000000223E2000003C041C0438003CC0
:1004C00004043800001824241800003C1414080008
:1004D000000814143C00003C0804040000282C34DC
:1004E00014000000081C2800001C20203C00000C08
:1004F00030300C00001C2018201C00241818240088
:100500000024180804000024342C240000000836BD
:1005100022000000003E0000000022360800000813
:100520000408100806011501260137014A015D0182
:10053000720188019F01B801D201EE010B022A026B
:100540004B026E029302BA02E40210033F037003EF
:10055000A403DC03170455049704DD04270575057F
:10056000C80520067D06E0064907B8072D08A9083A
:100570002D09B9094D0AEA0A900B400CFA0CC00D7E
:10058000910E6F0F5A1053115B1272139A14D415F7
:1005900020178018F519801B231DDE1EB420A6220B
:1005A000B524E4263429A72B402E0031EA33003746
:1005B000453ABC3D68414C456B49C84D68524F5760
:1005C000805C006210111213151617181A1C1D1FDB
:1005D00021232527292C2E3134373A3E4145494ED7
:1005E00052575C62686E757B838B939CA5AFB9C4D0
:1005F000D0DCE9F7DA0298023602E001CA017C0198
:1006000072011C010F01CA000F390F093F0F00666C
:100610003E321E123E3E1056000E3B3D1F0E01653F
:100620005B486F6C645D204D6F766520666F7277F6
:10063000617264000042414C4C20544F555200D529
:10064000F08D14A1C881CFD9F1AF2000903C008576
:10065000800085903E008680008590400085800166
:1006600090904100868000859040008580008590B4
:100670003E008680019090390085800085903B0087
:1006800086800085903C0085800190903E008680A9
:100690000085903C0085800085903B00868001901D
:1006A000E090480010904B0011904E0011905100C6
:1006B0001080F0000000010101020235350932040A
:1006C00038080B00020202000009040000010202C7
:1006D0000000052400100105240101010424020684
:1006E00005240600010705810310004009040100EC
:1006F000020A00000007050202400000070583020D
:100700004000000403090412010002EF020140410D
:1007100023368000010102030141726475696E6F26
:10072000204C4C430041726475626F7900006D1576
:1007300011241FBECFEFDAE0DEBFCDBF11E0A0E095
:10074000B1E0EEE7F4E402C005900D92A033B107EA
:10075000D9F729E0A0E3B1E001C01D92AD37B2079F
:10076000E1F713E0C8E9D3E004C02197FE010E943D
:100770005F1FC739D107C9F70E9482150C943D222B
:100780000C940000AF92BF92CF92DF92EF92FF9253
:100790000F931F93CF93DF936C01FC013596E538DF
:1007A000F10508F041C0FB013596E534F105E0F5AF
:1007B000DB0177FF04C0AA27BB27A61BB70BA770D6
:1007C000BB27EB0177FD2796E3E0D595C795EA9522
:1007D000E1F777FF07C0219768E070E0FB01EA1BB3
:1007E000FB0BDF01BE017695762F6627779567951F
:1007F0005B01A80EB91E60587F4F860F971F70E0EF
:1008000060E0E8E0F0E07F01EA1AFB0AF0E8CF16CA
:10081000D10451F0D7FE13C06F5F7F4F3FEFC31A73
:10082000D30A6630710591F7DF91CF911F910F9137
:10083000FF90EF90DF90CF90BF90AF900895CF3FA3
:10084000DC07D1F4109709F036C0E6CFE491F0E070
:100850000E2C02C0F595E7950A94E2F7E095F09525
:100860003E2341C0E491F0E00E2C02C0F595E795DF
:100870000A94E2F73E2B37C08501060F171F035875
:100880001A4FF8013081FA01E60FF71F213009F401
:1008900039C0222359F1E4910A2E01C0EE0F0A94C7
:1008A000EAF73E27F8013083109709F4B5CFC73037
:1008B000D10509F4B1CF8B01080F191F03581A4F46
:1008C000F8013081FA01E60FF71F213059F2222397
:1008D00009F4BCCFE491F0E00E2C02C0F595E79549
:1008E0000A94E2F73E27F801308396CFE491F0E0D6
:1008F0000A2E02C0EE0FFF1F0A94E2F7E095F09572
:100900003E23D0CFE4910A2E01C0EE0F0A94EAF7FD
:100910003E2BC8CFEDE7F5E080E0A0E0B8E0008036
:100920000EBC8111012C1197A0FDFDCF0192B9F7EA
:100930000DB4089580E0EDE7F5E081118FEF00241C
:1009400081938193819381930394D1F70895E1E09A
:10095000F0E00E94BC04319728F068517C4F8F4F23
:100960009F4FF9CFAB01FC010E94BC0464177507CF
:100970008E079F07C8F30895A8E5B4E02FB7F89451
:100980007D918D919C9166B52FBFA89B05C06F3F4F
:1009900018F47F5F8F4F9F4F22E0660F771F881FED
:1009A000991F2A95D1F70895FC0180917C05882331
:1009B00011F13FB7F89482E08093E9002091F200B2
:1009C000822F90E01816190614F481E090E0882335
:1009D00039F0289844E640937B054091F10040832C
:1009E000222339F02091F200211103C02BE620933D
:1009F000E8003FBF08958FEF9FEF08952FB7F89459
:100A000083E08093E9009091E800892F807295FF40
:100A100004C09091F20080E4891B2FBF089580915B
:100A2000730581110DC082E080936F0584E080938F
:100A30007005109272051092710581E08093730524
:100A40008FE695E008958F929F92AF92BF92CF92DA
:100A5000DF92EF92FF920F931F93CF93DF936C017E
:100A60007B018A0180910D01882309F458C080918F
:100A70007C05882309F453C080911E0580FF05C0C2
:100A80008091E00082608093E000E801B12C8AEF61
:100A9000A82E93E0892E2AE3922E209711F4BB20F2
:100AA000B9F10E94FE04811106C0AA94AA20B9F1EE
:100AB0000E94A704F2CF8C171D0611F00CF08C2FAA
:100AC0009FB7F8948092E9002091E80025FD02C0CC
:100AD0009FBFE3CF282F30E0C21BD30BF70181501B
:100AE00020F041914093F100FACFE20EF31EBB20BB
:100AF00021F09092E800B12CEBCF8091E80085FDC9
:100B0000E7CF9092E800BB24B394209709F3F3CF8A
:100B10005D9884E680931D05101611063CF081E077
:100B200090E0F6019383828310E000E0C801DF913A
:100B3000CF911F910F91FF90EF90DF90CF90BF90DA
:100B4000AF909F908F900895CF93DF931F92CDB772
:100B5000DEB76983DC01ED91FC910280F381E02D29
:100B600041E050E0BE016F5F7F4F09950F90DF912C
:100B7000CF91089583E08093E9008091F20088236B
:100B800019F08AE38093E80008950E94FE0490E043
:100B90000895CF93DF931F92CDB7DEB7FC01848514
:100BA000958597FD08C02FEF3FEF358724870F907D
:100BB000DF91CF910895CE0101960E94D404019750
:100BC00019F4898190E0F3CF8FEF9FEFF0CF0F936F
:100BD0001F93CF93DF931F92CDB7DEB78C01FC013B
:100BE0008485958597FF0BC0CE0101960E94D404A1
:100BF000019771F4898190E0F80195878487F80165
:100C0000848595850F90DF91CF911F910F91089565
:100C10008FEF9FEFF1CFFC018485958597FD0BC089
:100C20009FB7F89482E08093E9008091F2009FBF23
:100C300090E0019608959FB7F89482E08093E900D0
:100C40008091F2009FBF90E0089540911905509166
:100C50001A05209117053091180542175307B4F46F
:100C60009091E8009570E1F39091E80092FD19C031
:100C70008093F1008091190590911A0501968F7368
:100C80009927892B19F48EEF8093E800809119053C
:100C900090911A05019690931A058093190581E0A9
:100CA000089580E00895EF92FF920F931F93CF93E2
:100CB000DF93F82E192FE62E042F81E0860F880F80
:100CC0000E94250683E00E942506CF2DD12FEC0E31
:100CD000FD2EF11CCE15DF05B9F007FF13C0FE0194
:100CE00084910E942506182F80E00E94250681230A
:100CF00021968111EFCFDF91CF911F910F91FF903E
:100D0000EF9008958881EDCF81E0F5CFDF92EF92EB
:100D1000FF920F931F93CF93DF93D82E8A01EB019D
:100D20007B01E40EF51ECE15DF0559F0D7FE12C08B
:100D3000FE0184910E94250621968111F4CF0FEFC8
:100D40001FEFC801DF91CF911F910F91FF90EF909E
:100D5000DF9008958881EECF0F931F93CF93DF9399
:100D60001F92CDB7DEB782E0898342E450E061ECA8
:100D700076E080E80E9486060E940F05DC0112964C
:100D80000D911C910115110589F0D801ED91FC918F
:100D90000280F381E02DBE016F5F7F4FC80109958E
:100DA00097FD04C0F80100851185ECCF89810F9073
:100DB000DF91CF911F910F910895615030F02091F4
:100DC000F100FC0120830196F8CF289884E68093F7
:100DD0007B050895BC0190E080E0AB01FC010E941E
:100DE000BC0441505109E109F10928F068517C4FD8
:100DF0008F4F9F4FF6CFAB01FC010E94BC046417DC
:100E000075078E079F07C8F308958FB18095807F7F
:100E1000669B88601C9B84600895109204053E9830
:100E20003F9808953E9A3F9A81E080930405089583
:100E3000CF92DF92EF92FF92CF93C82F6B01F12CEC
:100E4000E12C60E074E284EF90E0A70196010E943B
:100E5000551B215031094109510991E021153105F6
:100E600081E0480751056CF060E970ED83E090E0A7
:100E7000A70196010E94551B2150310941095109D2
:100E800093E0C130C9F080919100887F892B8093D5
:100E90009100309399002093980010929500109241
:100EA000940080917100826080937100CF91FF90D7
:100EB000EF90DF90CF90089580918100887F892BFB
:100EC00080938100309389002093880010928500E0
:100ED0001092840080916F00826080936F00E6CF53
:100EE000282F823009F1E82FF0E08130F1F0809175
:100EF00071008D7F8093710046983091550481E098
:100F000090E0A0E0B0E004C0880F991FAA1FBB1FAB
:100F10002A95D2F78095832380935504EE0FFF1F07
:100F2000E459FB4F11821082089580916F008D7FEC
:100F300080936F004798E1CFAF92BF92DF92EF921C
:100F4000FF920F931F93CF93DF93E82EC82FD0E02B
:100F500081E090E0A0E0B0E00E2C04C0880F991F63
:100F6000AA1FBB1F0A94D2F7D82EF82EF0948E0138
:100F7000000F111F04591B4FD801ED91FC911197DF
:100F8000309709F46AC0CF01019611969C938E9315
:100F90002491203981F53296ED93FC93FC018491E4
:100FA00087FF0FC0809155048F218093550468EE10
:100FB00073E08E2D0E94180798EEA92E93E0B92EAB
:100FC000DBCFE82FF0E0803378F4EC53FA4FE49174
:100FD000AE2EB12C809155048D2980935504B50116
:100FE0008E2D0E941807C8CFEE0FFF1FEC53FB4F4A
:100FF000A590B490EFCF2038A9F227FD38C03296E3
:10100000ED93FC93FC018491322F282FD5010E948F
:10101000A91B6C507E4F8F4F9F4F28EE33E040E06E
:1010200050E00E94871BCC0FDD1FCC0FDD1FC35B80
:10103000DB4F288339834A835B8388819981AA8126
:10104000BB81892B8A2B8B2B41F481E090E0A0E0BF
:10105000B0E088839983AA83BB83DF91CF911F91EE
:101060000F91FF90EF90DF90BF90AF9008952F7E8B
:10107000203E09F081CF8E2DDF91CF911F910F91EE
:10108000FF90EF90DF90BF90AF900C9470072F927D
:101090003F924F925F926F927F928F929F92AF9208
:1010A000BF92CF92DF92EF92FF920F931F93CF9355
:1010B000DF9300D000D000D01F92CDB7DEB78E8373
:1010C00049835A836B837C83280139011501309150
:1010D00006053D83383008F057C020E030E040EC92
:1010E00050EC69817A818B819C810E94681E181660
:1010F0000CF04AC020E030E040E053E469817A819E
:101100008B819C810E94251C87FF3EC020E030E03F
:1011100040EC50ECC301B8010E94681E1816A4F5FB
:1011200020E030E040E852E4C301B8010E94251CF1
:1011300087FF2AC04E81042F10E0CC2009F4CAC0DA
:101140000152110926E0209FC001219F900D11241A
:101150008C0100511D4F8D81E82F880FFF0BED543E
:10116000F94F34913F83C301B2010E94A11C4B018E
:1011700069817A818B819C810E94A11CCB012F8186
:10118000A801B4010E94C20380914C04882309F491
:1011900088C0EE2009F485C020E030E040E852EC41
:1011A00069817A818B819C810E94681E87FDA0C025
:1011B00020E030E040E453E469817A818B819C81B6
:1011C0000E94251C87FF94C020E030E040E852ECEC
:1011D000C301B2010E94681E87FD8AC041E04F83AF
:1011E00020E030E040E053E4C301B2010E94251C3E
:1011F00087FF1F828F8180FF54C0CC2009F47AC002
:101200008E8189518F8320E030E040E85FE369817F
:101210007A818B819C810E94B91B0E94A11C6E83E4
:1012200020E030E040E85FE3C301B2010E94B91B57
:101230000E94A11C95E025E030911605A4EFB1E0D5
:1012400080E06E80E62C660CFF08422F50E0EE270F
:10125000FF27E41BF50BFA83E983C62E062E000C4C
:10126000DD08092F10E0119501951109812C912CB1
:1012700054018394831378C07D8077FC12C0883733
:1012800080F435E0839FF0011124EC50FE4F6F8015
:1012900060827E8071826283238394838F5F8093D8
:1012A000160527960FB6F894DEBF0FBECDBFDF91AF
:1012B000CF911F910F91FF90EF90DF90CF90BF9053
:1012C000AF909F908F907F906F905F904F903F90E6
:1012D0002F9008950156104EB3E0000F111FBA95DC
:1012E000E1F780915C0490915D04080F191F33CFE2
:1012F00080E081CFEE81EB5FEF833E81E32FF0E072
:10130000E156F04EA3E0EE0FFF1FAA95E1F78091A2
:101310005C0490915D04E80FF91F369605911491D5
:10132000602F6F7070E090E080E00E94D91C2981EE
:101330003A814B815C810E94B91B0E94A11C6E8383
:10134000602F62956F7070E090E080E00E94D91C81
:10135000A30192010E94B91B0E94A11C212F2F7092
:10136000912F92959F7068CF12967C911297139649
:10137000FC9113971496EC91149711964C91119738
:101380003701641A710847FD7394A30169807A805C
:10139000641675068CF5F417150671F16CF1A6014B
:1013A000471B510977FD5395041715072CF571E07C
:1013B000E417150609F00CF470E0472F40FF19C040
:1013C0004C91E42FE295EF70F0E0EE0FFF1FE20D7D
:1013D000F31D4F702401350104C0440C551C661CDC
:1013E000771C4A95D2F74081518144295529518370
:1013F00040838F5F15963ECF40E0E0CF83E080933F
:10140000060581E080934C040895CF92DF92EF921D
:10141000FF9281E080930F05C0906804D09069042A
:10142000E0906A04F0906B04609166047091670428
:1014300090E080E00E94D71CA70196010E94251C25
:1014400087FF08C0C701B6010E94A81C70936704FB
:1014500060936604109268041092690410926A0402
:1014600010926B048091F50487708093F50480914D
:10147000F90487708093F9048091FD04877080934C
:10148000FD04809101058770809301051092F3019E
:1014900090E080E0FC0123E0EE0FFF1F2A95E1F7CA
:1014A000E858FB4F2081207C2083019680319105F4
:1014B00089F70E94FE098FEF80930D058FEF9FEF54
:1014C0009093150580931405FF90EF90DF90CF90D7
:1014D000089590910E0590952091010192239823F3
:1014E00081E009F480E00895809106058093050568
:1014F00083E0809306050895E62F262F22952F700E
:1015000030E0220F331F820F931FDC014D915C915D
:1015100070E060E0EF7081E090E0A0E0B0E004C037
:10152000880F991FAA1FBB1FEA95D2F78423952322
:10153000A623B72321E0892B8A2B8B2B09F420E0EB
:10154000822F08952F923F924F925F926F927F92D7
:101550008F929F92AF92BF92CF92DF92EF92FF92C3
:101560000F931F93CF93DF93CDB7DEB768970FB676
:10157000F894DEBF0FBECDBF1C017C8B6B8B2901A5
:101580003A014701DC2C9E012F5F3F4F3A8B298B9C
:1015900080E1F90111928A95E9F78B899C890E9473
:1015A000361BF82E20E030E040E450E4C301B201E5
:1015B0000E94B81B2B013C0120E030E040E450E4E5
:1015C000C801B4010E94B81B6D8B7E8B8F8B988FE6
:1015D000912C812C8F1410F180E1FE013196D10104
:1015E00001900D928A95E1F7C10168960FB6F894C3
:1015F000DEBF0FBECDBFDF91CF911F910F91FF9046
:10160000EF90DF90CF90BF90AF909F908F907F90A2
:101610006F905F904F903F902F900895EB89FC89D9
:10162000E80DF91D84919FED980F9E3578F49E0189
:101630002F5F3F4F5901CC24C394ED2C0D891E8997
:101640002F89388DB301A2010E94470820E030E0C5
:1016500040EC50E4C301B2010E94B91B2B013C01D4
:101660003FEF831A930AB6CF2F923F924F925F9229
:101670006F927F928F929F92AF92BF92CF92DF92A2
:10168000EF92FF920F931F93CF93DF93CDB7DEB707
:1016900069970FB6F894DEBF0FBECDBF4C015B015A
:1016A000CA01B901E98AFA8A0B8B1C8BFC2C9E01BA
:1016B0002F5F3F4F190120E1F10111922A95E9F7BF
:1016C000F50101900020E9F731972E2F2A192D8B73
:1016D00020E030E040E450E40E94B81B2B013C01C4
:1016E00020E030E040E450E469897A898B899C8964
:1016F0000E94B81B6E8B7F8B888F998FDA2CA98AFA
:10170000BA8A89898D19FD898F1708F180E1F10165
:10171000D40101900D928A95E1F7C40169960FB644
:10172000F894DEBF0FBECDBFDF91CF911F910F9117
:10173000FF90EF90DF90CF90BF90AF909F908F90F1
:101740007F906F905F904F903F902F900895E98920
:10175000FA898191FA8BE98B9FED980F9E3560F4A1
:101760005101CC24C394EF2C0E891F89288D398D0B
:10177000B301A2010E94470820E030E040EC50E4B1
:10178000C301B2010E94B91B2B013C01BACF2F92B9
:101790003F924F925F926F927F928F929F92AF9201
:1017A000BF92CF92DF92EF92FF920F931F93CF934E
:1017B000DF93CDB7DEB761970FB6F894DEBF0FBEEB
:1017C000CDBF3C01698B59016A01C801B7019E0177
:1017D0002F5F3F4F490120E1F40111922A95E9F76B
:1017E00020E030E040E450E40E94B81B1B012C01D3
:1017F00020E030E040E450E4C601B5010E94B81B8F
:10180000AB01BC015401C12CEE24E394920181018F
:1018100089890E94470880E1F401D30101900D926B
:101820008A95E1F7C30161960FB6F894DEBF0FBE4B
:10183000CDBFDF91CF911F910F91FF90EF90DF907F
:10184000CF90BF90AF909F908F907F906F905F9060
:101850004F903F902F9008954F925F926F927F929A
:101860008F929F92AF92BF92CF92DF92EF92FF92B0
:101870002B013C0149015A010E945D1D6B017C0155
:1018800020E030E0A901C301B2010E94681E87FD7B
:1018900018C020E030E0A901C701B6010E94B91BC1
:1018A0006B017C01C701B601FF90EF90DF90CF90F4
:1018B000BF90AF909F908F907F906F905F904F9070
:1018C0000895A7019601C501B4010E94B91B20E04B
:1018D00030E0A9010E94B91B6B017C01AC019B01A6
:1018E000C501B4010E94251C1816E4F2A50194015B
:1018F000C701B6010E94B81BD3CF2F923F924F92DF
:101900005F926F927F928F929F92AF92BF92CF928F
:10191000DF92EF92FF920F931F93CF93DF93CDB798
:10192000DEB7C155D1090FB6F894DEBF0FBECDBFEB
:101930008091140590911505892B09F04CC01092E7
:10194000EA011092EB011092EC011092ED0110925D
:10195000EE011092EF011092F0011092F10190E06F
:1019600080E036E0389FF001399FF00D1124E15AF4
:10197000FE4F20812F77208301968831910591F7C2
:10198000109259011092580190E080E0FC01EE0F96
:10199000FF1FEF5BFE4F20812F77208301968C3055
:1019A0009105A1F710923F0189E080933E0180E00C
:1019B00090E0A0E8BFE380933A0190933B01A093AD
:1019C0003C01B0933D011092360110923701109204
:1019D0003801109239012091360130913701409140
:1019E0003801509139016091EE017091EF018091C1
:1019F000F0019091F1010E94B91B6B017C010E94E2
:101A0000A11C27966FAF2797062E000C770B880B2B
:101A1000990B0E94D91C9B01AC01C701B6010E9421
:101A2000B81B60933601709337018093380190930F
:101A300039018091580127962FAD2797821B8093FB
:101A4000580187FFC6C0E09059010E2D10E036E026
:101A5000E39E70011124C701865A9E4F7C0187EFD7
:101A6000D7018C930E94261B61E370E00E942B1F1C
:101A7000BC01645F7F4F072E000C880B990B0E94FE
:101A8000D91CF70161837283838394830E94261B90
:101A90009F77BC01990F880B990B0E94D91C20E0FD
:101AA0003EEF4FEF56E40E942F1C20E030E0A901EA
:101AB0000E94B91B2DEC3CEC4CE45EE30E94251C1B
:101AC00060E087FF52C04090100550901105609073
:101AD0001205709013050E94261B7C010E94261B94
:101AE0005C01B7017F77072E000C880B990B0E94D1
:101AF000D91C20E03EEF4FEF56E40E942F1C6B01F3
:101B00007C0120E030E040E85FE3C301B2010E94C5
:101B1000B81B9B01AC01C701B6010E946D1E20E0FD
:101B200030E040E85FE30E94B91B20E030E040E88D
:101B300051E40E946D1E6B017C01C50162E070E002
:101B40000E942B1FBC01660F771F61507109072E81
:101B5000000C880B990B0E94D91C9B01AC01C7019A
:101B6000B6010E946D1E0E94A11C86E0809FF001BC
:101B7000819FF00D1124E15AFE4F862F8F776081EF
:101B80006078682B2FEF20FB67F960830E94261B8B
:101B900065E370E00E942B1F9C01245F3F4F809102
:101BA0005801820F809358016091590170E06F5F76
:101BB0007F4F072E000C880B990B0E94D91C20E048
:101BC00030E040EC51E40E942C0C0E94A81C609371
:101BD00059016AE5A62E61E0B62E912C812C76E0A3
:101BE000D72E27963FAD2797632E330F7708D89CC3
:101BF000F001D99CF00D1124DF01A65ABE4F1596B5
:101C00008C9187FF62C0D5018C919301280F311D03
:101C100087FD3A95E15AFE4F203831050CF073C329
:101C2000022F2C931081110F1595612F012E000C9E
:101C3000770B880B990B0E94D91C2AE939E949E9ED
:101C40005CE30E946D1ED50111962D913D914D9141
:101C50005C9114970E94B91B1B012C01F501218294
:101C600032824382548220E030E040E451E40E941A
:101C7000251C87FD0AC020E030E040E752E4C201A5
:101C8000B1010E94681E18166CF4D89CF001D99C12
:101C9000F00D1124E15AFE4F11951F778081807855
:101CA000182B1083602F000F770B880B990B0E9465
:101CB000D91C9B01AC01CC24C394820171016EEE4E
:101CC00072E0CE0141960E94A20AFFEF8F1A9F0A8E
:101CD00026E0A20EB11C38E18316910409F087CFEB
:101CE00040901005509011056090120570901305FA
:101CF0002DEC3CEC4CE45DE3C301B2010E946D1E8F
:101D00002091EA013091EB014091EC015091ED01FD
:101D10000E94B91B6B017C012BED3FE049EC50E4C4
:101D20000E94681E87FFF3C2C092EA01D092EB01C5
:101D3000E092EC01F092ED01C090EA01D090EB014D
:101D4000E090EC01F090ED01C701B6010E94DA1EAF
:101D500020E030E040EA51E40E946D1E20E030E0D7
:101D600040E152E40E94B91B4B015C018CE20E94ED
:101D7000690A882319F084E080930D0580910101A0
:101D80008C7220E030E040E85FE321F42DEC3CEC85
:101D90004CEC5DE3C301B2010E946D1E6093EE0145
:101DA0007093EF018093F0019093F1012BED3FE0F0
:101DB00049EC5FE3C701B6010E94681E87FD0AC0B7
:101DC00011E024EE3BEC46E950E4C701B6010E9465
:101DD000251C87FF10E06091140563FB662760F9FE
:101DE00010FF60E06F598501740120E030E046EE9D
:101DF00052E4CE01C6960E94C70B6E0181E2C80E66
:101E0000D11C20E030E040EC50E4C501B4010E9458
:101E1000B81B7B018C0120E030E046EE52E463E623
:101E2000C6010E94C70B61E1C6010E947C0A609650
:101E30008FAF6097A0E4B1E02996BFAFAEAF29970E
:101E4000312C212C2796EFAD27970E2E000CFF0B7F
:101E50006296FFAFEEAF62972A96CFAE2A972B9687
:101E6000DFAE2B97F101EE0FFF1FDF01A05CBE4F2D
:101E700011968C9187FF23C12996AEADBFAD2997EE
:101E80008C9162962EAD3FAD6297280F311D87FD74
:101E90003A95EF5BFE4F203831050CF00DC1122F43
:101EA0002C936081660F6595062E000C770B880BCE
:101EB000990B0E94D91C6B017C01612F110F770BCC
:101EC000880B990B0E94D91C9B01AC0187017601FC
:101ED00063E62A968FAD2A972B969FAD2B970E948B
:101EE000C70B66E62A968FAD2A972B969FAD2B9748
:101EF0000E947C0A811117C067E62A968FAD2A9747
:101F00002B969FAD2B970E947C0A81110CC068E62E
:101F10002A968FAD2A972B969FAD2B970E947C0A0D
:101F2000882309F4CCC080913A0190913B01A091A3
:101F30003C01B0913D012F968CAF9DAFAEAFBFAFCE
:101F40002F97BC01CD010E94A11C072E000C880B0D
:101F5000990B0E94D91C6B017C0140906804509041
:101F6000690460906A0470906B0420E030E0A9017D
:101F70000E94251C87FFDCC1A3019201C701B601A5
:101F800090580E94681E18160CF0D2C11092680476
:101F90001092690410926A0410926B0420E030E4FD
:101FA0004CE156E4C701B6010E94681E87FF68C075
:101FB00020E030E44CE955ECC701B6010E94251C35
:101FC00087FD5EC05090F30194E0599E800111247A
:101FD0000E501B4FD80111968C911197806C119661
:101FE0008C93119712968C911297807E8C61682E3B
:101FF00012968C9320E030E040EA51E4C501B40130
:102000000E94B81B20E030E04CE752E40E94331DF0
:102010009B01AC0160E070E0CB010E94141D0E94A6
:10202000A81C862F8295880F807EB62DBF716B2EDF
:10203000682AF80162826695669566956770738076
:10204000F72DF87F7F2E762AD80113967C9220E018
:1020500030E44CE955E4C701B6010E94B91B0E9467
:10206000A81CF8016083706C7183672D6770606FC6
:10207000638381E0850D843008F069C18093F301AA
:1020800020E030E040E251E42F966CAD7DAD8EADA6
:102090009FAD2F970E94B91B60933A0170933B014B
:1020A00080933C0190933D01F6E0F0930D05F10122
:1020B000EE0FFF1FEF5BFE4F80818F7780832FEF46
:1020C000221A320A29968EAD9FAD2997029629963B
:1020D0009FAF8EAF29979CE02916310409F0C2CE3C
:1020E00080913E012796AFAD27978A1B80933E01D2
:1020F00087FF2DC00E94261B61E270E00E942B1F0B
:102100006C01B4E1CB0ED11C8FEF809306056C2DD2
:102110000C2C000C770B880B990B0E94D91C7B01AF
:102120008C0120E030E040E450EC63E6CE01819683
:102130000E94C70B61E1CE0181960E947C0A882330
:1021400009F408C180913E01875F80933E012AE037
:1021500037ED43EA5CE360911005709111058091C1
:102160001205909113050E946D1E9B01AC016091B8
:102170003A0170913B0180913C0190913D010E9498
:10218000B81B20E030EC49E754E40E94331D9B016A
:10219000AC0160E070E080E89FE30E94141D609352
:1021A0003A0170933B0180933C0190933D0123E001
:1021B000209306050E94A81C7F936F938BE291E009
:1021C0009F938F935E0131E3A30EB11CBF92AF9238
:1021D0000E94651FCC24C394E12CF12C00E111E492
:1021E00020E030E040E450E4B501CE0101960E94C9
:1021F000340B0F900F900F900F900F900F906096F0
:102200008FAD6097882309F464C082E080930D0548
:1022100080930F050E94740A10920605DD24D39462
:1022200093E0B92E8D2D6B2D0E941D1F192F682F45
:10223000880F770B880B990B0E94D91C20E030E0A7
:1022400040E052E40E94B91B20E030E040E85FE348
:102250000E94B81B2B013C01612F110F770B880BDB
:10226000990B0E94D91C20E030E044E152E40E9426
:10227000B91B20E030E040E85FE30E94B81B9B01FF
:10228000AC01C12C8301720164EE72E0CE01C696EE
:102290000E94A20AD394D39499E0D912C3CFB092EA
:1022A0000605E12CF12C00E012E420E030E044E1EE
:1022B00052E464EE72E0CE01C6960E94A20A8091BA
:1022C0000505809306058FEF9FEF9093150580938A
:1022D0001405CF5ADF4F0FB6F894DEBF0FBECDBF47
:1022E000DF91CF911F910F91FF90EF90DF90CF90F2
:1022F000BF90AF909F908F907F906F905F904F9026
:102300003F902F90089580818F778083DECC2BEDD6
:102310003FE049EC50E4C701B6010E94B81B60934E
:10232000EA017093EB018093EC019093ED0104CDF1
:10233000A3019201C701B6010E94B91B6093680412
:102340007093690480936A0490936B0427CE109273
:10235000F30196CEE0913F01F0E0EE0FFF1FDF01A9
:10236000A05CBE4F8DEF8C93EF5BFE4F9C2D9F7753
:1023700080818078892B2FEF20FB87F980830E9452
:10238000261B63E370E00E942B1F9C01205E3F4FE1
:1023900080913E01820F80933E0160913F0170E089
:1023A0006F5F7F4F072E000C880B990B0E94D91C82
:1023B00020E030E040E451E40E942C0C0E94A81C74
:1023C00060933F01C4CE1F920F920FB60F9211245B
:1023D0008F939F938091E1009091E100937F909380
:1023E000E10083FF0FC01092E90091E09093EB00B1
:1023F0001092EC0092E39093ED0010927C0598E02F
:102400009093F00082FF22C093E09093E9009091B6
:10241000F200992319F09AE39093E80090911D053A
:10242000992341F090911D05915090931D059111B4
:1024300001C05D9A90917B05992341F090917B05B5
:10244000915090937B05911101C0289A84FF18C088
:102450008091E2008E7E81608093E2008091E100B5
:102460008F7E8093E10080911E058E7E8061809337
:102470001E059F918F910F900FBE0F901F90189582
:1024800080FFF7CF8091E2008E7E80618093E20032
:102490008091E1008E7E8093E10080911E058E7E0A
:1024A0008160E5CF1F920F920FB60F921124CF9249
:1024B000DF92EF92FF920F931F932F933F934F93CF
:1024C0005F936F937F938F939F93AF93BF93EF939C
:1024D000FF93CF93DF93CDB7DEB76C97DEBFCDBF51
:1024E0001092E9008091E80083FF25C068E0CE01EA
:1024F00045960E94DD0682EF8093E8008D8987FF74
:1025000039C09091E80090FFFCCF982F907609F0A9
:1025100034C19E894F89588D2F89F88C911131C013
:10252000803861F580911C058093F1001092F100D4
:102530008EEF8093E8006C960FB6F894DEBF0FBE66
:10254000CDBFDF91CF91FF91EF91BF91AF919F915F
:102550008F917F916F915F914F913F912F911F913B
:102560000F91FF90EF90DF90CF900F900FBE0F90E4
:102570001F9018959EEF9093E800C7CF1092F1003E
:10258000D5CF913059F48111D3CF4130510581F627
:1025900080911C058D7F80931C05CACF933049F430
:1025A0008111C6CF4130510519F680911C0582601A
:1025B000F2CF953041F48091E80080FFFCCF206895
:1025C0002093E300B5CF963009F0A9C00B8D1C8D88
:1025D00022E01092E90010921A0510921905F212E9
:1025E0002EC010921805109217050E94AC061F828B
:1025F00099E09983FA8291E09E8390EA98879AEF16
:1026000099872091190530911A05275F3F4F3C8328
:102610002B838D831092E90010921A0510921905F0
:10262000109318050093170549E050E0BE016F5F55
:102630007F4F80E00E9486060E94AC0679CF1093FF
:102640001805009317050E940F05DC0112960D91E5
:102650001C910115110509F451C1D801ED91FC91AE
:102660000480F581E02DBE016B5E7F4FC8010995A6
:10267000009709F03EC1F80100851185EACFF3E02B
:10268000FF120EC08F89882309F440C0823061F4A4
:1026900040E867E085E297E00E945306811148CF49
:1026A00081E28093EB0047CF813029F440E86BE072
:1026B00089E197E0F1CF833099F70E940F05DC01A3
:1026C0001296ED90FC908E010F5F1F4F6801E11490
:1026D000F10479F0D701ED91FC910680F781E02DAE
:1026E000B801C7010995080F111DF701E084F184B5
:1026F000EECFD8011C92F60101900020E9F7319746
:10270000BF016C197D0940E0C601C6CF63E077E0E8
:10271000FB01449150E080E80E94860609CF973083
:1027200009F4BECF983021F481E08093F10000CF0E
:10273000993009F0FDCE837009F0B2CFE3E1F1E00A
:1027400081E031E096E32191222371F08093E9004A
:102750003093EB00DF0111972C912093EC009093C4
:10276000ED008F5F873079F78EE78093EA00109253
:10277000EA008F8980937C05DBCE8B8D9C8D109237
:10278000E90010921A05109219059093180580938C
:102790001705898D811192C08E899D89913A49F4DE
:1027A000813209F07DCF47E050E066E071E080E0E3
:1027B000B3CF913209F074CF833269F48F89988D49
:1027C000B0E0A0E08093020190930301A093040184
:1027D000B0930501ADCE803269F48091E80082FFAC
:1027E000FCCF67E086E091E00E94DD068BEF8093EE
:1027F000E8009ECE823209F09BCE8F8980930D0136
:10280000EEEFFFE7859194918B3F9C4D51F1E0E015
:10281000F8E08091060190910701A0910801B09124
:102820000901803B9440A105B105F1F480910D01AF
:1028300080FD1AC0EE3F8AE0F80789F587E797E741
:10284000918380838091600080931B0588E19BE0E9
:102850000FB6F894A895809360000FBE9093600027
:1028600067CEEEEFFAE0D5CF808191818737974729
:1028700009F05ECEA8958091600088618093600029
:1028800080911B0580936000EE3F2AE0F20789F0FB
:102890008091FE0A9091FF0A9183808349CE8081C6
:1028A00091818737980751F29093FF0A8093FE0A2F
:1028B000C5CF1092FF0A1092FE0A3ACE0E940F0571
:1028C000DC0112960D911C910115110509F4E8CE59
:1028D000D801ED91FC910190F081E02DBE016B5E7D
:1028E0007F4FC8010995811123CEF801008511851C
:1028F000EBCF181619060CF41BCED2CEF1E0FF1266
:10290000BECE67E077E004CF0F920FB68F939F9310
:10291000EF93FF93809157048D5F8D3708F08D57AB
:1029200080935704EEE5F4E080818E4F808391819F
:102930009F4F918382818F4F828383818F4F8383C7
:10294000E8E5F4E080818F5F808381818F4F818310
:1029500082818F4F828383818F4F83838FB18F607A
:1029600066991C9B88278F3681F480915604981BAA
:10297000963068F0E0E0F8E087E78083818388E1C3
:1029800080936000F0936000FFCF90935604FF9116
:10299000EF919F918F910FBE0F9018951F920F92FC
:1029A0000FB60F9211242F933F934F935F936F9322
:1029B0007F938F939F93AF93BF93EF93FF938091F8
:1029C000550481FF03C088B1805888B980915104B3
:1029D00090915204A0915304B0915404892B8A2BF6
:1029E0008B2BD1F08091510490915204A09153040B
:1029F000B09154040197A109B109809351049093B7
:102A00005204A0935304B0935404892B8A2B8B2B2C
:102A100019F481E00E949C07FF91EF91BF91AF9163
:102A20009F918F917F916F915F914F913F912F91E6
:102A30000F900FBE0F901F9018951F920F920FB618
:102A40000F9211242F933F934F935F936F937F9334
:102A50008F939F93AF93BF93EF93FF938091550410
:102A600080FF04C088B190E4892788B980914D0423
:102A700090914E04A0914F04B0915004892B8A2B61
:102A80008B2BD1F080914D0490914E04A0914F0476
:102A9000B09150040197A109B10980934D0490931E
:102AA0004E04A0934F04B0935004892B8A2B8B2B98
:102AB00019F480E00E949C07FF91EF91BF91AF91C4
:102AC0009F918F917F916F915F914F913F912F9146
:102AD0000F900FBE0F901F901895EFE1F5E0138255
:102AE000128288EE93E0A0E0B0E084839583A68311
:102AF000B7838DE191E0918380838FEF9FEF95877E
:102B000084870895CDB7DEB7A397DEBFCDBF789495
:102B100083E084BD83E085BD81E080936E00E1E8C1
:102B2000F0E083E08083E0E881E08083E1E983E016
:102B30008083E0E981E08083E1EC87E08083E3EC5F
:102B400081E08083E0EC82E08083E2EC81E08083BE
:102B5000EAE787E080838068808310927C0510928A
:102B60001C0510921E058091D70081608093D700CC
:102B700080EA8093D80089B5806189BD89B582607B
:102B800089BD09B400FEFDCF0E94A7048091D80042
:102B90008F7C80618093D8008091E000807F80935B
:102BA000E0008091E1008E7E8093E1008DE08093D3
:102BB000E200559A209A85E396E090930C05809365
:102BC0000B0580E296E090930A058093090588E062
:102BD00096E090935D0480935C0484EF95E090937D
:102BE0007104809370048DE79CE0909303058093BB
:102BF000020581EC80937C0085B1806F85B984B13A
:102C0000877E84B984B1876E84B95E9A5F988AB1F1
:102C1000806D8AB9769A6E9881B3806F81BB8998EE
:102C200080B38D7080BB80E58CBD81E08DBD85E07B
:102C300090E00E94EA065F9A85E090E00E94EA0632
:102C40005E985C98EFE3F6E08CE496E024912EBD6C
:102C500000000DB407FEFDCF31968E179F07B1F728
:102C60005C9A81E880936400809165008160809324
:102C700065000E948A040E94050787FF10C05C98C7
:102C800085EA8EBD00000DB407FEFDCF5C9A2E983C
:102C90002F982D9881E083BF889513BEFCCF0E94AA
:102CA000050782FF46C02D980E9405078478843866
:102CB000D9F42D9A88EC90E00E94EA062F9882E0E1
:102CC00090E00E943F1B8F3F29F06FEF82E090E081
:102CD0000E94471B84EF91E00E94EA062F9A0E940F
:102CE000050784788438D9F30E94050784718431FC
:102CF000D9F42D9A88EC90E00E94EA062E9882E0A2
:102D000090E00E943F1B882329F060E082E090E081
:102D10000E94471B84EF91E00E94EA062E9A0E94CF
:102D2000050784718431D9F388EC90E00E94EA06AB
:102D3000B6CF2D9A82E090E00E943F1B882309F4D1
:102D40008CC00E94120780E1809300018091650091
:102D5000877F8093650080916400877F8093640003
:102D60001092900089E080939100109280008093EF
:102D7000810080E00E94700781E00E94700710923D
:102D8000670410926604109268041092690410920D
:102D90006A0410926B0490E080E0FC0133E0EE0FD7
:102DA000FF1F3A95E1F7E858FB4F2081207C2083F4
:102DB00001968031910589F7E0900905F0900A05A8
:102DC00000E010E0C7010E94361B882359F0282F2D
:102DD000863108F025E1121708F4122F0F5F053035
:102DE00009F03EC000930705412F4150550B9A0151
:102DF0004AEF4203C001439F900D112480589F4F1A
:102E000095958795809308050E94FE0910920F05FD
:102E10000E94FE098FEF80930D0510921505109208
:102E20001405CE0104969B8F8A8F8FB7F89440913A
:102E30005E0450915F0460916004709161048FBFE3
:102E400080916404882389F01092640440E050E08B
:102E5000452B59F30E940000E8CF0E940D0773CF65
:102E600099270196E80EF91EADCF80916504942F45
:102E7000981B892F90910001891740F48F5F891763
:102E800028F781E083BF889513BEE0CF81E080936F
:102E900064044093650480916204909163040196F8
:102EA00090936304809362041092160500911405B8
:102EB00010911505B80190E080E00E94D71C20E039
:102EC00030E040E752E40E942F1C20E030E040E771
:102ED00052E40E942F1C20E030E040E85FE30E94B3
:102EE000B91B6093100570931105809312059093A0
:102EF00013058091010180930E050E9405078093C0
:102F00000101D0900F05D11067C18CE00E94690AC1
:102F1000F09004058823C1F082E090E00E943F1BFE
:102F2000F81629F06F2D82E090E00E94471B0E9466
:102F3000261B2091140530911505822793270E94A6
:102F40002B1B0E94050A52C080E10E94690A882357
:102F500059F0F11003C10E941207809104058823E3
:102F600019F088E080930D050E94740A011511057F
:102F700009F0F7C00E949A04A0900B05B0900C05D0
:102F8000C5010E94361B2AEF8C012003B001219F4E
:102F9000700D11246A577F4F7695679590E080E019
:102FA0000E94D71C9B01AC01C12CE12CF12C00E844
:102FB00011E4B501CE010A960E94A20A809104058F
:102FC000E3E0811101C0E0E00E2E000CFF0BED5498
:102FD000F94F24914BEB56E06AE370E090E080E01B
:102FE0000E94C20380910505809306050091140597
:102FF00010911505C8018F709927892B11F58091C3
:103000000D058930D8F4E0917004F091710421EA43
:10301000E22E26E0F22E309739F090E0880F991FCB
:10302000E80FF91FE590F49080E00E947007F0929D
:103030006D04E0926C0480E00E949C078FEF809307
:103040000D0501111AC080910F05813009F0AEC243
:10305000E0917004F09171040CE416E0309719F0DF
:1030600072960591149181E00E94700710936F048D
:1030700000936E0481E00E949C070E94740A83E022
:1030800080930605609168047091690480916A04D8
:1030900090916B040E94A81C7F936F93ACE2B1E007
:1030A000BF93AF9301E010E00C0F1D1F1F930F9310
:1030B0000E94651FC12CE12CF12C00E410E4A80152
:1030C0009701BE016F5F7F4FCE010A960E94340BBD
:1030D00088E4898389E48A8380E28B838091670412
:1030E0008F93809166048F932CE231E03F932F936E
:1030F0005B8D5F938A8D8F930E94651F63E0680FDD
:103100000AEF0603B00111246E577F4F072E000C03
:10311000880B990B0E94D91C9B01AC01E12CF12C6E
:1031200000E410E4BE016F5F7F4FCE010A960E945B
:10313000340B8091050580930605809114059091CC
:103140001505019690931505809314050E948A0435
:103150000FB6F894DEBF0FBECDBF78CE0E940D072C
:10316000FCCEA0900905B0900A05B6E09B2E0E316A
:10317000110509F023CF80910705D81608F01ECF5E
:10318000D99CB0011124072E000C880B990B0E94CA
:10319000D91C2DEC3CEC4CE052E40E94B91B2B01F5
:1031A0003C0160910805062E000C770B880B990BEB
:1031B0000E94D91C9B01AC01C12C83017201B50195
:1031C000CE010A960E94A20AC5010E94361B0196F2
:1031D000A80EB91ED394CFCF21E0D212CCC10E9449
:1031E0009A04E0910205F0910305099502E714E0C5
:1031F0001D8F0C8F312C212C8101A3E0000F111F9A
:10320000AA95E1F798012E583B4F3F8F2E8FD90199
:1032100016968C918F7309F0BCC0BFEF2B1A3B0A36
:103220000C8D1D8D085F1F4F1D8F0C8F10E1211617
:10323000310411F70E94740A912C812C6BE2762ED6
:103240005401AA0CBB1CAA0CBB1CF501EE50FB4F91
:103250008381887F09F494C080812181922F9F739C
:103260007C0128E8E21A23E1F20AFF92EF924CE295
:1032700051E05F934F938F2D8095A1E0B0E0AC0FAC
:10328000BD1F87FD1196CD019F93AF930E94651FCF
:10329000182F0F900F900F900F900F900F90F7FC3A
:1032A00002C079821F5FF501EB50FB4FD080D694AE
:1032B000D694D694DD9CB0011124072E000C880B07
:1032C000990B0E94D91C20E030E044E352E40E94B4
:1032D0002F1C1B012C01F501EC50FB4F6081862F48
:1032E00082958695877061816770660F660F660F9D
:1032F000682B70E090E080E00E94D91C9B01AC013B
:10330000C201B1010E94B91B1B012C01E12FE15048
:10331000FF0BCF01880F991F880F991F8F01081B82
:10332000190BF501ED50FB4F6081262F2295269554
:103330002695237061816F71660F660F622B600F97
:10334000712F711D072E000C880B990B0E94D91C40
:103350009B01AC01C12C82017101BE016F5F7F4FE7
:10336000CE010A960E94340BF501EE50FB4F1FE18F
:10337000D10EDD0CDD0CDD0C83818770D82AD38261
:103380002FEF821A920A34E08316910409F058CF85
:1033900029CE980128583B4F6901D9018C91B82F4B
:1033A000BF73FB2E8295869586958370F9016181A6
:1033B0006370660F660F682B70E090E080E00E94FB
:1033C000D91C20E030E040E851E40E946D1E4B0122
:1033D0005C016F2D70E090E080E00E94D91C9B01A1
:1033E000AC01C501B4010E94B91B9B01AC010E9454
:1033F0006D1E20E030E040E05AE30E946D1EAC8D6F
:10340000BD8D12962D913D914D915C9115970E9425
:10341000B91B68A379A38AA39BA3EC8DFD8D62835E
:103420007383848395838FE38F0D8F73D6019C9173
:10343000907C892B8C93F801E758FB4F608166954F
:10344000669570E090E080E00E94D91C2BED3FE093
:1034500049E450E40E946D1E20E030E040E05DE36E
:103460000E946D1E6B017C010E942A1C2B013C01F5
:10347000EC8DFD8D608170E090E080E00E94D71CB3
:103480004B015C01A301920168A179A18AA19BA1D2
:103490000E946D1E9B01AC01C501B4010E94B91BC5
:1034A0004B015C01C701B6010E94DA1E2B013C01F1
:1034B000AE8DBF8D11968C9187FF55C0B6E0BE8F43
:1034C000C501B4010E94A11C6B016038710508F0B0
:1034D000A4CEF801ED58FB4F60816F7770E090E06B
:1034E00080E00E94D71C4B015C01A301920168A1FE
:1034F00079A18AA19BA10E946D1E9B01AC01C5010F
:10350000B4010E94B91B0E94A11C6034710508F02F
:1035100084CEDB01E3E0B595A795EA95E1F7B69592
:10352000BA2FAA27B795A795AC0DBD1DA358BA4FC2
:103530006770772701E010E020E030E004C0000F62
:10354000111F221F331F6A95D2F7A8011E8DE12F8C
:10355000110FFF0BED54F94FE491E23031F48C91EF
:1035600048274C935ACE1E8EABCF8C91842B8C93D4
:10357000E130A9F752CE42E0D41238CD0C33110518
:1035800008F434CD8CE00E94690A8111DACC0C3247
:10359000114008F42BCD10920F058FEF9FEF909301
:1035A0001505809314050E94FE0920CD81E00E943C
:1035B000700763CD8F929F92AF92BF92CF92DF92AE
:1035C000EF92FF92CF93DF93EC01688179818A813A
:1035D0009B81611571058105910521F464E279ED06
:1035E0008BE597E02DE133EF41E050E00E94551B61
:1035F00049015A019B01AC01A7EAB1E40E94741B86
:103600006B017C01ACEEB4EFA50194010E94821B1A
:10361000DC01CB018C0D9D1DAE1DBF1DB7FF03C08E
:103620000197A109B04888839983AA83BB839F77B8
:10363000DF91CF91FF90EF90DF90CF90BF90AF9050
:103640009F908F9008950E94DA1A08958EE091E07D
:103650000E94DA1A0895B0E0A0E080930E019093E2
:103660000F01A0931001B09311010895FC01059082
:103670000020E9F7809590958E0F9F1F0895F99986
:10368000FECF92BD81BDF89A992780B50895262F67
:10369000F999FECF1FBA92BD81BD20BD0FB6F89437
:1036A000FA9AF99A0FBE01960895052E97FB1EF41B
:1036B00000940E946C1B57FD07D00E94871B07FCDB
:1036C00003D04EF40C946C1B509540953095219589
:1036D0003F4F4F4F5F4F089590958095709561953E
:1036E0007F4F8F4F9F4F08950E94A91BA59F900D5C
:1036F000B49F900DA49F800D911D11240895B7FFD4
:103700000C94741B0E94741B821B930B0895A1E2FE
:103710001A2EAA1BBB1BFD010DC0AA1FBB1FEE1F4B
:10372000FF1FA217B307E407F50720F0A21BB30B96
:10373000E40BF50B661F771F881F991F1A9469F712
:1037400060957095809590959B01AC01BD01CF016E
:103750000895A29FB001B39FC001A39F700D811D6A
:103760001124911DB29F700D811D1124911D08958A
:103770005058BB27AA270E94D01B0C941A1E0E94E7
:10378000E11D38F00E94E81D20F039F49F3F19F444
:1037900026F40C94DE1D0EF4E095E7FB0C94CA1D94
:1037A000E92F0E943F1E58F3BA1762077307840778
:1037B000950720F079F4A6F50C94611E0EF4E095BF
:1037C0000B2EBA2FA02D0B01B90190010C01CA01DB
:1037D000A0011124FF27591B99F0593F50F4503E86
:1037E00068F11A16F040A22F232F342F4427585F78
:1037F000F3CF469537952795A795F0405395C9F790
:103800007EF41F16BA0B620B730B840BBAF0915047
:10381000A1F0FF0FBB1F661F771F881FC2F70EC0E6
:10382000BA0F621F731F841F48F4879577956795B9
:10383000B795F7959E3F08F0B0CF9395880F08F0A5
:103840009927EE0F9795879508950E94A61D08F475
:1038500081E008950E94F11DE3950C942B1E0E94B7
:10386000431C0C941A1E0E94E81D58F00E94E11D92
:1038700040F029F45F3F29F00C94CA1D51110C94BB
:10388000621E0C94DE1D0E943F1E68F39923B1F363
:10389000552391F3951B550BBB27AA276217730776
:1038A000840738F09F5F5F4F220F331F441FAA1F0A
:1038B000A9F335D00E2E3AF0E0E832D091505040C6
:1038C000E695001CCAF72BD0FE2F29D0660F771F74
:1038D000881FBB1F261737074807AB07B0E809F05A
:1038E000BB0B802DBF01FF2793585F4F3AF09E3FDF
:1038F000510578F00C94CA1D0C94621E5F3FE4F3EE
:10390000983ED4F3869577956795B795F7959F5F21
:10391000C9F7880F911D9695879597F90895E1E06D
:10392000660F771F881FBB1F621773078407BA07CC
:1039300020F0621B730B840BBA0BEE1F88F7E09527
:1039400008950E94A81C6894B1110C94621E0895F9
:103950000E94471E88F09F5798F0B92F9927B751BA
:10396000B0F0E1F0660F771F881F991F1AF0BA9523
:10397000C9F714C0B13091F00E94611EB1E0089502
:103980000C94611E672F782F8827B85F39F0B93FF4
:10399000CCF3869577956795B395D9F73EF49095D6
:1039A0008095709561957F4F8F4F9F4F0895E89454
:1039B00009C097FB3EF490958095709561957F4F77
:1039C0008F4F9F4F9923A9F0F92F96E9BB27939525
:1039D000F695879577956795B795F111F8CFFAF435
:1039E000BB0F11F460FF1BC06F5F7F4F8F4F9F4F66
:1039F00016C0882311F096E911C0772321F09EE8C4
:103A0000872F762F05C0662371F096E8862F70E029
:103A100060E02AF09A95660F771F881FDAF7880F03
:103A20009695879597F90895990FBB0B550FAA0B9B
:103A3000E0E8FEEF16161706E807F90770F0121611
:103A40001306E407F50760F0BA173CF049F4621773
:103A5000730784079507A7951BF4B901CA01BA2F0C
:103A6000B69597950895990FBB0B550FAA0BE0E8F3
:103A7000FEEF16161706E807F90770F01216130680
:103A8000E407F50760F0BA1754F031F4261737074A
:103A900048075907A7951BF4B901CA01BA2FB69573
:103AA000979508950E94E11D20F019F00E94E81DED
:103AB00050F40C94DE1D0C94621EE92F0E943F1EF0
:103AC00088F35523B1F3E7FB621773078407950763
:103AD000A8F189F3E92FFF2788232AF03197660F91
:103AE000771F881FDAF7952F5527442332F091501E
:103AF0005040220F331F441FD2F7BB27E91BF50BA1
:103B0000621B730B840BB109B1F222F4620F731FB5
:103B1000841FB11D31972AF0660F771F881FBB1FC6
:103B2000EFCF9150504062F041F0882332F0660FA1
:103B3000771F881F91505040C1F793950C94D01D6A
:103B40008695779567959F5FD9F7F7CF990F00080E
:103B5000550FAA0BE0E8FEEF16161706E807F9075F
:103B6000C0F012161306E407F50798F0621B730BFA
:103B7000840B950B39F40A2661F0232B242B252B7B
:103B800021F408950A2609F4A140A6958FEF811D1E
:103B9000811D089597F99F6780E870E060E00895BF
:103BA0009F3F31F0915020F4879577956795B795B1
:103BB000880F911D9695879597F908959FEF80EC52
:103BC000089500240A941616170618060906089583
:103BD00000240A94121613061406050608950C9480
:103BE000DE1D0E94471ED8F3E894E0E0BB279F57F4
:103BF000F0F02AED3FE049EC06C0EE0FBB0F661F68
:103C0000771F881F28F0B23A62077307840728F0ED
:103C1000B25A620B730B840BE3959A9572F7803856
:103C200030F49A95BB0F661F771F881FD2F7904814
:103C30000C94D21D092E0394000C11F4882352F029
:103C4000BB0F40F4BF2B11F460FF04C06F5F7F4FC8
:103C50008F4F9F4F0895EF93E0FF07C0A2EA2AED30
:103C60003FE049EC5FEB0E94D01B0E941A1E0F90B0
:103C7000039401FC9058ECEAF0E00C94E21E57FD2E
:103C80009058440F551F59F05F3F71F04795880FCA
:103C900097FB991F61F09F3F79F087950895121661
:103CA00013061406551FF2CF4695F1DF08C016160D
:103CB00017061806991FF1CF8695710561050894BE
:103CC0000895E894BB2766277727CB0197F90895D5
:103CD0000E94A61D08F48FEF08950E94801E0C9488
:103CE0001A1E0E94E11D38F00E94E81D20F0952365
:103CF00011F00C94CA1D0C94DE1D11240C94621E4C
:103D00000E943F1E70F3959FC1F3950F50E0551F21
:103D1000629FF001729FBB27F00DB11D639FAA2720
:103D2000F00DB11DAA1F649F6627B00DA11D661F6F
:103D3000829F2227B00DA11D621F739FB00DA11D90
:103D4000621F839FA00D611D221F749F3327A00D4A
:103D5000611D231F849F600D211D822F762F6A2FE6
:103D600011249F5750409AF0F1F088234AF0EE0F4B
:103D7000FF1FBB1F661F771F881F91505040A9F778
:103D80009E3F510580F00C94CA1D0C94621E5F3F4B
:103D9000E4F3983ED4F3869577956795B795F795B4
:103DA000E7959F5FC1F7FE2B880F911D969587952C
:103DB00097F908959F930E94F11D0F9007FCEE5F05
:103DC0000C942B1E9F938F937F936F93FF93EF938E
:103DD0009B01AC010E946D1EEF91FF910E94F61EA7
:103DE0002F913F914F915F910C946D1EDF93CF9374
:103DF0001F930F93FF92EF92DF927B018C016894E7
:103E000006C0DA2EEF010E94801EFE01E894A59103
:103E10002591359145915591A6F3EF010E94D01B54
:103E2000FE019701A801DA9469F7DF90EF90FF9007
:103E30000F911F91CF91DF91089587FB082E0626E1
:103E400087FD819567FD61950E943F1F0EF4919556
:103E500007FC8195089597FB072E16F4009407D070
:103E600077FD09D00E944B1F07FC05D03EF49095CA
:103E700081959F4F0895709561957F4F0895991B87
:103E800079E004C0991F961708F0961B881F7A9551
:103E9000C9F780950895AA1BBB1B51E107C0AA1F53
:103EA000BB1FA617B70710F0A61BB70B881F991FDB
:103EB0005A95A9F780959095BC01CD010895EE0F14
:103EC000FF1F0590F491E02D0994AEE0B0E0EBE621
:103ED000FFE10C9414220D891E8986E08C831A83DD
:103EE00009838FEF9FE79E838D83AE01475E5F4F0F
:103EF0006F89788DCE0101960E94881F2F813885A9
:103F0000020F131FF80110822E96E4E00C94302269
:103F1000ABE0B0E0EEE8FFE10C9406227C013B014F
:103F20008A01FC0117821682838181FFC8C1CE01FC
:103F300001965C01F7019381F30193FD859193FF55
:103F400081913F01882309F453C1853239F493FDEF
:103F5000859193FF81913F01853229F4B70190E06B
:103F60000E947821E7CF912C212C312CFFE1F31511
:103F700038F08B3211F190F4803209F1833229F15B
:103F800037FC3CC020ED280F2A3050F536FE20C00B
:103F90008AE0989E200D1124922E06C08D3291F059
:103FA000803371F7689430F8F30193FD859193FFA6
:103FB00081913F018111DACF21C0689431F8689472
:103FC00032F8F2CF689433F8EFCF689434F8ECCF3E
:103FD000EAE02E9E200D1124222E689435F8E4CFBD
:103FE0008E3229F436FC04C1689436F8DDCF8C3665
:103FF00019F4689437F8D8CF8836B1F2982F9F7D9E
:1040000095549330E0F08336A1F18337C1F18335C5
:1040100009F063C02801F2E04F0E511CF801C08086
:10402000D180692D70E036FC02C06FEF7FEFC601D2
:104030000E9462214C01689437F882010AC00C5F2B
:104040001F4FFFE3F98388248394912C6501E89442
:1040500037F833FE2DC0522C8114910471F5552090
:1040600009F468CFB70180E290E00E9478215A9469
:10407000F6CFF801808189830E5F1F4FE4CF2801BE
:10408000F2E04F0E511CF801C080D180692D70E024
:1040900036FC02C06FEF7FEFC6010E946D214C011C
:1040A0008201D5CFB70180E290E00E9478212A9466
:1040B0002814190409F0B0F7CECFF60137FC85912A
:1040C00037FE81916F01B70190E00E947821511075
:1040D0005A94F1E08F1A9108BFCF843619F08936CF
:1040E00009F077C0F80137FE6BC060817181828171
:1040F00093810C5F1F4FF32DFF763F2E97FF09C072
:1041000090958095709561957F4F8F4F9F4F6894E4
:1041100037F82AE030E0A5010E94A821C82ECA186D
:104120008C2C432C36FE0CC0E89440F8C91440F4A3
:1041300034FE05C032FC03C0F32DFE7E4F2E892CC9
:1041400044FE95C0FE01EC0DF11D8081803309F025
:1041500087C0242D297E422E842D8870582E43FC42
:1041600095C040FE8FC09C2C821418F42C0C922C0D
:10417000981844FE91C0B70180E390E00E94782136
:1041800042FE09C088E790E041FE02C088E590E069
:10419000B7010E947821C91408F48AC0CA94D12CAE
:1041A0009FEFC91AD90ACA0CDB1CF60182916F0174
:1041B000B70190E00E947821AC14BD04B1F74FCF55
:1041C00060817181072E000C880B990B0E5F1F4FC9
:1041D00092CFD32CE894D4F82AE030E0853739F137
:1041E000232D297FD22E8F3601F148F48835A9F08E
:1041F000F701868197812B96E2E10C942222803789
:1042000049F08837A9F7D4FE02C06894D2F820E1BB
:1042100030E00DC06894D4F8F6CF34FE03C0822F8E
:104220008660D82E20E132E002C028E030E0F801BC
:10423000D7FE0FC060817181828193810C5F1F4F17
:10424000A5010E94A821C82ECA183D2CE89437F871
:1042500067CF6081718190E080E00E5F1F4FF0CFEB
:1042600042FC02C0839478CF8394839475CF842DCD
:10427000867809F471CFF6CFB70180E290E00E9412
:10428000782183948214C0F3512C73CF522C581888
:10429000821408F46ECFF8CF842D867809F47BCF92
:1042A0008BE241FE80E247FC8DE2B70190E071CFE6
:1042B000B70180E390E00E9478219A946CCF8FEF51
:1042C0009FEF99CFFC010590615070400110D8F725
:1042D000809590958E0F9F1F0895FC01615070404E
:1042E00001900110D8F7809590958E0F9F1F08952B
:1042F0000F931F93CF93DF93182F092FEB018B811F
:1043000081FD09C01FEF0FEF812F902FDF91CF911B
:104310001F910F91089582FF14C02E813F818C81DF
:104320009D81281739073CF4E881F981CF01019676
:104330009983888310838E819F8101969F838E83CA
:10434000E3CFE885F985812F0995892BA1F3DACF91
:10435000FA01AA27283051F1203181F1E8946F93B6
:104360006E7F6E5F7F4F8F4F9F4FAF4FB1E03ED05C
:10437000B4E03CD0670F781F891F9A1FA11D680FFA
:10438000791F8A1F911DA11D6A0F711D811D911D2D
:10439000A11D20D009F468943F912AE0269F1124A2
:1043A0003019305D3193DEF6CF010895462F477006
:1043B000405D4193B3E00FD0C9F7F6CF462F4F7061
:1043C000405D4A3318F0495D31FD4052419302D0BF
:1043D000A9F7EACFB4E0A695979587957795679565
:1043E000BA95C9F700976105710508959B01AC0165
:1043F0000A2E06945795479537952795BA95C9F78C
:10440000620F731F841F951FA01D08952F923F9266
:104410004F925F926F927F928F929F92AF92BF92D4
:10442000CF92DF92EF92FF920F931F93CF93DF9380
:10443000CDB7DEB7CA1BDB0B0FB6F894DEBF0FBEDD
:10444000CDBF09942A88398848885F846E847D842A
:104450008C849B84AA84B984C884DF80EE80FD802C
:104460000C811B81AA81B981CE0FD11D0FB6F894A2
:0E447000DEBF0FBECDBFED010895F894FFCF63
:10447E0010FFFFFFFFFF00E1000000000000010041
:10448E00000000C1808100000000000000A4052390
:10449E0005C505BA050B06C905E7057825640000B4
:00000001FF
